:020000040800F2
:1000000000000220596B0208BD580208BF580208C0
:10001000C1580208C3580208C55802080000000071
:10002000000000000000000000000000C7580208A7
:10003000C958020800000000CB580208CD58020839
:10004000A96B0208A96B0208A96B0208A96B020838
:10005000A96B0208A96B0208A96B0208A96B020828
:10006000DB580208A96B0208A96B0208E1580208D4
:10007000A96B0208A96B0208A96B0208ED580208D7
:10008000F9580208A96B0208A96B020800000000D9
:10009000000000000000000000000000A96B020842
:1000A000A96B0208A96B0208A96B0208A96B0208D8
:1000B000A96B0208A96B0208A96B0208A96B0208C8
:1000C000A96B0208A96B0208A96B0208A96B0208B8
:1000D000A96B020805590208A96B0208000000007C
:1000E000A96B0208A96B0208A96B020800000000B6
:1000F000000000000000000000000000A96B0208E2
:1001000000000000A96B0208A96B0208A96B020895
:1001100000000000000000000000000000000000DF
:10012000A96B0208A96B0208A96B0208A96B020857
:10013000A96B0208000000000000000000000000A1
:100140000000000000000000000000001959020833
:10015000A96B0208A96B0208A96B0208A96B020827
:10016000A96B0208A96B0208000000000000000053
:10017000000000000000000000000000000000007F
:1001800000000000A96B0208000000000000000051
:08019000A96B0208A96B02082B
:020000040801F1
:1000000010B5054C237833B9044B13B10448AFF352
:1000100000800123237010BDA00500200000000017
:10002000A87A040808B5034B1BB103490348AFF392
:10003000008008BD00000000A4050020A87A040884
:1000400081F0004102E000BF83F0004330B54FEA89
:1000500041044FEA430594EA050F08BF90EA020FF6
:100060001FBF54EA000C55EA020C7FEA645C7FEA89
:10007000655C00F0E2804FEA5454D4EB5555B8BFAC
:100080006D420CDD2C4480EA020281EA030382EA1D
:10009000000083EA010180EA020281EA0303362DAF
:1000A00088BF30BD11F0004F4FEA01314FF4801C82
:1000B0004CEA113102D0404261EB410113F0004F94
:1000C0004FEA03334CEA133302D0524263EB43034B
:1000D00094EA050F00F0A780A4F10104D5F1200EE9
:1000E0000DDB02FA0EFC22FA05F2801841F1000144
:1000F00003FA0EF2801843FA05F359410EE0A5F118
:1001000020050EF1200E012A03FA0EFC28BF4CF048
:10011000020C43FA05F3C01851EBE37101F00045FE
:1001200007D54FF0000EDCF1000C7EEB00006EEB0B
:100130000101B1F5801F1BD3B1F5001F0CD3490895
:100140005FEA30004FEA3C0C04F101044FEA4452EC
:1001500012F5800F80F09A80BCF1004F08BF5FEA73
:10016000500C50F1000041EB045141EA050130BD53
:100170005FEA4C0C404141EB010111F4801FA4F1F6
:100180000104E9D191F0000F04BF01460020B1FA4B
:1001900081F308BF2033A3F10B03B3F120020CDA83
:1001A0000C3208DD02F1140CC2F10C0201FA0CF061
:1001B00021FA02F10CE002F11402D8BFC2F1200CC6
:1001C00001FA02F120FA0CFCDCBF41EA0C0190407C
:1001D000E41AA2BF01EB0451294330BD6FEA0404C5
:1001E0001F3C1CDA0C340EDC04F11404C4F12002B0
:1001F00020FA04F001FA02F340EA030021FA04F3C2
:1002000045EA030130BDC4F10C04C4F1200220FA18
:1002100002F001FA04F340EA0300294630BD21FA56
:1002200004F0294630BD94F0000F83F4801306BF1C
:1002300081F480110134013D4EE77FEA645C18BF10
:100240007FEA655C29D094EA050F08BF90EA020FA7
:1002500005D054EA000C04BF1946104630BD91EA9F
:10026000030F1EBF0021002030BD5FEA545C05D1A2
:100270004000494128BF41F0004130BD14F58004E1
:100280003CBF01F5801130BD01F0004545F0FE4155
:1002900041F470014FF0000030BD7FEA645C1ABF8A
:1002A000194610467FEA655C1CBF0B46024650EAC1
:1002B000013406BF52EA033591EA030F41F40021ED
:1002C00030BD00BF90F0000F04BF0021704730B573
:1002D0004FF4806404F132044FF000054FF0000148
:1002E00050E700BF90F0000F04BF0021704730B509
:1002F0004FF4806404F1320410F0004548BF4042DE
:100300004FF000013EE700BF42004FEAE2014FEA32
:1003100031014FEA02701FBF12F07F4393F07F4F0D
:1003200081F06051704732F07F4208BF704793F010
:100330007F4F04BF41F40021704730B54FF4607423
:1003400001F0004521F000411CE700BF50EA010226
:1003500008BF704730B54FF000050AE050EA0102CF
:1003600008BF704730B511F0004502D5404261EB3F
:1003700041014FF4806404F132045FEA915C3FF480
:10038000D8AE4FF003025FEADC0C18BF03325FEA1D
:10039000DC0C18BF033202EBDC02C2F1200300FACE
:1003A00003FC20FA02F001FA03FE40EA0E0021FAF3
:1003B00002F11444BDE600BF70B54FF0FF0C4CF4E1
:1003C000E06C1CEA11541DBF1CEA135594EA0C0F93
:1003D00095EA0C0F00F0DEF82C4481EA030621EACE
:1003E0004C5123EA4C5350EA013518BF52EA033509
:1003F00041F4801143F4801338D0A0FB02CE4FF0BB
:100400000005E1FB02E506F00042E0FB03E54FF0EA
:100410000006E1FB03569CF0000F18BF4EF0010EE2
:10042000A4F1FF04B6F5007F64F5407404D25FEADE
:100430004E0E6D4146EB060642EAC62141EA555191
:100440004FEAC52040EA5E504FEACE2EB4F1FD0CD3
:1004500088BFBCF5E06F1ED8BEF1004F08BF5FEA51
:10046000500E50F1000041EB045170BD06F0004603
:1004700046EA010140EA020081EA0301B4EB5C04B0
:10048000C2BFD4EB0C0541EA045170BD41F48011A8
:100490004FF0000E013C00F3AB8014F1360FDEBFCD
:1004A000002001F0004170BDC4F10004203C35DAA9
:1004B0000C341BDC04F11404C4F1200500FA05F32C
:1004C00020FA04F001FA05F240EA020001F00042CD
:1004D00021F0004110EBD37021FA04F642EB060143
:1004E0005EEA430E08BF20EAD37070BDC4F10C046D
:1004F000C4F1200500FA04F320FA05F001FA04F231
:1005000040EA020001F0004110EBD37041F100011C
:100510005EEA430E08BF20EAD37070BDC4F1200527
:1005200000FA05F24EEA020E20FA04F301FA05F28F
:1005300043EA020321FA04F001F0004121FA04F237
:1005400020EA020000EBD3705EEA430E08BF20EA07
:10055000D37070BD94F0000F0FD101F00046400041
:1005600041EB010111F4801F08BF013CF7D041EAC3
:10057000060195F0000F18BF704703F000465200C7
:1005800043EB030313F4801F08BF013DF7D043EA98
:100590000603704794EA0C0F0CEA135518BF95EA4E
:1005A0000C0F0CD050EA410618BF52EA4306D1D1D5
:1005B00081EA030101F000414FF0000070BD50EAF4
:1005C000410606BF1046194652EA430619D094EA7E
:1005D0000C0F02D150EA013613D195EA0C0F05D168
:1005E00052EA03361CBF104619460AD181EA0301BC
:1005F00001F0004141F0FE4141F470014FF0000074
:1006000070BD41F0FE4141F4780170BD70B54FF00E
:10061000FF0C4CF4E06C1CEA11541DBF1CEA13558E
:1006200094EA0C0F95EA0C0F00F0A7F8A4EB050470
:1006300081EA030E52EA03354FEA013100F0888067
:100640004FEA03334FF0805545EA131343EA126330
:100650004FEA022245EA111545EA10654FEA0026E5
:100660000EF000419D4208BF964244F1FD0404F59E
:10067000407402D25B084FEA3202B61A65EB0305FA
:100680005B084FEA32024FF480104FF4002CB6EBB7
:10069000020E75EB030E22BFB61A754640EA0C0037
:1006A0005B084FEA3202B6EB020E75EB030E22BF77
:1006B000B61A754640EA5C005B084FEA3202B6EBB8
:1006C000020E75EB030E22BFB61A754640EA9C0077
:1006D0005B084FEA3202B6EB020E75EB030E22BF47
:1006E000B61A754640EADC0055EA060E18D04FEA05
:1006F000051545EA16754FEA06164FEAC30343EAA5
:1007000052734FEAC2025FEA1C1CC0D111F4801F71
:100710000BD141EA00014FF000004FF0004CB6E76A
:1007200011F4801F04BF01430020B4F1FD0C88BF09
:10073000BCF5E06F3FF6AFAEB5EB030C04BFB6EB14
:10074000020C5FEA500C50F1000041EB045170BD07
:100750000EF0004E4EEA113114EB5C04C2BFD4EB34
:100760000C0541EA045170BD41F480114FF0000EB8
:10077000013C90E645EA060E8DE60CEA135594EA34
:100780000C0F08BF95EA0C0F3FF43BAF94EA0C0F37
:100790000AD150EA01347FF434AF95EA0C0F7FF4AC
:1007A00025AF104619462CE795EA0C0F06D152EA00
:1007B00003353FF4FDAE1046194622E750EA4106E4
:1007C00018BF52EA43067FF4C5AE50EA41047FF4F5
:1007D0000DAF52EA43057FF4EBAE12E74FF0FF3C5A
:1007E00006E000BF4FF0010C02E000BF4FF0010C2B
:1007F0004DF804CD4FEA410C7FEA6C5C4FEA430CA4
:1008000018BF7FEA6C5C1BD001B050EA410C0CBFF2
:1008100052EA430C91EA030F02BF90EA020F002054
:10082000704710F1000F91EA030F58BF994208BFBB
:1008300090422CBFD8176FEAE37040F00100704778
:100840004FEA410C7FEA6C5C02D150EA013C07D1CF
:100850004FEA430C7FEA6C5CD6D152EA033CD3D01A
:100860005DF8040B704700BF8446104662468C4614
:100870001946634600E000BF01B5FFF7B7FF002847
:1008800048BF10F1000F01BD4DF808EDFFF7F4FF70
:100890000CBF012000205DF808FB00BF4DF808EDFB
:1008A000FFF7EAFF34BF012000205DF808FB00BF1E
:1008B0004DF808EDFFF7E0FF94BF012000205DF840
:1008C00008FB00BF4DF808EDFFF7CEFF94BF0120F5
:1008D00000205DF808FB00BF4DF808EDFFF7C4FFEE
:1008E00034BF012000205DF808FB00BF4FEA410C37
:1008F0007FEA6C5C02D150EA013C0AD14FEA430C1A
:100900007FEA6C5C02D152EA033C02D14FF0000056
:1009100070474FF0010070474FEA410212F5001294
:1009200015D211D56FF47873B3EB625212D94FEA36
:10093000C12343F0004343EA505311F0004F23FA20
:1009400002F018BF404270474FF00000704750EA75
:10095000013005D111F0004008BF6FF00040704732
:100960004FF00000704700BF4A0011D212F500128C
:1009700011D20DD56FF47873B3EB62520ED44FEAF7
:10098000C12343F0004343EA505323FA02F0704777
:100990004FF00000704750EA013002D14FF0FF30B5
:1009A00070474FF0000070474FEA4102B2F1E04358
:1009B00024BFB3F5001CDCF1FE5C0DD901F0004C46
:1009C0004FEAC0024CEA5070B2F1004F40EB830096
:1009D00008BF20F00100704711F0804F21D113F1C2
:1009E0003872BCBF01F00040704741F480114FEAFB
:1009F0005252C2F11802C2F1200C10FA0CF320FA84
:100A000002F018BF40F001004FEAC1234FEAD323A0
:100A100003FA0CFC40EA0C0023FA02F34FEA43030A
:100A2000CCE77FEA625307D150EA01331EBF4FF093
:100A3000FE4040F44000704701F0004040F0FE40AE
:100A400040F40000704700BF53B94AB9002908BFFD
:100A500000281CBF4FF0FF314FF0FF3000F072B99B
:100A6000ADF1080C6DE904CE00F006F8DDF804E005
:100A7000DDE9022304B070472DE9F047089E0446E3
:100A80008846002B4BD18A42154667D9B2FA82F2CA
:100A90004AB1C2F1200701FA02F320FA07F79540A4
:100AA00047EA030894404FEA154E230CB8FBFEF7C3
:100AB0001FFA85FC0EFB178843EA084307FB0CF17D
:100AC000994209D9EB1807F1FF3080F01B81994258
:100AD00040F21881023F2B445B1AA4B2B3FBFEF034
:100AE0000EFB103344EA034400FB0CFCA44509D977
:100AF0002C1900F1FF3380F00781A44540F20481F6
:100B000002382C4440EA0740A4EB0C0400271EB135
:100B1000D4400023C6E900433946BDE8F0878B4244
:100B200009D9002E00F0EB800027C6E90001384605
:100B30003946BDE8F087B3FA83F7002F47D18B42DF
:100B400002D3824200F2FA80841A61EB030301208F
:100B50009846002EE0D0C6E90048DDE702B9FFDE86
:100B6000B2FA82F2002A40F08F80491B4FEA154EFC
:100B70001FFA85F80127B1FBFEFC230C0EFB1C11AC
:100B800043EA014308FB0CF1994207D9EB180CF139
:100B9000FF3002D2994200F2CD808446591AA3B2A6
:100BA000B1FBFEF00EFB101443EA044408FB00F80E
:100BB000A04507D92C1900F1FF3302D2A04500F25D
:100BC000B6801846A4EB080440EA0C409FE7C7F142
:100BD000200CBB4022FA0CFE4EEA030E01FA07F489
:100BE00020FA0CF521FA0CF34FEA1E482543B3FB1B
:100BF000F8F92C0C08FB19331FFA8EFA44EA034368
:100C000009FB0AF49C4202FA07F200FA07F10BD939
:100C10001EEB030309F1FF3080F087809C4240F215
:100C20008480A9F1020973441B1BADB2B3FBF8F039
:100C300008FB103345EA034400FB0AFAA24508D931
:100C40001EEB040400F1FF336BD2A24569D90238D0
:100C5000744440EA0940A0FB0289A4EB0A044C4515
:100C6000C2464B4654D351D0002E69D0B1EB0A0591
:100C700064EB030404FA0CFCFD40FC404CEA05055F
:100C8000C6E90054002747E7C2F1200320FA03F722
:100C9000954001FA02F021FA03F34FEA154E38436A
:100CA000010CB3FBFEF71FFA85F80EFB173341EA80
:100CB000034107FB08F38B4204FA02F407D96918D1
:100CC00007F1FF3C2FD28B422DD9023F2944CB1A8A
:100CD00081B2B3FBFEF00EFB103341EA034100FB8F
:100CE00008F38B4207D9691800F1FF3C17D28B42F9
:100CF00015D902382944C91A40EA07473BE7374665
:100D0000304609E70746E7E61846FBE64145ABD221
:100D1000B8EB020A69EB0E0201381346A4E76046FD
:100D2000E9E7184695E76746D1E781467CE7023850
:100D30002C4447E7ACF1020C2B442FE7384608E778
:100D40003746E9E6704700BF0000000000000000E1
:100D500001F0FF01102A2BDB10F0070F08D010F86C
:100D6000013B013A8B422DD010F0070F42B3F6D170
:100D7000F0B441EA012141EA014122F007047FF089
:100D800000070023F0E80256083C85EA010586EAE0
:100D9000010685FA47F5A3FA87F586FA47F6A5FA1C
:100DA00087F68EB9EED1F0BC01F0FF0102F0070228
:100DB00032B110F8013B013A83EA010313B1F8D1D3
:100DC0000020704701387047002D06BF35460338B4
:100DD000073815F0010F07D1013015F4807F02BFED
:100DE000013015F4C03F0130F0BC0138704700BF3E
:100DF00010F8012B11F8013B012A28BF9A42F7D0C5
:100E0000D01A7047034613F8012B002AFBD1181A99
:100E10000138704770B50E4A0E4E05464FF47A738E
:100E20003078B3FBF0F31068B0FBF3F000F0F4F8A7
:100E3000044650B90F2D08D8024629464FF0FF301E
:100E400000F07AF87560204670BD0120FCE700BF15
:100E5000780200200400002008B50B4B1A6842F409
:100E600000721A601A6842F480621A601A6842F4CA
:100E700080721A60032000F041F80020FFF7CAFFDB
:100E800014F0D2FC002008BD003C0240034A044B91
:100E900011681B780B441360704700BF80E100208D
:100EA00004000020014B1868704700BF80E100205B
:100EB00038B50446FFF7F6FF631C1CBF054B1B78D3
:100EC000054618BFE418FFF7EDFF401BA042FAD318
:100ED00038BD00BF0400002000487047000407012F
:100EE000014B1868000C7047002004E0024B1868A2
:100EF000C0F30B00704700BF002004E0C31E042BAA
:100F000010B5044603D9A221094814F080FB094A10
:100F1000D36823F4E0631B041B0C43F0BF6324027B
:100F200043F4003304F4E0641C43D46010BD00BFFC
:100F3000A0B4050800ED00E00F2A70B505460C4688
:100F4000164603D9BA211B4814F061FB0F2C03D9B4
:100F5000BB21184814F05BFB174BDA68C2F302227E
:100F6000C2F10703111D042B28BF042306294FF0EB
:100F7000FF3101FA03F38CBF033A002224EA030392
:100F8000934001FA02F226EA0206002D43EA060324
:100F9000A8BF05F160454FEA0313BCBF05F00F057C
:100FA000064ADBB2AABF05F56145535585F8003303
:100FB00070BD00BFA0B4050800ED00E014ED00E036
:100FC00010B5041E03DACE21064814F020FB620996
:100FD000012304F01F0403FA04F4034B43F82240F6
:100FE00010BD00BFA0B4050800E100E010B5041E6C
:100FF00003DADE21064814F00AFB6309012204F03B
:101000001F0402FA04F42033024A42F8234010BDC0
:10101000A0B4050800E100E00138B0F1807F0AD2F9
:10102000064B074A5860F02182F82310002007225F
:1010300098601A6070470120704700BF10E000E020
:1010400000ED00E0042810B5084C0AD020B140F2B1
:10105000D911074814F0DBFA236823F00403236056
:1010600010BD236843F00403F9E700BF10E000E07F
:10107000A0B40508704708B5FFF7FCFF08BD0000E5
:101080000368DAB223F47F7323F003031821103AC4
:10109000B2FBF1F20449032A88BF0433895C8365FB
:1010A000C165806D704700BFC07A040870B5044602
:1010B000FFF7F8FE0546002C00F0178123688C4AE4
:1010C000934231D0183293422ED0183293422BD013
:1010D0001832934228D01832934225D018329342C6
:1010E00022D0183293421FD0183293421CD002F5FE
:1010F0005672934218D01832934215D01832934248
:1011000012D0183293420FD0183293420CD01832BA
:10111000934209D01832934206D01832934203D03A
:10112000C821744814F073FA636833F0C06306D0C2
:10113000B3F1006F03D0C9216E4814F068FAA368B8
:1011400033F0400205D0802B03D0CA21694814F047
:101150005EFAE36833F4007303D0CB21654814F0E2
:1011600056FA236933F4806303D0CC21614814F02C
:101170004EFA636933F4006206D0B3F5805F03D0A2
:10118000CD215C4814F043FAA36933F4005206D031
:10119000B3F5804F03D0CE21564814F038FAE369F6
:1011A00033F0200206D0B3F5807F03D0CF21514821
:1011B00014F02DFA236A33F4403303D0D0214D4884
:1011C00014F025FA636A33F0040303D0D1214948AF
:1011D00014F01DFA636AB3B1A36A032B03D9D621B5
:1011E000444814F014FAE36A33F0C07303D0D721F3
:1011F000404814F00CFA236B33F4C00303D0D82119
:101200003C4814F004FA002384F8343022680223A6
:1012100084F83530136823F00103136021680B68EC
:10122000D8073CD40B68344DA0691D40D4E9012394
:101230001343E26813432269134362691343E2696B
:1012400003431343226A1343626A042A43EA0503F1
:1012500002BFD4E90B5635432B430B604B69042A7C
:1012600023F0070343EA02030BD1A26AE56A1343A2
:101270003DB1F8B9012A2DD001D3022A01D1EA01EA
:101280002BD44B612046FFF7FBFEE26D3F239340DA
:10129000836000200123606584F8353009E0FFF7A2
:1012A00001FE401B0528B9D920236365032084F87B
:1012B000350070BDB0F5005F13D1032AE1D801A05D
:1012C00050F822F0DB1201087F120108DB1201083E
:1012D000D5120108B5F1C07FD3D140236365012049
:1012E000E5E7022AF9D9032AC8E70120E1E700BFB0
:1012F00010600240DBB405083F8010F090F83530F4
:10130000022B03D080234365012070470268052328
:1013100080F83530136823F0010313600020704714
:10132000F7B5002301935C4B856D1F68C36D2E6874
:1013300008229A40324204460CD0016808684007EF
:1013400008D5086820F004000860AA60626D42F0C9
:101350000102626501229A40324208D0216849693F
:10136000090641BFAA60626D42F002026265042272
:101370009A40324208D021680968880741BFAA60B4
:10138000626D42F00402626510229A40324210D02F
:101390002368196809070CD5AA601A68500337D565
:1013A0001B68190301D4236C00E0A36C0BB1204629
:1013B0009847E16D20228A4032423AD0236818686B
:1013C000C60636D5AA6094F83520052A1A6827D1B2
:1013D00022F016021A605A6922F080025A61226CC9
:1013E0000AB9A26C1AB11A6822F008021A603F23E7
:1013F0008B40AB60002384F83430012384F835300F
:10140000236D002B45D0204603B0BDE8F0401847BF
:101410001A68D2055EBF1A6822F008021A60C2E795
:10142000500327D51B68190331D4636C0BB12046D8
:101430009847636D6BB3636DDA0719D5052322688E
:1014400084F83530136823F0010313604FF416530A
:10145000B7FBF3F7019B0133BB42019302D813683A
:10146000DB07F7D4002384F83430012384F83530C7
:10147000E36CC6E71A6812F4807208D1196821F08B
:1014800010011960012384F8342084F83530E36BAF
:10149000CCE703B0F0BD00BF78020020204BDA6833
:1014A000D00606D51F49CA6942F01002CA6110224F
:1014B000DA60DA68910606D51A49CA6942F008026C
:1014C000CA612022DA60164BDA68520606D5154941
:1014D000CA6942F00402CA614022DA60DA68100682
:1014E00006D51049CA6942F00202CA618022DA6058
:1014F0000B4BDA68D10507D50A49CA6942F00102E7
:10150000CA614FF48072DA60DA68920706D505493D
:10151000CA6942F02002CA610222DA60704700BF45
:10152000003C024084E1002038B500F17843B3F577
:10153000002F04460D460BD300F1604303F508432A
:10154000B3F5047F04D340F2C521084814F05FF8D6
:10155000074B1A6922F440721A611A691A611A69F2
:1015600042F001021A61257038BD00BF13B50508AD
:10157000003C024038B500F17843B3F5002F044633
:101580000D460BD300F1604303F50843B3F5047F28
:1015900004D34FF42B71094814F039F8084B1A6939
:1015A00022F440721A611A6942F480721A611A694F
:1015B00042F001021A61258038BD00BF13B505084D
:1015C000003C024038B500F17843B3F5002F0446E3
:1015D0000D460BD300F1604303F50843B3F5047FD8
:1015E00004D340F29321094814F011F8084B1A690A
:1015F00022F440721A611A6942F400721A611A697F
:1016000042F001021A61256038BD00BF13B505081C
:10161000003C024070B51E4600F17843B3F5002F40
:10162000044615460BD300F1604303F50843B3F5B8
:10163000047F04D340F27721094813F0E8FF0949F9
:10164000086920F440700861086940F4407008613E
:10165000086940F0010008612560666070BD00BF48
:1016600013B50508003C0240064B1A69002ABFBFAB
:10167000054A5A6002F188325A60BABF1869C00F31
:1016800000207047003C024023016745034A13696C
:1016900043F0004313610020704700BF003C02404C
:1016A000F8B5124B124C00220546DA61FFF7FAFB3F
:1016B00026460746E368DA030CD4E368DB0744BF39
:1016C0000123E360F06810F4F97007D0FFF7E6FE3D
:1016D000012003E0691CEDD00DB90320F8BDFFF730
:1016E000E1FBC01BA842E5D9F7E700BF84E1002079
:1016F000003C02402DE9F0411E4C9846237E012B10
:1017000007460D46164632D001230328237603D917
:10171000B421194813F07BFF4CF25030FFF7C0FFA3
:1017200068B987B9F1B22846FFF7FEFE4CF2503097
:10173000FFF7B6FF114A136923F001031361002379
:101740002376BDE8F081012F04D1B1B22846FFF71E
:1017500011FFEBE7022F04D131462846FFF732FF95
:10176000E4E7324643462846FFF754FFDEE702200F
:10177000E7E700BF84E1002013B50508003C024004
:10178000032838B504460D4604D94FF473710D484B
:1017900013F03DFF012D04D040F2CD31094813F084
:1017A00036FF094B1A6922F440721A611A6942F035
:1017B00004021A61186940F4803040EA042018617C
:1017C00038BD00BF4DB50508003C0240072838B5BC
:1017D00005460C4604D940F2EB31174813F017FFC9
:1017E000032C21D94FF47B71134813F010FF022C06
:1017F0000CBF4FF400744FF44074104B1A6922F47C
:1018000040721A611A6914431C611A6922F0F802C5
:101810001A61186940F0020040EAC50018611A69AF
:1018200042F480321A6138BD002CE6D0012CDED1A2
:101830004FF48074E1E700BF4DB50508003C02405D
:10184000144B1A6891050FD51A6822F400721A60B9
:101850001A6842F400621A601A6822F400621A6080
:101860001A6842F400721A600A4B1A6852050FD5C2
:101870001A6822F480621A601A6842F480521A6070
:101880001A6822F480521A601A6842F480621A6060
:10189000704700BF003C02402DE9F8432C4E337ED8
:1018A000012B0446884651D0012333760368012B6F
:1018B00003D9BB21274813F0AAFE4CF25030FFF7A2
:1018C000EFFE0546B0B94FF0FF33C8F8003023688B
:1018D000012B14D16168207CFFF752FF4CF250308D
:1018E000FFF7DEFE1C4A136923F00403054613616B
:1018F000FFF7A6FF002333762846BDE8F883D4E936
:1019000002231344013B072B03D9D321114813F0C1
:101910007EFEA768DFF84090D4E902231344BB425F
:10192000E6D9217C3846FFF751FF4CF25030FFF7E3
:10193000B7FED9F8103023F0FA03C9F8103018B107
:10194000C8F800700546D3E70137E5E70225D3E77D
:1019500084E100204DB50508003C02408F4B9842C1
:101960002DE9F74F04460D4617D003F580639842E2
:1019700013D003F5806398420FD003F5806398423B
:101980000BD003F58063984207D003F5406398427B
:1019900003D0C321824813F03AFE2B689AB212B1E9
:1019A0001B0C1B041BB1C4217D4813F030FE6B6877
:1019B000032B17D9A3F11102012A13D9794923F472
:1019C00000128A420ED001F580118B420AD0A1F597
:1019D00070218A4206D0744A934203D0C5217048D0
:1019E00013F015FEAB68022B03D9C6216C4813F027
:1019F0000EFEDFF8BC81002601232A6803FA06F7F1
:101A000007EA02094F4540F0BB806A6822F01002E5
:101A1000022A1BD129690F2904D849F2F772CA405A
:101A2000D20703D4D7215E4813F0F1FDF10804EB8F
:101A3000810106F0070290000B6A0F22824023EA20
:101A4000020C2A69824042EA0C020A626A68206833
:101A50004FEA460B4FF0030A0AFA0BFA02F00301B1
:101A60006FEA0A0A22F010020AEA000001FA0BF1FA
:101A7000013A0143012A216017D8EA68032A03D9F1
:101A8000EA21474813F0C3FDA168EA686B680AEAD7
:101A9000010102FA0BF20A43A2606268C3F3001369
:101AA00022EA0702B34013436360E36868680AEA06
:101AB000030AAB6803FA0BF343EA0A03E360C300CB
:101AC0005ED53A4A00230193516C41F48041516440
:101AD000526C26F0030101F1804102F4804201F5CD
:101AE0009C31019206F0030C019AD1F808E04FEA0C
:101AF0008C0C0F2202FA0CF22EEA020E274A9442B4
:101B000013D003F1804303F501339C423FD003F52A
:101B100080639C423DD003F580639C423BD003F53B
:101B200080639C4214BF0723042303FA0CF343EAA7
:101B30000E038B60D8F800206FEA0901C70354BF79
:101B40000A4049EA0202C8F80020D8F804208303BA
:101B500054BF0A4049EA0202C8F80420D8F8082015
:101B6000C70254BF0A4049EA0202C8F80820D8F860
:101B70000C30820254BF0B4049EA0303C8F80C3012
:101B80000136102E7FF438AF03B0BDE8F08F01238B
:101B9000CBE70223C9E70323C7E700BF00000240E9
:101BA0008AB505080000111000002210003802401C
:101BB000003C01402DE9F84F454B984204468846C9
:101BC00018D003F58063984214D003F580639842DF
:101BD00010D003F5806398420CD003F580639842DF
:101BE00008D003F54063984204D04FF4A0713948FF
:101BF00013F00DFD3849DFF8E4B000224FF0010981
:101C00004FF0030A4FF00F0C09FA02F333EA080011
:101C100050D1500025680AFA00F0C043D6080540AC
:101C200004EB8606256002F00705376AAD000CFA62
:101C300005F527EA05053562A5680540A5606568D4
:101C4000DB431D406560E5682840E06022F003004A
:101C500000F1804000F59C3002F003061C4D8768BF
:101C6000B6000CFA06FEAC420EEA070727D005F5CF
:101C70008065AC4225D005F58065AC4223D005F5E2
:101C80008065AC4221D05C450CBF04250725B540DA
:101C9000BD420FD1856825EA0E05856008681840A9
:101CA0000860486818404860886818408860C868BC
:101CB0000340CB600132102AA6D1BDE8F88F002581
:101CC000E5E70125E3E70225E1E70325DFE700BFBC
:101CD000000002408AB50508003C014000100240A7
:101CE00038B505460C4621B94FF4C771044813F0C6
:101CF0008EFC2B691C4214BF0120002038BD00BFA0
:101D00008AB5050870B5054616460C4621B940F25D
:101D1000AF11084813F07BFC012E06D94FF4D8719F
:101D2000044813F074FCAC6170BD002EFBD1240498
:101D3000F9E700BF8AB505087047000008B5044BF5
:101D40005969014202D05861FFF7F6FF08BD00BF94
:101D5000003C01400268536913F480630DD06FF4B6
:101D6000806353610423036420220023036380F80B
:101D70003C3080F83D2001207047184670472DE91F
:101D8000F0410446164698468FB22568686937EADE
:101D9000000013D06B695A0512D52B6843F4007309
:101DA0002B606FF480636B61042323642022002383
:101DB000236384F83C3084F83D200120BDE8F081A5
:101DC000731CE3D046B900232022236384F83C30FF
:101DD00084F83D200320F1E7FFF764F8A0EB08004A
:101DE000B042D2D9EFE72DE9F843089E0546904668
:101DF0001F464FEA11498CB22968B9F1010F0CBF97
:101E00004B698B6934EA03030CBF01230023984517
:101E100001D000200CE07B1CEFD05FB90023202212
:101E20002B6385F83C3085F83D20032085F83E3053
:101E3000BDE8F883FFF736F8801BB842DCD9EDE740
:101E400070B504460D46164623685B691B0601D52E
:101E5000002012E02046FFF77DFFA8B96A1CF3D0EE
:101E600065B9236C43F020032364202200232363FD
:101E700084F83C3084F83D20032070BDFFF712F851
:101E8000801BA842E0D9ECE70120F6E770B50446D4
:101E90000D4616462068436913F0400301D0002028
:101EA0000DE04269D2060BD56FF01002426120228C
:101EB000236484F83C302363012084F83D2070BD06
:101EC0005DB9236C43F020032364202384F83D3064
:101ED000002384F83C300320F1E7FEF7E3FF801B8A
:101EE000A842D7D9EDE770B504460D4616462368DB
:101EF0005B695B0701D5002012E02046FFF72AFF4F
:101F0000A8B96A1CF3D065B9236C43F0200323649D
:101F100020220023236384F83C3084F83D200320F2
:101F200070BDFEF7BFFF801BA842E0D9ECE701209F
:101F3000F6E7000070B50446002800F0C180036891
:101F4000604A93420CD002F58062934208D002F5B9
:101F50008062934204D04FF4B7715B4813F057FB93
:101F600063685A4A013B934204D940F26F115648C4
:101F700013F04DFBA36833F4804304D04FF4B871E1
:101F8000514813F044FBE36823F47F7323F0030309
:101F900023B140F271114C4813F039FB236923F44B
:101FA0000043B3F5804F04D04FF4B971464813F0A5
:101FB0002EFB6369012B04D940F27311424813F0E0
:101FC00026FBA36933F0FE0304D04FF4BA713E48F8
:101FD00013F01DFBE36933F0400304D040F27511A8
:101FE000394813F014FB236A33F0800304D04FF414
:101FF000BB71354813F00BFB94F83D3003F0FF0242
:1020000023B984F83C20204613F032FA2268304E7F
:10201000304D242384F83D30136823F0010313600E
:1020200001F0DCFA63682268B0FBF5F5B34284BFC7
:102030004FF496716943556091BF691C4FF47A75EE
:10204000B1FBF5F10131B342116221D85B00B0FB65
:10205000F3F0C0F30B03032B98BF0420D4E907313E
:102060000B43D0611360D4E903130B439360D4E9AD
:1020700005310B43D360136843F001031360002064
:102080002023206484F83D30206384F83E0070BD36
:10209000A16849B903EB4303B0FBF3F0C0F30B03B2
:1020A00063B140F40040D9E719214B43B0FBF3F092
:1020B000C0F30B0313B140F44040CFE70120CDE75C
:1020C0000120E4E700540040C3B505087F1A06006C
:1020D000A086010040420F002DE9FF4104461F4643
:1020E0000D469046FEF7DEFE94F83D30202B064666
:1020F00004D00225284604B0BDE8F08100901923E1
:1021000001225C492046FFF76EFE0028F1D194F8C9
:102110003C30012BEDD0012384F83C3023681A6851
:10212000D2075EBF1A6842F001021A601A6822F4F0
:1021300000621A60212284F83D20102284F83E209B
:1021400000222264A2F580326785E262628D2285D8
:10215000E26AC4F82480042A04D0012A02D012F5CD
:10216000803F04D11A6842F480721A6002E0226B48
:10217000122AF7D000960A9B00224FF00111204648
:10218000FFF731FE002833D123692268B3F5804F71
:1021900020D105F0FE05156133460A9A36492046DE
:1021A000FFF7EDFD054610BB236803905A690392C3
:1021B0009B690393039B238D3BBB21680A6842F410
:1021C00000720A60202284F83D2084F83C3084F8B4
:1021D0003E308FE7EB1103F0060343F0F003136189
:1021E00026490A9A33462046FFF7C9FD48B1236CB9
:1021F000236C042B4FF0000384F83C300ED10125F2
:1022000078E72368EDB21D61C6E732460A99204699
:10221000FFF716FE20B1236C042B25D0032569E7B8
:10222000616A2068228D4B1C63620B780361638DA9
:10223000013B9BB263854769531E9BB27F07238591
:102240000AD54BB18B1C63624B780361638D013BF4
:102250009BB2023A6385228532460A992046FFF7EF
:1022600042FE0028A7D0D6E72268136843F4007323
:102270001360C4E702001000020001000800010022
:102280002DE9F043044689B098460D469146109FCB
:10229000FEF708FE94F83D30202B064604D00225B8
:1022A000284609B0BDE8F0830090192301229B491C
:1022B0002046FFF798FD0028F1D194F83C30012B1F
:1022C000EDD0012384F83C3023681A68D1075EBF43
:1022D0001A6842F001021A601A6822F400621A6059
:1022E000222284F83D20102284F83E20002222641D
:1022F000A2F58032A4F82A80E262628D2285E26A29
:102300001968C4F8249041F48061042A196004D04B
:10231000012A02D012F5803F04D11A6842F480727B
:102320001A6002E0226B112AF7D000963B46002289
:102330004FF001112046FFF756FD00284BD12269CE
:102340002368B2F5804F37D145F00105EDB21D612C
:1023500033463A4672492046FFF711FD05460028EC
:1023600038D1228D2368002A63D0012A74D11A68DB
:1023700022F480621A6004905A6904929A69049265
:10238000049A1A6842F400721A60DFF89C81238D67
:10239000002B58D0032B00F2C980012B77D1324695
:1023A00039462046FFF772FD002800F08D80236C2F
:1023B000202B17D1032573E74FEAE51808F006082C
:1023C00048F0F0021A61574933463A462046FFF773
:1023D000D6FC48B1236C236C042B4FF0000384F827
:1023E0003C30E7D101255BE723684D49EDB21D6123
:1023F0003A4633462046FFF7C2FC02460028E9D1A0
:102400002368079059690791996907910799196895
:1024100041F480711960204600963B464FF001114F
:10242000FFF7E1FC0028D6D1226848F0F1031361E0
:102430008EE703905A6903929A690392039A1A6885
:1024400042F400721A60202384F83D30002384F89F
:102450003E3084F83C3023E7022A1A680DD122F47A
:1024600080621A601A6842F400621A6005905A6924
:1024700005929B690593059B87E742F480621A6089
:1024800006905A6906929B690693069B7DE7022B8C
:1024900000963B464FF000024146204622D1FFF70E
:1024A000A2FC002886D123681A6842F400721A60E0
:1024B0001A69636A591C61621A70238D013B238576
:1024C000638D013B9BB2638523681A69636A591C5B
:1024D00061621A70238D013B2385638D013B9BB2A2
:1024E000638554E7FFF77FFC024600287FF462AF64
:1024F0002368196821F4806119601969636A581C9E
:1025000060621970238D0096013B2385638D013B2A
:102510009BB2638541463B462046C0E7020010005F
:1025200002000100080001000400010032463946A3
:102530002046FFF7ABFC00287FF439AF23681A6907
:10254000636A591C61621A70238D013B2385638D78
:10255000013B9BB2638523685A6952077FF517AF29
:10256000B3E700BF2DE9F04F044685B09846894691
:102570009246FEF797FC94F83D30202B064603D098
:10258000022005B0BDE8F08F0090192301224A49CE
:102590002046FFF728FC0028F2D194F83C30012BAC
:1025A000EED0012384F83C302368DFF80CB11A68C0
:1025B000D2075EBF1A6842F001021A601A6822F45C
:1025C00000621A60242384F83D3000253B4B2564CB
:1025D00009F0FE09E3622268136843F48073136014
:1025E0004FF001110096434600222046FFF7FBFB07
:1025F00008B10320C5E72368C3F81090FEF752FC2A
:10260000236859695A6994F83D300646C1F3400180
:10261000C2F38022DBB2A02711B90AB9A02B20D1C6
:102620002368202784F83D705A6912F0020F1A6857
:1026300042F400721A602AD0002203925A6903926F
:102640009B690393039B0096192301221A49204694
:10265000FFF7C9FB0028CCD184F83D7084F83C001A
:102660008FE7B8F1000F0CD184F83D7023685969E9
:102670005A6994F83D30C1F34001C2F38022DBB2C5
:10268000CAE7FEF70FFC801B4045EDD8EEE76FF47C
:1026900080625A6159460096192301222046FFF7AD
:1026A000A2FB0028A5D10135AA4594D884F83C00A6
:1026B00084F83D70012064E7020010000000FFFF75
:1026C000F0B505468BB000286DD00368B3F1A04F7C
:1026D00003D09421354812F09AFF03232C4685F845
:1026E000B933284613F0C4FA54F8100B02F01EFC5C
:1026F0000FCC6E460FC60FCC0FC694E8030086E8D9
:1027000003002F1D97E80E00286802F0CFFB002180
:10271000286802F011FC00212B462A4605F110041E
:102720000126084682F83810D18701310F2982F836
:10273000396082F83B00C2E91000D06402F11C024B
:10274000F0D10022D5F800C0114602F1400083F814
:10275000F821DA870CEB800001320F2A83F8F91197
:1027600083F8FB11C3F80012C3F80412C3F80C126B
:10277000416003F11C03E8D10FCC6E460FC60FCCAD
:102780000FC694E8030086E80300604697E80E0051
:1027900002F0EAFB012385F8B933286802F005FF4F
:1027A00000200BB0F0BD0120FBE700BFFBB5050822
:1027B00090F8B833012B10B504460CD0012380F8F3
:1027C000B833006802F0E5FE206802F0A9FB0020A3
:1027D00084F8B80310BD0220FCE700002DE9F04F9B
:1027E000066887B00446304602F019FF02900028C0
:1027F00040F02F81206802F0E4FE002800F02981DB
:10280000206802F0DEFE800748BF2268206842BFD1
:10281000536903F00203536102F0D3FE10F4002564
:102820000BD0206802F0D1FE0025074606F530687F
:102830004FF0080B002F40F00F81206802F0C1FE1E
:1028400042030BD5206802F0C8FE274682460025C9
:1028500006F51069BAF1000F40F04581206802F0DA
:10286000B0FE00280DDAD6F8043823F00103C6F8CC
:102870000438204613F072FA2268536903F00043CB
:102880005361206802F09DFE03050BD5D6F8083889
:10289000DF0702D5204613F049FA2268536903F492
:1028A00000635361206802F08CFEC00437D506F542
:1028B00000677B68206823F001037B60102102F031
:1028C000EFFB616806F51063FF220298814240F039
:1028D000A4814FF0FF33BB61FB6943F00113FB613F
:1028E000236B002B00F0A181D7F8843043F00B0359
:1028F000C7F884307B6C43F00B037B64D6F8003858
:10290000217C206823F4FE63C6F8003804F56F725A
:1029100002F0A4FE2268536903F4805353612068D7
:1029200002F04FFE81041DD5206802F07CFE206875
:10293000C36823F47053C36002F0DBFB002840F04F
:102940007D812268E0604FF400736361D36843F4D3
:102950001053D360204613F0D8F92268536903F46A
:1029600000535361206802F02CFEC3062BD5226869
:10297000936923F010039361376AC7F34343022B33
:1029800007F00F0940F0BB8147F6F0731F4215D0E6
:102990004FF01C0808FB0948C7F30A173A46D8F855
:1029A0000412304602F0A4FDD8F804323B44C8F8C3
:1029B0000432D8F810321F44C8F8107222689369A4
:1029C00043F010039361206802F0FBFD070707D571
:1029D000204613F096F92268536903F00803536107
:1029E000206802F0EEFDC60208D5E9B2204613F0D9
:1029F000BDF92268536903F480135361206802F023
:102A0000E0FD800208D5E9B2204613F0ABF9226858
:102A1000536903F400135361206802F0D2FD4100B2
:102A200007D5204613F0A6F92268536903F08043C6
:102A30005361206802F0C5FD42070AD523685D682E
:102A40006B0702D5204613F099F9226853682B438F
:102A5000536007B0BDE8F08FF90741D55FFA85FAFA
:102A60005146206802F0C1FD10F0010F814626D0CA
:102A700008EB451101238B602369012B0FD11C2327
:102A800003FB05430969D3F80002C1F31201411A9F
:102A9000C3F81012D3F804120844C3F804025146D4
:102AA000204613F01DF92169012908D13DB9D4F858
:102AB0000C3223B904F56F72206802F0CFFD19F0D3
:102AC000080F06D0204613F005F908EB4513C3F8AC
:102AD00008B019F0100F1EBF08EB451310229A60C2
:102AE00001357F08A6E61AF0010F77D05FFA85FB63
:102AF0005946206802F083FD10F0010F804621D076
:102B0000D6F834380121A94023EA0103C6F8343845
:102B100009EB451301229A602369934202BFD7E96A
:102B200010239B187B645946204613F0E2F8216974
:102B3000012907D135B9E36C23B904F56F72206818
:102B400002F08CFD18F0080F1EBF09EB4513082298
:102B50009A6018F0100F1EBF09EB451310229A60FF
:102B600018F0400F1EBF09EB451340229A6018F081
:102B7000020F1EBF09EB451302229A6018F0800F66
:102B80002CD023680393D7E91332A3EB02083B6CE4
:102B9000984528BF984608F103039B080493039BBC
:102BA00003F5106303EB45130593059B049A9B699A
:102BB0009BB2934204D9D7E91332934200D993B917
:102BC000B8F1000F0AD1039B012203F5006BD3F883
:102BD0003438AA4023EA0203CBF8343001354FEAF7
:102BE0005A0A1C3736E6A3EB02083B6C039898455B
:102BF00028BF984608F103039B080493237C0093A5
:102C00005A461FFA88F3796C02F05EFC7B6C4344F1
:102C10007B643B6D43443B65C7E702989A60013093
:102C2000C3F80822029020334FE67B6943F00B0380
:102C30007B613B6943F00B033B615FE60323E36089
:102C40004023636100F0C4FC354B364A0344934291
:102C5000236804D8DA6842F47052DA607AE6324ABD
:102C6000324902448A4203D8DA6842F46052F4E7F7
:102C7000A0F574022E49A2F510528A4203D8DA68F0
:102C800042F45052E9E7A0F183722A49A2F5E742E3
:102C90008A4203D8DA6842F44052DEE7264A2749DE
:102CA00002448A4203D8DA6842F43052D5E7244A13
:102CB000244902448A4203D8DA6842F42052CCE71D
:102CC000214A224902448A4203D8DA6842F4105267
:102CD000C3E7A0F1B7721E49A2F558528A4203D841
:102CE000DA6842F40052B8E71A4A1B4902448A42A1
:102CF000DA6894BF42F4E05242F4C052ADE7062BCA
:102D00007FF45CAE082204F56F7130464FF01C086A
:102D100002F0EEFB08FB0948C7F30A1749E600BFBB
:102D2000405327FFFF340C00401E1BFF3F420F00A3
:102D30007F4F12001FD6130060B6E5FE5FE316005A
:102D400000D3CEFE3F771B00C05BB3FEBF912100D6
:102D50001F753800E05459FEDF9C410090F8B833ED
:102D6000012B10B5044609D0012380F8B833006860
:102D700002F0FFFB002084F8B80310BD0220FCE73E
:102D800070B54EB201F07F05002E04464FF01C00D6
:102D9000B5BF00FB054100FB0141383101F5FC7175
:102DA000002EB8BFCD80022BCB704FEAD67004BF87
:102DB00000230B710D70487094F8B8338A60012BB2
:102DC00009D0012384F8B833206802F0ADF900205F
:102DD00084F8B80370BD0220FCE74BB2002B10B59D
:102DE0004FF01C02044601F07F00B5BF02FB00411A
:102DF00002FB0141383101F5FC71DB0F08704B70AB
:102E000094F8B833012B09D0012384F8B833206833
:102E100002F0C6F9002084F8B80310BD0220FCE7D8
:102E200038B501F07F051C2404FB050104FB0504F3
:102E300001F5FC71C4F80C320023C4F80422C4F874
:102E4000103284F8F93184F8F85103690068012BD5
:102E500008BFC4F80822DAB21DB902F0C5FA002092
:102E600038BD02F0F3F9FAE71C2301F00F0103FB70
:102E70000101B1F81002704738B501F07F051C243C
:102E800004FB050104FB05043831E36400232365DA
:102E90000123626484F8393084F83850036900688B
:102EA000012B08BFA264DAB21DB902F09DFA00201E
:102EB00038BD02F0CBF9FAE738B54BB2002B01F080
:102EC0007F054FF01C02B5BF02FB050102FB0101AB
:102ED000383101F5FC710122DB0F8A700D704B70E7
:102EE00090F8B833934204460FD080F8B8230068B6
:102EF00002F00CFB2DB904F56F72217C206802F002
:102F0000ADFB002084F8B80338BD0220FCE738B5DB
:102F10004BB2002B05464FF01C0201F07F00B5BFFD
:102F200002FB005102FB0151383101F5FC71DB0F4E
:102F300000248C7008704B7095F8B833012B09D0C1
:102F4000012385F8B833286802F0FBFA85F8B84306
:102F5000204638BD0220FCE7036870B5586A1204A9
:102F600019B902439A62002070BD9C6A002500EBEB
:102F700014404E1EECB2B44205F1010505DB3F31B1
:102F800003EB810302435A60EDE7403403EB840412
:102F9000646800EB1440EDE7036800205962704755
:102FA0002DE9F341044618B9012002B0BDE8F081D3
:102FB00003680F2B03D9F821A24812F028FB2368DD
:102FC000D80718D4236899076BD42368190700F130
:102FD000BE8023685A0700F1E480A369022B04D95C
:102FE00040F2DF11974812F012FBA269002A40F06C
:102FF00051810020D9E7636833F4803206D0B3F5FD
:10300000A02F03D0FD218F4812F001FB8E4B9A6850
:1030100002F00C02042A07D09A6802F00C02082A77
:103020000AD15B685A0207D5874B1B689B03C9D539
:103030006368002BC6D1B7E76368834DB3F5803F63
:1030400011D12B6843F480332B60FDF72BFF7E4DAD
:1030500006462B689F03B5D4FDF724FF801B642828
:10306000F7D90320A1E7B3F5A02F04D12B6843F4CF
:1030700080232B60E5E72A6822F480322A602A68E0
:1030800022F480222A60002BDFD1FDF70BFF0646D9
:103090002B68980396D5FDF705FF801B6428F7D9A8
:1030A000DFE7E368012B04D940F22F11654812F0E5
:1030B000AEFA23691F2B04D94FF49871614812F0BE
:1030C000A6FA614B9A6812F00C0F07D09A6802F0CA
:1030D0000C02082A12D15B6859020FD45A4B1A68A5
:1030E000920703D5E268012A7FF45EAF1A6821696E
:1030F00022F0F80242EAC1021A6066E7E268534B26
:10310000B2B101221A60FDF7CDFE4F4D06462B6885
:103110009F0707D52B68226923F0F80343EAC2030F
:103120002B6052E7FDF7BEFE801B0228EFD998E71F
:103130001A60FDF7B7FE444D06462B6898077FF5E9
:1031400044AFFDF7AFFE801B0228F6D989E763691B
:10315000012B04D94FF4B8713A4812F058FA626959
:103160003B4B7AB101221A60FDF79CFE364D0646B4
:103170006B6F9B073FF52DAFFDF794FE801B022878
:10318000F6D96EE71A60FDF78DFE2F4D06466B6F80
:103190009F077FF51EAFFDF785FE801B0228F6D93D
:1031A0005FE7A368012B06D9052B04D04FF4CE713D
:1031B000244812F02CFA244B1A6C12F0805228D1B9
:1031C00001921A6C42F080521A641B6C03F0805317
:1031D0000193019B01261F4D2B68D8051BD5A368C1
:1031E000194D012B27D12B6F43F001032B67FDF7FE
:1031F00059FE154D074641F288382B6F9A0743D583
:10320000002E3FF4EAAE104A136C23F0805313648F
:10321000E3E60026DFE72B6843F480732B60FDF7BD
:1032200041FE07462B68D905D9D4FDF73BFEC01BEC
:103230000228F7D915E7052B0ED12B6F43F00403B5
:103240002B67D0E733B6050800380240000047423C
:10325000800E4742007000402A6F22F001022A6768
:103260002A6F22F004022A67002BC0D1FDF71AFE54
:1032700041F2883807462B6F9B07C1D5FDF712FE38
:10328000C01B4045F7D9ECE6FDF70CFEC01B4045DE
:10329000B3D9E6E63B4EB36803F00C03082B3FF4CA
:1032A00083AE022A384D5DD1E36933F4800304D044
:1032B0004FF4F471354812F0AAF9236A3F2B04D970
:1032C00040F2E911314812F0A2F9636AC03BF02BD9
:1032D00004D94FF4F5712D4812F099F9A26A082A21
:1032E00004D84FF4AA73D340D80704D440F2EB11AA
:1032F000264812F08CF9E36A023B0D2B04D94FF4F7
:10330000F671224812F083F900232B60FDF7CAFD05
:103310001C4E0746336899011ED4D4E90732134383
:10332000626A43EA8213E26A43EA0263A26A154CC4
:103330005208013A43EA0243736001232B60FDF710
:10334000B1FD054623689A013FF553AEFDF7AAFD8E
:10335000401B0228F6D984E6FDF7A4FDC01B022815
:10336000D8D97EE600232B60FDF79CFD0446336828
:103370009B017FF53EAEFDF795FD001B0228F6D9B7
:103380006FE600BF003802406000474233B60508D0
:10339000134908B58B6803F00C03042B03D0082BEA
:1033A00003D0104800E0104808BD4A684B684968DF
:1033B00013F4800314BF0C480A48C1F3881118BFE6
:1033C000002302F03F02A1FB0001FDF73DFB044B8F
:1033D0005B68C3F3014301335B00B0FBF3F0E3E749
:1033E000003802400024F40000127A002DE9F04178
:1033F0000D46044610B90120BDE8F0810368013B89
:103400000E2B04D94FF414716C4812F000F9072DFB
:1034100004D940F25121694812F0F9F8684B1A6852
:1034200002F00F02AA423CD32268960741D42368D7
:10343000D9076BD4624B1A6802F00F02AA4200F25D
:103440009A8023685A0700F19F8023681B0718D5CC
:10345000236933F480520CD023F40062B2F5A05FEC
:1034600007D0B3F5C05F04D04FF43071534812F069
:10347000CEF8544A2169936823F4604343EAC103B8
:103480009360FFF785FF4F4B4F4A9B68C3F30313CD
:10349000D35CD8404D4B18600020FDF7BBFC0020EA
:1034A000AAE7EAB21A701B6803F00F03AB42A2D17D
:1034B000BAE7444B12F0040F1EBF996841F4E05183
:1034C0009960100742BF9A6842F460429A60A3680C
:1034D00033F0800212D023F02002902A0ED023F085
:1034E0004002A02A0AD023F01002C02A06D0F02BF6
:1034F00004D04FF41D71314812F089F8314AA168A7
:10350000936823F0F0030B43936090E76368032B09
:1035100004D940F27B21294812F079F86268294BDE
:10352000012A1ED11B6813F4003F3FF464AF254EFF
:10353000B36823F003031343B360FDF7B3FC41F218
:1035400088380746B368626803F00C03B3EB820F58
:103550003FF470AFFDF7A6FCC01B4045F2D9032035
:103560004AE7911E01291B6802D813F0007FDCE7AF
:1035700013F0020FD9E7EAB21A701B6803F00F03C9
:10358000AB427FF438AF5CE7E36833F480520CD091
:1035900023F40062B2F5A05F07D0B3F5C05F04D09A
:1035A00040F2B921054812F032F8064AE168936802
:1035B00023F4E0530B43936047E700BF33B605089D
:1035C000003C024000380240C8B3050878020020E1
:1035D000014B1868704700BF78020020044B054A71
:1035E0009B68C3F38223D35C034A1068D8407047BA
:1035F00000380240D8B3050878020020044B054A81
:103600009B68C3F34233D35C034A1068D8407047C9
:1036100000380240D8B30508780200202DE9F041B7
:10362000069E0446884617461D462268936838EA77
:1036300003030CBF012300239F4201D100202BE094
:103640006B1CF3D055BB23685A6822F0E0025A6025
:103650006268B2F5827F0AD1A268B2F5004F02D04B
:10366000B2F5806F03D11A6822F040021A60A26A94
:10367000B2F5005F09D11A6822F400521204120C4C
:103680001A601A6842F400521A60012384F851301B
:10369000002384F850300320BDE8F081FDF702FCE0
:1036A000801BA842C1D3CEE713B50B460092802100
:1036B00000220446FFF7B2FF20B1636D43F0200300
:1036C0006365032002B010BD10B50446002800F069
:1036D000AC800368564A934214D0A2F578429342D4
:1036E00010D002F5806293420CD002F578429342EA
:1036F00008D002F5E052934204D04FF487714D4850
:1037000011F085FF63683BB1B3F5827F04D040F2CE
:103710000F11484811F07BFFA36833F4806207D093
:10372000B3F5004F04D04FF48871424811F06FFF99
:10373000E36833F4006304D040F211113D4811F006
:1037400066FFA36933F4007207D0B3F5802F04D06D
:103750004FF48971374811F05AFFE36933F01803C9
:1037600006D0202B04D040F21311324811F04FFF45
:10377000236A33F0800304D04FF48A712D4811F08E
:1037800046FF636A33F0100304D040F21511294854
:1037900011F03DFF636A83B9236933F0020304D05B
:1037A0004FF48C71234811F032FF6369012B04D967
:1037B00040F219111F4811F02AFF0023A36294F868
:1037C000513003F0FF0223B984F85020204611F055
:1037D0006DFF2168A269022384F851300B6823F041
:1037E00040030B60D4E901300343E06803432069E0
:1037F000034360690343E0690343206A0343A06A0B
:10380000034302F4007003430B60120C636A02F07E
:1038100004021A434A60CB6923F40063CB610020A1
:103820000123606584F8513010BD0120FCE700BF22
:10383000003001406BB605082DE9FF411E46836844
:1038400033F4004304460D46904604D040F2C511BF
:10385000534811F0DCFE94F85030012B00F09D80AD
:10386000012384F85030FDF71DFB074694F8510002
:10387000C0B2012840F08F80002D4FD0B8F1000F6A
:103880004CD0032384F85130A2682563002363657C
:10389000A363A4F83680A387E387C4E910332368C1
:1038A000A4F83480B2F5004F08BF1A68E16804BF7D
:1038B00042F480421A601A6852065EBF1A6842F0EB
:1038C00040021A60B1F5006F626838D11AB1E28E19
:1038D00092B2012A06D135F8022BDA60E38E013B61
:1038E0009BB2E386E38E9BB293B9009733460122E5
:1038F00002212046FFF792FE78B93A46314620462B
:10390000FFF7D2FE002838D020236365012005E0B0
:1039100023689A689007DED44EB90320012384F807
:103920005130002384F8503004B0BDE8F081711CA0
:10393000D8D0FDF7B7FAC01BB042D3D3EDE71AB128
:10394000E28E92B2012A06D115F8012B1A73E38E8A
:10395000013B9BB2E386E38E9BB2002BC5D023686C
:103960009A689207F0D4002ED7D0731CF3D0FDF7DD
:1039700099FAC01BB042EED3CFE7A36833B90393E3
:103980002368DA6803929B680393039B606D0030A1
:1039900018BF0120C2E70220C0E70220C4E700BF31
:1039A0006BB605082DE9F043994685B083680C9FF6
:1039B00004460D46164623B140F23A317B4811F0D9
:1039C00026FE94F85030012B00F0ED80012384F89E
:1039D0005030FDF767FA94F851306168DBB2012B83
:1039E00080460AD0B1F5827F40F0DB80A268002AD1
:1039F00040F0D780042B40F0D480002D4ED0002E14
:103A00004CD0B9F1000F49D094F85130A663012B86
:103A100004BF052384F8513000236365C4E91033E3
:103A20002368A4F83E90A4F836901A68A4F83C9055
:103A3000500658BF1A68256358BF42F04002A4F8E8
:103A4000349058BF1A60E268B2F5006F5DD119B1C9
:103A5000E28E92B2012A06D135F8022BDA60E38EAB
:103A6000013B9BB2E3864FF00109E38E9BB2BBB9E9
:103A7000E38F9BB2A3B9CDF800803B46012202211F
:103A80002046FFF7CBFD002835D142463946204677
:103A9000FFF70AFE002879D02023636501202BE080
:103AA000B9F1000F0FD0E38E9BB263B123689A681F
:103AB000910708D535F8022BDA60E38E013B9BB203
:103AC000E3864FF00009E38F9BB263B123689A68E5
:103AD000D20708D5DB6826F8023BE38F013B9BB297
:103AE000E3874FF00109781CBFD0FDF7DBF9A0EBAD
:103AF00008008742B9D80320012384F851300023FD
:103B000084F8503005B0BDE8F08319B1E28E92B26E
:103B1000012A06D115F8012B1A73E38E013B9BB2E3
:103B2000E3864FF00109E38E9BB21BB9E38F9BB292
:103B3000002BA0D0B9F1000F0FD0E38E9BB263B180
:103B400023689A68910708D52A781A73E38E013B97
:103B50009BB2E38601354FF00009E38F9BB263B15E
:103B600023689A68D20708D5DB683370E38F013B7E
:103B70009BB2E38701364FF001097B1CD3D0FDF7E0
:103B800091F9A0EB08008742CDD8B4E7A368002BD9
:103B9000B2D123680390DA6803929B680393039B76
:103BA000AAE70220A8E70220ACE700BF6BB6050831
:103BB000036A23F001030362036A70B544688269F3
:103BC0000D6822F073022A438D6823F002032B4311
:103BD0000A4DA8420BD1CD6823F008032B43D1E94D
:103BE000055624F44074354323F004032C43446009
:103BF00082614A684263036270BD00BF00000140F9
:103C0000036A23F480732DE9F0410362046AD0F85B
:103C10000480C6690B6826F073061E438B6824F483
:103C2000007444EA03241B4B984205460F4628D1F2
:103C3000CB6833F0080304D041F21731164811F075
:103C4000E6FCBB6933F4007304D041F2183112482A
:103C500011F0DDFC7B6933F4807304D041F219313B
:103C60000D4811F0D4FCFB6824F4006444EA0324FA
:103C7000D7E9053228F44058134324F4806448EA15
:103C800003187B68C5F80480EE61EB632C62BDE825
:103C9000F08100BF00000140A3B60508036A23F4C9
:103CA00080532DE9F0410362056AD0F80480C769AA
:103CB0000B6827F4E64747EA03278B6825F400558D
:103CC00045EA03350D4B984204460E460DD14B692B
:103CD00033F4807304D041F25D31094811F097FC50
:103CE000736928F4804848EA83187368C4F804802C
:103CF000E76123642562BDE8F08100BF0000014058
:103D0000A3B605087047000090F83830012B70B555
:103D100005460C464FF002002ED0012385F83830BE
:103D20000B6885F83900B3F5805F0CD0B3F5005F00
:103D300009D033F0300306D0402B04D040F6777121
:103D4000A94811F064FC2B689A6822F47F4222F0A3
:103D500077029A602268402A00F09C8134D8102AA9
:103D600000F00B8209D8002A00F0E5810123002031
:103D700085F8393085F8380070BD202A00F01F82A0
:103D8000302AF3D1994A934217D0B3F1804F14D01F
:103D9000A2F57C42934210D002F5806293420CD08F
:103DA00002F58062934208D002F59A32934204D021
:103DB00040F6F2718C4811F02AFC2A68936823F0CF
:103DC000700343F03703C6E0702A00F0C6804ED877
:103DD000502A00F00D81602AC8D1844A934217D03E
:103DE000B3F1804F14D0A2F57C42934210D002F57B
:103DF000806293420CD002F58062934208D002F5B3
:103E00009A32934204D040F6C471774811F0FFFB18
:103E10006368B3F5004F09D033F0020206D00A2BD5
:103E200004D040F6C771704811F0F1FBE3680F2B26
:103E300004D940F6C8716C4811F0E9FB2B6866683C
:103E4000186AE46820F01000186299691A6A21F46F
:103E5000704122F0A00242EA061241EA043199615F
:103E60001A629A6822F0700242F0670210E1B2F51D
:103E7000805F49D0B2F5005F7FF478AF5B4A934230
:103E800013D0B3F1804F10D0A2F57C4293420CD0F6
:103E900002F58062934208D002F58062934204D01A
:103EA00040F6A471504811F0B2FB6368B3F5004FBF
:103EB00009D033F0020206D00A2B04D040F6A671D6
:103EC000494811F0A4FBA36833F4405304D040F6F2
:103ED000A771454811F09BFBE3680F2B04D940F60E
:103EE000A871414811F093FBD4E901032A68034308
:103EF0009168E06821F47F4143EA00230B4393601B
:103F0000936843F4804326E0384A93421FD0B3F1CC
:103F1000804F1CD0A2F57C42934218D002F58062FB
:103F2000934214D002F58062934210D002F59A3287
:103F300093420CD002F58062934208D002F5806271
:103F4000934204D040F68371274811F060FB2A6841
:103F5000936823F00703936008E7244A934213D041
:103F6000B3F1804F10D0A2F57C4293420CD002F501
:103F70008062934208D002F58062934204D040F6FA
:103F80008C71194811F043FB6368B3F5004F09D0F9
:103F900033F0020206D00A2B04D040F68E7112488C
:103FA00011F035FBA36833F4405304D040F68F7111
:103FB0000D4811F02CFBE3680F2B04D94FF4796105
:103FC000094811F024FBD4E901032A6803439168EE
:103FD000E06821F47F4143EA00230B439360936838
:103FE00043F07703B7E700BFA3B605080000014020
:103FF000844A93421FD0B3F1804F1CD0A2F57C427B
:10400000934218D002F58062934214D002F5806288
:10401000934210D002F59A3293420CD002F580629E
:10402000934208D002F58062934204D040F6B67104
:10403000754811F0ECFA6368B3F5004F09D033F01E
:10404000020206D00A2B04D040F6B9716E4811F076
:10405000DEFAE3680F2B04D940F6BA716A4811F012
:10406000D6FA2B686168186AE6681C6A24F00104B5
:104070001C629A6920F00A0022F0F00242EA06125D
:1040800001439A6119629A6822F0700242F0570265
:104090009A606BE65B4A93421FD0B3F1804F1CD00D
:1040A000A2F57C42934218D002F58062934214D06C
:1040B00002F58062934210D002F59A3293420CD0FE
:1040C00002F58062934208D002F58062934204D0E8
:1040D00040F6D2714C4811F09AFA6368B3F5004F7C
:1040E00009D033F0020206D00A2B04D040F6D57175
:1040F000454811F08CFAE3680F2B04D940F6D671CD
:10410000414811F084FA2B686168186AE6681C6AF5
:1041100024F001041C629A6920F00A0022F0F002E7
:1041200042EA061201439A6119629A6822F070020B
:1041300042F04702ACE7334A934217D0B3F1804FC5
:1041400014D0A2F57C42934210D002F580629342D3
:104150000CD002F58062934208D002F59A32934265
:1041600004D04FF47E61284811F051FA2A68936810
:1041700023F0700343F00703EDE6224A934217D081
:10418000B3F1804F14D0A2F57C42934210D002F5D7
:10419000806293420CD002F58062934208D002F50F
:1041A0009A32934204D040F6E671174811F02FFA84
:1041B0002A68936823F0700343F01703CBE6114A93
:1041C000934217D0B3F1804F14D0A2F57C429342B2
:1041D00010D002F5806293420CD002F580629342C7
:1041E00008D002F59A32934204D040F6EC710648AA
:1041F00011F00DFA2A68936823F0700343F0270347
:10420000A9E600BF00000140A3B60508224A0368E2
:1042100090420ED0B0F1804F0BD0A2F57C4290427C
:1042200007D002F58062904203D002F5806290428E
:1042300015D14A6823F070031343174A904219D0EE
:10424000B0F1804F16D0A2F57C42904212D002F518
:10425000806290420ED002F5806290420AD00F4AEE
:10426000904207D002F58062904203D002F580624E
:10427000904203D1CA6823F44073134303608B68F0
:10428000C3620B688362044B984204BF0B690363EB
:1042900001234361704700BF00000140004001401E
:1042A00010B50446002851D00368294A93421ED015
:1042B000B3F1804F1BD0A2F57C42934217D002F598
:1042C0008062934213D002F5806293420FD002F5D0
:1042D0009A3293420BD002F58062934207D002F5E6
:1042E0008062934203D0D7211A4811F090F9A36855
:1042F00033F0100209D023F04002202A05D0402BD1
:1043000003D0D821134811F082F9236933F4807265
:1043100006D0B3F5007F03D0D9210E4811F077F90C
:1043200094F8393003F0FF0223B984F8382020468E
:1043300011F01EFB022384F839302068211DFFF79D
:1043400065FF012384F83930002010BD0120FCE70F
:1043500000000140A3B6050810B50446002854D05B
:1043600003682B4A93421FD0B3F1804F1CD0A2F5B3
:104370007C42934218D002F58062934214D002F539
:104380008062934210D002F59A3293420CD002F52B
:104390008062934208D002F58062934204D040F2DA
:1043A000F1311C4811F033F9A36833F010020AD040
:1043B00023F04002202A06D0402B04D040F2F231F4
:1043C000144811F024F9236933F4807207D0B3F54F
:1043D000007F04D040F2F3310E4811F018F994F840
:1043E000393003F0FF0223B984F838202046FFF764
:1043F00089FC022384F839302068211DFFF706FF6D
:10440000012384F83930002010BD0120FCE700BFF3
:1044100000000140A3B60508036A23F010032DE94C
:10442000F0410362046AD0F8048087690B6827F4BE
:10443000E64747EA03278B6824F0200444EA031484
:10444000114B984205460E4616D1CB6833F008034F
:1044500004D041F205210D4811F0D9F8F36824F099
:10446000800444EA0314D6E9053228F44068134373
:1044700024F0400448EA83087368C5F80480AF61FB
:10448000AB632C62BDE8F08100000140A3B60508D3
:1044900090F83830012B70B504460D46164600F0F2
:1044A000F6800123182A80F8383003D8794BD3409E
:1044B000DB0704D440F64841774811F0A8F82B6890
:1044C00023F01003602B04D040F64941724811F0EC
:1044D0009EF8AB6833F0020304D040F64A416E48C0
:1044E00011F095F82B6933F0040304D040F64B41EA
:1044F000694811F08CF8022384F839300C2E3DD82D
:10450000DFE806F0073C3C3C433C3C3C713C3C3C17
:104510009B002368614A93421FD0B3F1804F1CD0A7
:10452000A2F57C42934218D002F58062934214D0E7
:1045300002F58062934210D002F59A3293420CD079
:1045400002F58062934208D002F58062934204D063
:1045500040F65341504811F05AF829462068FFF7B9
:1045600027FB236829699A6942F008029A619A69CF
:1045700022F004029A619A690A439A610123002099
:1045800084F8393084F8380070BD2368434A934278
:1045900017D0B3F1804F14D0A2F57C42934210D0D3
:1045A00002F5806293420CD002F58062934208D0FB
:1045B00002F59A32934204D040F66241364811F037
:1045C00026F829462068FFF727FF236829699A699A
:1045D00042F400629A619A6922F480629A619A694F
:1045E00042EA0122C9E723682C4A934213D0B3F16F
:1045F000804F10D0A2F57C4293420CD002F580622D
:10460000934208D002F58062934204D040F6714193
:10461000214810F0FCFF29462068FFF7F1FA2368D3
:104620002969DA6942F00802DA61DA6922F00402E3
:10463000DA61DA690A43DA61A0E72368174A93422C
:1046400013D0B3F1804F10D0A2F57C4293420CD02E
:1046500002F58062934208D002F58062934204D052
:104660004FF448610C4810F0D2FF29462068FFF74C
:1046700015FB23682969DA6942F40062DA61DA69B4
:1046800022F48062DA61DA6942EA0122D3E7022089
:104690007AE700BF11110001A3B605080000014030
:1046A00038B5274A0368934204460D4613D0B3F148
:1046B000804F10D0A2F57C4293420CD002F580626C
:1046C000934208D002F58062934204D040F24A61DE
:1046D0001C4810F09CFF2B6833F0300306D0402BB1
:1046E00004D040F24B61174810F091FF6B6833F033
:1046F000800304D040F24C61124810F088FF94F817
:104700003830012B4FF0020018D0236884F83900AC
:104710005A68296822F070025A605A680A435A603F
:104720009A68696822F080029A609A680A439A60DF
:104730000020012384F8393084F8380038BD00BFE8
:1047400000000140DBB605080368DA6822F49072C5
:10475000DA605A6922F001025A61202380F83A3067
:10476000704700002DE9F84342689D4B9A42044689
:1047700004D940F685119B4810F049FFE36833F4F3
:10478000005304D040F68611964810F040FF23698C
:1047900033F4806207D0B3F5C06F04D040F68711C0
:1047A000904810F034FF63694FF6F372134200D162
:1047B00023B940F688118B4810F029FF2368E1687F
:1047C0001A692569E06922F440520A431A61A26815
:1047D000D9682A43656921F416412A4321F00C0166
:1047E00002430A43DA605A69A16922F440720A431B
:1047F000B0F5004F5A617C4A7BD1934203D002F559
:104800008062934244D1FEF7F9FE676819254FF0A4
:10481000640805FB00F37F00B3FBF7F3B3FBF8F389
:104820001F01FEF7EBFE636868435B00B0FBF3F625
:10483000FEF7E4FE636868435B00B0FBF3F3B3FB91
:10484000F8F308FB1363DB003233B3FBF8F35B00D0
:1048500003F4F876FEF7D2FE626868435200B0FBBC
:10486000F2F9FEF7CBFE6368226868435B00B0FB99
:10487000F3F3B3FBF8F308FB1393DB003233B3FB22
:10488000F8F303F007033B4433449360BDE8F88337
:10489000FEF7A4FE676819254FF0640805FB00F3D6
:1048A0007F00B3FBF7F3B3FBF8F31F01FEF796FEAF
:1048B000636868435B00B0FBF3F6FEF78FFE636846
:1048C00068435B00B0FBF3F3B3FBF8F308FB13633F
:1048D000DB003233B3FBF8F35B0003F4F876FEF74A
:1048E0007DFE626868435200B0FBF2F9FEF776FE87
:1048F000B9E7934202D03D4A934241D1FEF77EFE92
:10490000676819254FF0640805FB00F3BF00B3FB8F
:10491000F7F3B3FBF8F31F01FEF770FE636868431B
:104920009B00B0FBF3F6FEF769FE636868439B00EB
:10493000B0FBF3F3B3FBF8F308FB13631B01323353
:10494000B3FBF8F303F0F006FEF758FE6268684325
:104950009200B0FBF2F9FEF751FE636822686843EB
:104960009B00B0FBF3F3B3FBF8F308FB13931B01BD
:104970003233B3FBF8F303F00F0333433B4484E7D4
:10498000FEF72CFE676819254FF0640805FB00F35D
:10499000BF00B3FBF7F3B3FBF8F31F01FEF71EFEF6
:1049A000636868439B00B0FBF3F6FEF717FE63688D
:1049B00068439B00B0FBF3F3B3FBF8F308FB13630E
:1049C0001B013233B3FBF8F303F0F006FEF706FEEB
:1049D000626868439200B0FBF2F9FEF7FFFDBCE7A6
:1049E000A037A00016B705080010014000140140D0
:1049F00010B50446002864D081690368324A002952
:104A000053D093420CD0A2F54C42934208D002F509
:104A10005042934204D04FF480712C4810F0F7FDBF
:104A2000A36933F4407304D040F20111274810F019
:104A3000EEFDA36833F4805304D040F207112348FD
:104A400010F0E5FDE36933F4004304D04FF48471C2
:104A50001E4810F0DCFD94F8393003F0FF0223B952
:104A600084F83820204611F043F82268242384F883
:104A70003930D36823F40053D3602046FFF772FE29
:104A800023681A6922F490421A615A6922F02A02B4
:104A90005A61DA6842F40052DA6000202023E063B1
:104AA00084F8393084F83A3010BD9342C1D0084AB6
:104AB0009342BED002F550429342BAD040F2051163
:104AC000B4E70120F0E700BF0010014016B7050869
:104AD0000044004038B50D46044600285BD003680A
:104AE0002E4A93420CD0A2F54C42934208D002F5D4
:104AF0005042934204D040F27711294810F087FDCC
:104B000035F0200304D04FF4BC71254810F07FFD30
:104B1000A36823B140F27911214810F078FDE369D0
:104B200023B14FF4BD711E4810F071FD94F8393077
:104B300003F0FF0223B984F83820204610F0D8FF94
:104B40002268242384F83930D36823F40053D360D7
:104B50002046FFF707FE23681A6922F400621A61F3
:104B60005A6922F02A025A611A6942F480421A6193
:104B70001A6922F020021A61196929431961DA6859
:104B800042F40052DA6000202023E06384F83930D8
:104B900084F83A3038BD0120FCE700BF0010014026
:104BA00016B7050810B50446F8B10368104A9342D9
:104BB0000CD0A2F54C42934208D002F550429342E9
:104BC00004D04FF4FC710B4810F021FD2423204643
:104BD00084F8393010F0DEFF0020E06384F83800FC
:104BE00084F8390084F83A0010BD0120FCE700BFCA
:104BF0000010014016B7050890F83930202B18D165
:104C0000A9B1A2B190F83830012B12D0C284016250
:104C1000828400230168C363212280F83920CA6896
:104C200080F8383042F08002CA6018467047012090
:104C300070470220704790F83A30202B1CD1C9B140
:104C4000C2B190F83830012B16D0C285828500237E
:104C50002222C36380F83A2002688162516980F899
:104C6000383041F001015161D16841F49071D16057
:104C700018467047012070470220704790F83A307C
:104C8000222B10B52FD181680469836A0268B1F5BF
:104C9000805F1FD15268CCB9C2F3080223F8022BFF
:104CA0008362C48D013CA4B2C4856CB90368DA6820
:104CB00022F49072DA605A6922F001025A612023CC
:104CC00080F83A3005F0FCFE00200DE0D2B223F867
:104CD000012BE5E7591C526881620CB91A70E0E7B4
:104CE00002F07F02FAE7022010BD000003681A6894
:104CF000D96870B5160704465D6907D1960658D580
:104D00008D0656D5BDE87040FFF7B8BF15F0010518
:104D100002D111F4907F4CD0D30705D5CE0542BF08
:104D2000E36B43F00103E363500704D51DB1E36B6C
:104D300043F00203E363930704D51DB1E36B43F033
:104D40000403E363160704D51DB1E36B43F00803C6
:104D5000E363E36B43B3950604D5880602D520468A
:104D6000FFF78CFF23685D69E26B1107204602D4D0
:104D700015F0400519D0FFF7E7FC23685A69520681
:104D80000FD55A69606B22F040025A6148B1264B38
:104D90000365FCF7B3FA38B1606BBDE87040036D92
:104DA0001847204605F0B1FE70BD05F0AEFEE56384
:104DB000FAE7160628D50D0626D594F83920212ABB
:104DC000F2D1A168226AB1F5805F18D11188C1F3D0
:104DD00008015960216981B902322262E28C013AEC
:104DE00092B2E284002ADFD1DA6822F08002DA602F
:104DF000DA6842F04002DA60D6E70132EDE7511C92
:104E0000216212785A60E9E75006CDD54A06CBD523
:104E1000DA6822F04002DA60202384F83930204634
:104E200005F05DFEC0E700BF2D4E010808B5806BA0
:104E30000023C385C38405F068FE08BD70470000E9
:104E40000368DA6822F4907210B5DA605A6922F0C9
:104E500001025A615A6912F04002044617D05A6999
:104E600022F040025A61436B53B10A4A1A65184650
:104E7000FCF744FA10B1606B036D9847002010BD39
:104E8000C385202384F83A30FFF7D8FFF6E7C285C0
:104E9000F7E700BF994E010808B5806B0023C38572
:104EA000202380F83A30FFF7C9FF08BD84B038B539
:104EB00005AD85E80E000A9B012B044626D1836BC5
:104EC00023F480338363C36823F4840323F0400313
:104ED000C360C36823F44013C360119B012B02BF5E
:104EE000C36843F48013C36000F0DCFB089B012B14
:104EF00007D1A36843F00603A360A36843F020032F
:104F0000A360BDE83840002004B07047C36843F098
:104F10004003C36000F0C6FB4FF48033A363E5E7B2
:104F2000836843F00103836000207047836823F0A7
:104F3000010383600020704708B5C368012923F08E
:104F4000C043C36008D1C36843F00053C36032203C
:104F5000FBF7AEFF002008BD0029F8D1C36843F07D
:104F60008043C360F3E7000084B02DE9F0410446BC
:104F700007A880E80E00119E0A9FA36B8846A6B979
:104F800043F40013A3630023C4F8003ED4F80038B0
:104F9000C4F800380C9B012B04F500655ED109991B
:104FA00039B9204600F09EF807E043F40023A363DC
:104FB000E9E71946204600F095F81021204600F058
:104FC0006FF8204600F07EF800234FF0FF322B618F
:104FD00019466B614FF09040AA614FF0FF0CEB61F6
:104FE00004F5106243453BD1002104F530620846C8
:104FF0004FF0904C4FF0FF0E8B423ED12B69012FAA
:1050000023F480732B6108D1234B2B632B6B43F468
:10501000803343F003032B632B6B0023A3616FF0FA
:10502000804363611FB9A36943F01003A361A269C0
:105030001A4B1343A3610D9B1BB1A36943F00803F3
:10504000A361012E01BFA36943F0804343F0040331
:10505000A361BDE8F041002004B070470321A0E740
:10506000D2F800E0BEF1000FB4BF10601160013350
:105070001161C2F808C02032B4E7D2F80080B8F15C
:10508000000FB4BFC2F800C0106001311061C2F857
:1050900008E02032B0E700BF0001800000383C800B
:1050A000890141F02001064A0161013A05D00369F6
:1050B00013F02003F9D1184670470320704700BF52
:1050C000410D03001023064A0361013A05D003692C
:1050D00013F01003F9D1184670470320704700BF42
:1050E000410D0300D0F800381943C0F80018002023
:1050F000704700F50062D0F8080810F0060012D0E2
:10510000936803F00603022B0CD0936803F00603A8
:10511000062B07D0936803F00603042B14BF00206E
:10512000022070470320704770B54B780E7800F569
:1051300000650124012B04FA06F44FEA4612EB69DC
:1051400018D1A4B21C4300F51060EC6183581C0414
:105150000ED48B68C9788458C3F30A0343F0805394
:1051600043F4004343EA814343EA86532343835095
:10517000002070BD43EA044400F53060EC618358C0
:105180001B04F5D48B68C9788458C3F30A0343F031
:10519000805343F4004343EA814323438350E7E7CA
:1051A000F8B54A780D78012A04460E464FEA4513B1
:1051B00025D100F51062D718D15821F40041D15003
:1051C0004FF00061D1504FF08041D1501E4B013B58
:1051D00001D10320F8BDBD6815F08045F7D110213D
:1051E0002046FFF75DFF3178D4F81C2801238B405F
:1051F0009BB222EA0303C4F81C382846EAE700F50C
:105200003062D618D15821F40041D1504FF00061DE
:10521000D1504FF08041D1500B490139D9D0B068FD
:1052200010F01000F9D1D4F8041841F48061C4F8EA
:105230000418D4F81C384FF48032AA4023EA020341
:10524000C4F81C38C6E700BF410D03002DE9F74341
:1052500091F801E00C784B69CF78DFF88481DFF8B2
:105260008491BEF1010F4FEA441461D100F510653D
:105270002C44266993B906EA08062661266946F495
:10528000002626612669012A06EA090626612ED132
:105290000C780E6905EB4414666128E006EA0906FD
:1052A00026612669D1F808C006EA080626610CEBDB
:1052B0000306013EB6FBFCFC484ED4F8108006EA1B
:1052C000CC4646EA08062661D4F810C0C3F312069D
:1052D00046EA0C06012F266174D1266926F0C046E5
:1052E00026612669012A46F000562661D0D0CF7883
:1052F0000E78012F05EB46140AD1D0F8085815F4A2
:10530000807F25680CBF45F0005545F0805525602D
:105310002568012F45F00445256005D100929BB218
:105320003246C96800F0D0F8002003B0BDE8F08331
:1053300000F5306C0CEB0406D1F808E0356905EA9D
:1053400009053561356905EA0805356113BB35691D
:10535000CEF312032B433361336943F400233361EB
:10536000012A04BFCB687361012F0CD1D0F8083833
:1053700013F4807F5CF804300CBF43F0005343F01B
:1053800080534CF804305CF8043043F004434CF88C
:105390000430C9E703EB0E05104BD6F81080013D31
:1053A000B5FBFEF503EAC54343EA08033361ADB23A
:1053B000D6F810800EFB05F3C3F3120343EA08038B
:1053C0003361CDE7012A3FF463AF0C78D0F834782D
:1053D0000EFA04F43C43C0F8344888E70000F81F94
:1053E000FFFF07E00000F8FF4B78DFF8D8C02DE999
:1053F000F04191F800804E69314F012B4FEA48157A
:105400003DD100F5106E0EEB05031C69B6B93C40AA
:105410001C611C6944F400241C611C6904EA0C042E
:105420001C615EF80540012A44F004444EF8054032
:1054300019D10A695A610020BDE8F08104EA0C0420
:105440001C611C693C401C618C68B44238BF4C61D3
:105450001C6944F400241C614C691E69C4F31204E5
:1054600034431C61DDE74B69002BE4D0D0F83428CD
:10547000012303FA08F31343C0F83438DBE700F5DF
:10548000306043191C6904EA0C041C611C693C402F
:105490001C618C6806B14C611E6946F400261E61D1
:1054A0001E69012AC4F3120408BFCA6844EA06044C
:1054B0001C6108BF5A61435943F004434351BAE7A2
:1054C000FFFF07E00000F8FF10B59DF808404CB959
:1054D000033300F580509B0800EB023201EB83039D
:1054E000994201D1002010BD51F8040B1060F7E77C
:1054F0000332920801EB820200F58050914201D103
:1055000008467047036841F8043BF7E74A780B7890
:10551000012A4FEA431309D100F51060C258002A4E
:1055200009DBC25822F08042C25004E000F530602E
:10553000C258002AF5DAC25842F40012C2500020C4
:1055400070470B78CA78497801290CBF00F51060C4
:1055500000F530605B01023AC15821F40011D2B26B
:10556000C150012A9EBFC25842F08052C250002052
:105570007047D0F8003823F4FE63C0F80038D0F844
:105580000038090101F4FE611943C0F80018002039
:10559000704708B5D0F8043823F00203C0F8043887
:1055A0000320FBF785FC002008BD08B5D0F80438BF
:1055B00043F00203C0F804380320FBF779FC002015
:1055C00008BD4269806910407047D0F8183800F56E
:1055D0000060C0691840000C7047D0F8183800F51A
:1055E0000060C069184080B2704700F5306303EB7B
:1055F000411100F500608A6840691040704710B59D
:10560000D0F81048D0F8343800EB4110CB4000F50A
:105610001060DB018068DBB22343184010BD406995
:1056200000F001007047D0F8003923F4FF6323F045
:105630000703C0F8003900F500639A6802F006021B
:10564000042A02BFD0F8002942F00302C0F8002962
:105650005A6842F480725A600020704710B50024E6
:10566000C0F8104BD0F8104B44F40024C0F8104B95
:10567000D0F8104B44F01804C0F8104BD0F8104B81
:10568000012900F5306344F0C04408BF4FF0802387
:10569000C0F8104B04BFC0F8142BC0F8003B00202A
:1056A00010BD00000A4B013B0FD00269002AFADA54
:1056B0000369074A43F001030361013A05D0036916
:1056C00013F00103F9D1184670470320704700BF5B
:1056D000410D0300D0F818321BB10020C3F81402AA
:1056E000704702207047D0F81C3210B56BB1D0F86B
:1056F000184294F80002FF2807D09B6894F8012212
:1057000021469847FF2384F80032002010BD000096
:1057100043230380004870470C000020432303808C
:105720000048704750000020432303800048704722
:10573000940000200A23038000487047D80000200E
:1057400038B50546D0F8184210F0D6FBD5F8183217
:10575000C4F80C024BB1D5F81C32D4F80402DB6853
:1057600004F503719847002038BD0220FCE70000D3
:10577000F8B50F7817F0600306460C4623D0202BAF
:1057800019D1CA884B78C2B13906D0F818520BD556
:10579000D0F81C1218468F682946B847E288294677
:1057A000304600F080FB06E085F8003285F80122E3
:1057B000294600F08DFB0020F8BDD0F81C0284685B
:1057C0001846A047F7E74B780A2BF4D1012201498C
:1057D000E7E700BFBC05002010B58121044610F0AA
:1057E00023FB0121204610F01FFB8221204610F0F0
:1057F0001BFBD4F8183253B1D4F81C325B689847BD
:10580000D4F818022AF07CFE0023C4F818320020D5
:1058100010BDF8B5037C04467BBB4FF40073022235
:10582000812110F0F1FA4FF4007302220121204689
:1058300010F0EAFA082303228221204610F0E4FA4D
:105840004FF407702AF054FE0646C4F8180220B33D
:10585000D4F81C321B689847277C0025C6F81452E0
:10586000C6F8185287B94FF40073D6F80422012104
:10587000204610F033FB3846F8BD40230222812138
:1058800010F0C2FA4023D0E74023D6F804220121C9
:10589000204610F023FB2846EEE70120ECE719B183
:1058A000C0F81C120020704702207047D0F8183250
:1058B0000020C3F80812C3F810227047D0F818323D
:1058C0000020C3F804127047D0F8182210B562B156
:1058D000047CD2F8042234B94FF40073012110F093
:1058E000FDFA002010BD4023F8E70220FAE708B5D2
:1058F00080B1D0F8143213B10023C0F8143209B1CA
:10590000C0F81012012380F8FC31027010F03AFA4E
:10591000002008BD0220FCE719B1C0F814120020D5
:1059200070470220704708B510F060FA002008BDEB
:1059300008B5D0F814320BB9022008BD1B6898478F
