:020000040800F2
:1000000000000220314E0308D5380308D738030812
:10001000D9380308DB380308DD3803080000000086
:10002000000000000000000000000000DF380308AE
:10003000E138030800000000E3380308E53803084E
:10004000814E0308814E0308814E0308814E030848
:10005000814E0308814E0308814E0308814E030838
:10006000F1380308814E0308814E0308FD38030868
:10007000814E0308814E0308814E03080D390308A1
:100080001D390308814E0308814E0308000000005B
:10009000000000000000000000000000814E030886
:1000A000814E0308814E0308814E0308814E0308E8
:1000B000814E0308814E0308814E0308814E0308D8
:1000C000814E0308814E0308814E0308814E0308C8
:1000D000814E03082D390308814E030800000000FB
:1000E000814E0308814E0308814E03080000000082
:1000F000000000000000000000000000814E030826
:1001000000000000814E0308814E0308814E030861
:1001100000000000000000000000000000000000DF
:10012000814E0308814E0308814E0308814E030867
:10013000814E0308000000000000000000000000E5
:10014000000000000000000000000000413903082A
:10015000814E0308814E0308814E0308814E030837
:10016000814E0308814E03080000000000000000DB
:10017000000000000000000000000000000000007F
:1001800000000000814E0308000000000000000095
:08019000814E0308814E0308B3
:020000040801F1
:1000000010B5054C237833B9044B13B10448AFF352
:1000100000800123237010BD200600200000000096
:10002000805D050808B5034B1BB103490348AFF3D6
:10003000008008BD0000000024060020805D050847
:1000400081F0004102E000BF83F0004330B54FEA89
:1000500041044FEA430594EA050F08BF90EA020FF6
:100060001FBF54EA000C55EA020C7FEA645C7FEA89
:10007000655C00F0E2804FEA5454D4EB5555B8BFAC
:100080006D420CDD2C4480EA020281EA030382EA1D
:10009000000083EA010180EA020281EA0303362DAF
:1000A00088BF30BD11F0004F4FEA01314FF4801C82
:1000B0004CEA113102D0404261EB410113F0004F94
:1000C0004FEA03334CEA133302D0524263EB43034B
:1000D00094EA050F00F0A780A4F10104D5F1200EE9
:1000E0000DDB02FA0EFC22FA05F2801841F1000144
:1000F00003FA0EF2801843FA05F359410EE0A5F118
:1001000020050EF1200E012A03FA0EFC28BF4CF048
:10011000020C43FA05F3C01851EBE37101F00045FE
:1001200007D54FF0000EDCF1000C7EEB00006EEB0B
:100130000101B1F5801F1BD3B1F5001F0CD3490895
:100140005FEA30004FEA3C0C04F101044FEA4452EC
:1001500012F5800F80F09A80BCF1004F08BF5FEA73
:10016000500C50F1000041EB045141EA050130BD53
:100170005FEA4C0C404141EB010111F4801FA4F1F6
:100180000104E9D191F0000F04BF01460020B1FA4B
:1001900081F308BF2033A3F10B03B3F120020CDA83
:1001A0000C3208DD02F1140CC2F10C0201FA0CF061
:1001B00021FA02F10CE002F11402D8BFC2F1200CC6
:1001C00001FA02F120FA0CFCDCBF41EA0C0190407C
:1001D000E41AA2BF01EB0451294330BD6FEA0404C5
:1001E0001F3C1CDA0C340EDC04F11404C4F12002B0
:1001F00020FA04F001FA02F340EA030021FA04F3C2
:1002000045EA030130BDC4F10C04C4F1200220FA18
:1002100002F001FA04F340EA0300294630BD21FA56
:1002200004F0294630BD94F0000F83F4801306BF1C
:1002300081F480110134013D4EE77FEA645C18BF10
:100240007FEA655C29D094EA050F08BF90EA020FA7
:1002500005D054EA000C04BF1946104630BD91EA9F
:10026000030F1EBF0021002030BD5FEA545C05D1A2
:100270004000494128BF41F0004130BD14F58004E1
:100280003CBF01F5801130BD01F0004545F0FE4155
:1002900041F470014FF0000030BD7FEA645C1ABF8A
:1002A000194610467FEA655C1CBF0B46024650EAC1
:1002B000013406BF52EA033591EA030F41F40021ED
:1002C00030BD00BF90F0000F04BF0021704730B573
:1002D0004FF4806404F132044FF000054FF0000148
:1002E00050E700BF90F0000F04BF0021704730B509
:1002F0004FF4806404F1320410F0004548BF4042DE
:100300004FF000013EE700BF42004FEAE2014FEA32
:1003100031014FEA02701FBF12F07F4393F07F4F0D
:1003200081F06051704732F07F4208BF704793F010
:100330007F4F04BF41F40021704730B54FF4607423
:1003400001F0004521F000411CE700BF50EA010226
:1003500008BF704730B54FF000050AE050EA0102CF
:1003600008BF704730B511F0004502D5404261EB3F
:1003700041014FF4806404F132045FEA915C3FF480
:10038000D8AE4FF003025FEADC0C18BF03325FEA1D
:10039000DC0C18BF033202EBDC02C2F1200300FACE
:1003A00003FC20FA02F001FA03FE40EA0E0021FAF3
:1003B00002F11444BDE600BF70B54FF0FF0C4CF4E1
:1003C000E06C1CEA11541DBF1CEA135594EA0C0F93
:1003D00095EA0C0F00F0DEF82C4481EA030621EACE
:1003E0004C5123EA4C5350EA013518BF52EA033509
:1003F00041F4801143F4801338D0A0FB02CE4FF0BB
:100400000005E1FB02E506F00042E0FB03E54FF0EA
:100410000006E1FB03569CF0000F18BF4EF0010EE2
:10042000A4F1FF04B6F5007F64F5407404D25FEADE
:100430004E0E6D4146EB060642EAC62141EA555191
:100440004FEAC52040EA5E504FEACE2EB4F1FD0CD3
:1004500088BFBCF5E06F1ED8BEF1004F08BF5FEA51
:10046000500E50F1000041EB045170BD06F0004603
:1004700046EA010140EA020081EA0301B4EB5C04B0
:10048000C2BFD4EB0C0541EA045170BD41F48011A8
:100490004FF0000E013C00F3AB8014F1360FDEBFCD
:1004A000002001F0004170BDC4F10004203C35DAA9
:1004B0000C341BDC04F11404C4F1200500FA05F32C
:1004C00020FA04F001FA05F240EA020001F00042CD
:1004D00021F0004110EBD37021FA04F642EB060143
:1004E0005EEA430E08BF20EAD37070BDC4F10C046D
:1004F000C4F1200500FA04F320FA05F001FA04F231
:1005000040EA020001F0004110EBD37041F100011C
:100510005EEA430E08BF20EAD37070BDC4F1200527
:1005200000FA05F24EEA020E20FA04F301FA05F28F
:1005300043EA020321FA04F001F0004121FA04F237
:1005400020EA020000EBD3705EEA430E08BF20EA07
:10055000D37070BD94F0000F0FD101F00046400041
:1005600041EB010111F4801F08BF013CF7D041EAC3
:10057000060195F0000F18BF704703F000465200C7
:1005800043EB030313F4801F08BF013DF7D043EA98
:100590000603704794EA0C0F0CEA135518BF95EA4E
:1005A0000C0F0CD050EA410618BF52EA4306D1D1D5
:1005B00081EA030101F000414FF0000070BD50EAF4
:1005C000410606BF1046194652EA430619D094EA7E
:1005D0000C0F02D150EA013613D195EA0C0F05D168
:1005E00052EA03361CBF104619460AD181EA0301BC
:1005F00001F0004141F0FE4141F470014FF0000074
:1006000070BD41F0FE4141F4780170BD70B54FF00E
:10061000FF0C4CF4E06C1CEA11541DBF1CEA13558E
:1006200094EA0C0F95EA0C0F00F0A7F8A4EB050470
:1006300081EA030E52EA03354FEA013100F0888067
:100640004FEA03334FF0805545EA131343EA126330
:100650004FEA022245EA111545EA10654FEA0026E5
:100660000EF000419D4208BF964244F1FD0404F59E
:10067000407402D25B084FEA3202B61A65EB0305FA
:100680005B084FEA32024FF480104FF4002CB6EBB7
:10069000020E75EB030E22BFB61A754640EA0C0037
:1006A0005B084FEA3202B6EB020E75EB030E22BF77
:1006B000B61A754640EA5C005B084FEA3202B6EBB8
:1006C000020E75EB030E22BFB61A754640EA9C0077
:1006D0005B084FEA3202B6EB020E75EB030E22BF47
:1006E000B61A754640EADC0055EA060E18D04FEA05
:1006F000051545EA16754FEA06164FEAC30343EAA5
:1007000052734FEAC2025FEA1C1CC0D111F4801F71
:100710000BD141EA00014FF000004FF0004CB6E76A
:1007200011F4801F04BF01430020B4F1FD0C88BF09
:10073000BCF5E06F3FF6AFAEB5EB030C04BFB6EB14
:10074000020C5FEA500C50F1000041EB045170BD07
:100750000EF0004E4EEA113114EB5C04C2BFD4EB34
:100760000C0541EA045170BD41F480114FF0000EB8
:10077000013C90E645EA060E8DE60CEA135594EA34
:100780000C0F08BF95EA0C0F3FF43BAF94EA0C0F37
:100790000AD150EA01347FF434AF95EA0C0F7FF4AC
:1007A00025AF104619462CE795EA0C0F06D152EA00
:1007B00003353FF4FDAE1046194622E750EA4106E4
:1007C00018BF52EA43067FF4C5AE50EA41047FF4F5
:1007D0000DAF52EA43057FF4EBAE12E74FF0FF3C5A
:1007E00006E000BF4FF0010C02E000BF4FF0010C2B
:1007F0004DF804CD4FEA410C7FEA6C5C4FEA430CA4
:1008000018BF7FEA6C5C1BD001B050EA410C0CBFF2
:1008100052EA430C91EA030F02BF90EA020F002054
:10082000704710F1000F91EA030F58BF994208BFBB
:1008300090422CBFD8176FEAE37040F00100704778
:100840004FEA410C7FEA6C5C02D150EA013C07D1CF
:100850004FEA430C7FEA6C5CD6D152EA033CD3D01A
:100860005DF8040B704700BF8446104662468C4614
:100870001946634600E000BF01B5FFF7B7FF002847
:1008800048BF10F1000F01BD4DF808EDFFF7F4FF70
:100890000CBF012000205DF808FB00BF4DF808EDFB
:1008A000FFF7EAFF34BF012000205DF808FB00BF1E
:1008B0004DF808EDFFF7E0FF94BF012000205DF840
:1008C00008FB00BF4DF808EDFFF7CEFF94BF0120F5
:1008D00000205DF808FB00BF4DF808EDFFF7C4FFEE
:1008E00034BF012000205DF808FB00BF4FEA410C37
:1008F0007FEA6C5C02D150EA013C0AD14FEA430C1A
:100900007FEA6C5C02D152EA033C02D14FF0000056
:1009100070474FF0010070474FEA410212F5001294
:1009200015D211D56FF47873B3EB625212D94FEA36
:10093000C12343F0004343EA505311F0004F23FA20
:1009400002F018BF404270474FF00000704750EA75
:10095000013005D111F0004008BF6FF00040704732
:100960004FF00000704700BF4A0011D212F500128C
:1009700011D20DD56FF47873B3EB62520ED44FEAF7
:10098000C12343F0004343EA505323FA02F0704777
:100990004FF00000704750EA013002D14FF0FF30B5
:1009A00070474FF0000070474FEA4102B2F1E04358
:1009B00024BFB3F5001CDCF1FE5C0DD901F0004C46
:1009C0004FEAC0024CEA5070B2F1004F40EB830096
:1009D00008BF20F00100704711F0804F21D113F1C2
:1009E0003872BCBF01F00040704741F480114FEAFB
:1009F0005252C2F11802C2F1200C10FA0CF320FA84
:100A000002F018BF40F001004FEAC1234FEAD323A0
:100A100003FA0CFC40EA0C0023FA02F34FEA43030A
:100A2000CCE77FEA625307D150EA01331EBF4FF093
:100A3000FE4040F44000704701F0004040F0FE40AE
:100A400040F40000704700BF53B94AB9002908BFFD
:100A500000281CBF4FF0FF314FF0FF3000F072B99B
:100A6000ADF1080C6DE904CE00F006F8DDF804E005
:100A7000DDE9022304B070472DE9F047089E0446E3
:100A80008846002B4BD18A42154667D9B2FA82F2CA
:100A90004AB1C2F1200701FA02F320FA07F79540A4
:100AA00047EA030894404FEA154E230CB8FBFEF7C3
:100AB0001FFA85FC0EFB178843EA084307FB0CF17D
:100AC000994209D9EB1807F1FF3080F01B81994258
:100AD00040F21881023F2B445B1AA4B2B3FBFEF034
:100AE0000EFB103344EA034400FB0CFCA44509D977
:100AF0002C1900F1FF3380F00781A44540F20481F6
:100B000002382C4440EA0740A4EB0C0400271EB135
:100B1000D4400023C6E900433946BDE8F0878B4244
:100B200009D9002E00F0EB800027C6E90001384605
:100B30003946BDE8F087B3FA83F7002F47D18B42DF
:100B400002D3824200F2FA80841A61EB030301208F
:100B50009846002EE0D0C6E90048DDE702B9FFDE86
:100B6000B2FA82F2002A40F08F80491B4FEA154EFC
:100B70001FFA85F80127B1FBFEFC230C0EFB1C11AC
:100B800043EA014308FB0CF1994207D9EB180CF139
:100B9000FF3002D2994200F2CD808446591AA3B2A6
:100BA000B1FBFEF00EFB101443EA044408FB00F80E
:100BB000A04507D92C1900F1FF3302D2A04500F25D
:100BC000B6801846A4EB080440EA0C409FE7C7F142
:100BD000200CBB4022FA0CFE4EEA030E01FA07F489
:100BE00020FA0CF521FA0CF34FEA1E482543B3FB1B
:100BF000F8F92C0C08FB19331FFA8EFA44EA034368
:100C000009FB0AF49C4202FA07F200FA07F10BD939
:100C10001EEB030309F1FF3080F087809C4240F215
:100C20008480A9F1020973441B1BADB2B3FBF8F039
:100C300008FB103345EA034400FB0AFAA24508D931
:100C40001EEB040400F1FF336BD2A24569D90238D0
:100C5000744440EA0940A0FB0289A4EB0A044C4515
:100C6000C2464B4654D351D0002E69D0B1EB0A0591
:100C700064EB030404FA0CFCFD40FC404CEA05055F
:100C8000C6E90054002747E7C2F1200320FA03F722
:100C9000954001FA02F021FA03F34FEA154E38436A
:100CA000010CB3FBFEF71FFA85F80EFB173341EA80
:100CB000034107FB08F38B4204FA02F407D96918D1
:100CC00007F1FF3C2FD28B422DD9023F2944CB1A8A
:100CD00081B2B3FBFEF00EFB103341EA034100FB8F
:100CE00008F38B4207D9691800F1FF3C17D28B42F9
:100CF00015D902382944C91A40EA07473BE7374665
:100D0000304609E70746E7E61846FBE64145ABD221
:100D1000B8EB020A69EB0E0201381346A4E76046FD
:100D2000E9E7184695E76746D1E781467CE7023850
:100D30002C4447E7ACF1020C2B442FE7384608E778
:100D40003746E9E6704700BF0000000000000000E1
:100D500001F0FF01102A2BDB10F0070F08D010F86C
:100D6000013B013A8B422DD010F0070F42B3F6D170
:100D7000F0B441EA012141EA014122F007047FF089
:100D800000070023F0E80256083C85EA010586EAE0
:100D9000010685FA47F5A3FA87F586FA47F6A5FA1C
:100DA00087F68EB9EED1F0BC01F0FF0102F0070228
:100DB00032B110F8013B013A83EA010313B1F8D1D3
:100DC0000020704701387047002D06BF35460338B4
:100DD000073815F0010F07D1013015F4807F02BFED
:100DE000013015F4C03F0130F0BC0138704700BF3E
:100DF00010F8012B11F8013B012A28BF9A42F7D0C5
:100E0000D01A7047034613F8012B002AFBD1181A99
:100E10000138704710B504460E4B18784FF47A73BA
:100E2000B3FBF0F30C4A1068B0FBF3F000F0F8F8F5
:100E300068B90F2C01D901200AE0002221464FF0A9
:100E4000FF3000F07BF8034B5C60002000E00120E5
:100E500010BD00BF04000020FC02002008B50B4BB1
:100E60001A6842F400721A601A6842F480621A60CA
:100E70001A6842F480721A60032000F041F80020E2
:100E8000FFF7C8FF22F0DCFC002008BD003C024058
:100E9000034A1168034B1B780B441360704700BF73
:100EA00050E0002004000020014B1868704700BF8C
:100EB00050E0002038B50446FFF7F6FF0546B4F1D0
:100EC000FF3F02D0044B1B781C44FFF7EDFF401B93
:100ED000A042FAD338BD00BF04000020004870478C
:100EE00000040701014B1868000C7047002004E063
:100EF000024B1868C0F30B00704700BF002004E0ED
:100F000010B50446C31E042B0FD80A4AD36823F435
:100F1000E0631B041B0C240204F4E064234343F04D
:100F2000BF6343F40033D36010BDA221024822F016
:100F30006FFBEAE700ED00E06813060870B50546B0
:100F40000C4616460F2A25D80F2C28D81B4BDB68D9
:100F5000C3F30223C3F10702042A28BF0422191D88
:100F6000062921D9033B4FF0FF3101FA02F224EAAE
:100F700002049C4001FA03F326EA03063443002DE1
:100F800014DB2401E4B205F1604505F5614585F8FF
:100F9000004370BDBA210A4822F03AFBD4E7BB21D6
:100FA000074822F035FBD1E70023DCE705F00F0509
:100FB0002401E4B2034B5C55EBE700BF00ED00E019
:100FC0006813060814ED00E010B5041E08DB04F0F9
:100FD0001F02640901239340044A42F8243010BDE3
:100FE000CE21034822F014FBF1E700BF00E100E04E
:100FF0006813060810B5041E09DB04F01F0264091B
:10100000012393402034044A42F8243010BDDE21ED
:10101000024822F0FDFAF0E700E100E0681306085C
:101020000138B0F1807F0AD2064B5860064AF021A1
:1010300082F823100020986007221A607047012070
:10104000704700BF10E000E000ED00E010B504467E
:10105000042800D038B9042C0BD0094A136823F0B7
:101060000403136010BD40F2D911064822F0D0FAF3
:10107000F1E7034A136843F004031360F2E700BF8B
:1010800010E000E068130608704708B5FFF7FCFFA2
:1010900008BD00000268D3B2103B0B49A1FB03134B
:1010A0001B090A49C95CC165032B06D822F47F726B
:1010B00022F003028265806D704722F47F7222F075
:1010C000030204328265F6E7ABAAAAAA985D050876
:1010D000836A826992B9012B0AD01BB1022B01D01D
:1010E00000207047C36A13F0807F2CD10020704726
:1010F000C36AB3F1C07F28D000207047B2F5005F0B
:1011000005D0022B29D9032B15D000207047032BC3
:1011100003D8DFE803F01C041C0A00207047C36AF0
:1011200013F0807F15D100207047C36AB3F1C07FF0
:1011300011D000207047C36A13F0807F01D00120D6
:101140007047002070470120704701207047012040
:101150007047012070470120704701207047000050
:1011600070B50446FFF7A0FE002C00F0388105465C
:1011700023689C4A934231D0183293422ED01832C1
:1011800093422BD01832934228D01832934225D064
:101190001832934222D0183293421FD01832934211
:1011A0001CD002F55672934218D01832934215D0D3
:1011B0001832934212D0183293420FD01832934211
:1011C0000CD01832934209D01832934206D018320C
:1011D000934203D0C821844822F01AFA6368A3B16D
:1011E000B3F1007F11D0B3F1806F0ED0B3F1C06FB7
:1011F0000BD0B3F1006F08D0B3F1206F05D0B3F17D
:10120000406F02D0B3F1606F6DD1A3681BB1402B6A
:1012100001D0802B6CD1E368B3F5007F01D0002BA7
:101220006BD12369B3F5806F01D0002B6AD163695C
:101230002BB1B3F5006F02D0B3F5805F67D1A3691E
:101240002BB1B3F5005F02D0B3F5804F64D1E369F1
:1012500023B1B3F5807F01D0202B62D1236A43B143
:10126000B3F5803F05D0B3F5003F02D0B3F5403F62
:101270005CD1636A0BB1042B5DD1636AC3B1A36A0D
:10128000032B5DD8E36A43B1B3F5000F05D0B3F18A
:10129000807F02D0B3F1C07F57D1236B43B1B3F548
:1012A000001F05D0B3F5800F02D0B3F5C00F51D1A8
:1012B000002384F83430022384F835302268136820
:1012C00023F00103136023681A6812F0010F46D05F
:1012D000FFF7EAFD401B0528F5D9202363650320AD
:1012E00084F8350070BDC9213F4822F091F98CE7A0
:1012F000CA213D4822F08CF98DE7CB213A4822F0F3
:1013000087F98EE7CC21384822F082F98FE7CD218A
:10131000354822F07DF992E7CE21334822F078F962
:1013200095E7CF21304822F073F997E7D0212E4876
:1013300022F06EF99DE7D1212B4822F069F99CE754
:10134000D621294822F064F99CE7D721264822F0CB
:101350005FF9A2E7D821244822F05AF9A8E71A68D1
:10136000224810406168A2680A43E1680A43216983
:101370000A4361690A43A1690A43E1690A43216A90
:101380000A430243616A04291ED01A6026687569FF
:1013900025F00705636A1D43042B07D1A36A1D438B
:1013A000E36A1BB12046FFF793FE90B975612046B2
:1013B000FFF770FEE26D3F2393408360002060657D
:1013C000012384F835308DE7E16A206B01430A433D
:1013D000DBE740236365012084F8350082E70120C4
:1013E00080E700BF10600240A41306083F8010F0A1
:1013F00090F83530DBB2022B03D080234365012007
:101400007047052380F835300268136823F0010324
:101410001360002070470000F0B583B0044600233D
:101420000193724B1D68724BA3FB0535AD0A876DA6
:101430003E68C26D08239340334210D003681A6897
:1014400012F0040F0BD01A6822F004021A60C26D69
:1014500008239340BB60436D43F001034365E26D95
:1014600001239340334209D02268526912F0800F61
:1014700004D0BB60636D43F002036365E26D042337
:101480009340334209D02268126812F0020F04D050
:10149000BB60636D43F004036365E26D102393400A
:1014A000334224D02268126812F0080F1FD0BB60AC
:1014B00023681A6812F4802F0DD01B6813F4002FD4
:1014C00004D1236C9BB12046984710E0A36C73B104
:1014D000204698470BE01A6812F4807F03D11A68FF
:1014E00022F008021A60236C0BB120469847E26D87
:1014F00020239340334255D02268126812F0100F17
:1015000050D0BB6094F83530DBB2052B0ED0236889
:101510001A6812F4802F33D01B6813F4002F2AD1DD
:10152000636C002B3ED0204698473BE0226813684E
:1015300023F0160313602268536923F0800353617C
:10154000236CA3B12268136823F008031360E26DD3
:101550003F239340BB60002384F83430012384F898
:101560003530236D002B3FD0204698473CE0A36CDC
:10157000002BE7D1EBE7E36BA3B12046984711E0DE
:101580001A6812F4807F09D11A6822F010021A60DA
:10159000002384F83430012384F83530E36B0BB139
:1015A00020469847636DFBB1636D13F0010F17D0B0
:1015B000052384F835302268136823F00103136093
:1015C000019B01330193AB4204D823681B6813F0DD
:1015D000010FF5D1002384F83430012384F835302D
:1015E000E36C0BB12046984703B0F0BDFC0200202D
:1015F000B5814E1B274BDB6813F0100F07D0264A2E
:10160000D36943F01003D361224B1022DA60214BDF
:10161000DB6813F0200F07D01F4AD36943F008039B
:10162000D3611C4B2022DA601A4BDB6813F0400FA9
:1016300007D0194AD36943F00403D361154B402204
:10164000DA60144BDB6813F0800F07D0124AD369BD
:1016500043F00203D3610F4B8022DA600D4BDB684D
:1016600013F4807F08D00C4AD36943F00103D3619F
:10167000084B4FF48072DA60064BDB6813F0020F00
:1016800007D0054AD36943F02003D361014B0222FE
:10169000DA607047003C024054E0002038B5044650
:1016A0000D4600F17843B3F5002F06D300F16043F7
:1016B00003F50843B3F5047F0CD2094B1A6922F4F1
:1016C00040721A611A691A611A6942F001021A61BC
:1016D000257038BD40F2C521024821F099FFECE7A2
:1016E000003C0240DC13060838B504460D4600F104
:1016F0007843B3F5002F06D300F1604303F50843A8
:10170000B3F5047F0ED20A4B1A6922F440721A61B3
:101710001A6942F480721A611A6942F001021A6170
:10172000258038BD4FF42B71024821F071FFEAE7A4
:10173000003C0240DC13060838B504460D4600F1B3
:101740007843B3F5002F06D300F1604303F5084357
:10175000B3F5047F0ED20A4B1A6922F440721A6163
:101760001A6942F400721A611A6942F001021A61A0
:10177000256038BD40F29321024821F049FFEAE795
:10178000003C0240DC13060870B5044616461D46B0
:1017900000F17843B3F5002F06D300F1604303F561
:1017A0000843B3F5047F0FD20A4B1A6922F4407242
:1017B0001A611A6942F440721A611A6942F0010210
:1017C0001A612660656070BD40F27721024821F001
:1017D0001FFFE9E7003C0240DC130608094B1B69C8
:1017E000002B01DB00207047064B074A5A6002F1CC
:1017F00088325A601B69002B01DB002070470120F2
:10180000704700BF003C024023016745034A13694B
:1018100043F0004313610020704700BF003C0240CA
:1018200038B50446154B0022DA61FFF73DFB05464B
:10183000134BDB6813F4803F0AD0B4F1FF3FF7D0BD
:10184000CCB1FFF731FB401BA042F1D903200DE0E2
:101850000B4BDB6813F0010F02D0094B0122DA6059
:10186000074BDB6813F4F97F01D1002038BDFFF787
:10187000C1FE0120FAE70320F8E700BF54E0002092
:10188000003C0240F8B5214C247E012C3BD01F4681
:1018900016460D4604461D4B01221A7603281ED813
:1018A0004CF25030FFF7BCFF014698B9E4B1012C6F
:1018B0001FD0022C22D032463B462846FFF764FF59
:1018C0004CF25030FFF7ACFF0146114A136923F088
:1018D000010313610D4B00221A760846F8BDB421AE
:1018E0000C4821F095FEDBE7F1B22846FFF7D6FE63
:1018F000E6E7B1B22846FFF7F7FEE1E731462846B2
:10190000FFF71AFFDCE70221E7E700BF54E0002001
:10191000003C0240DC13060838B504460D46032897
:1019200016D8012D04D040F2CD310C4821F070FEC4
:101930000B4B1A6922F440721A611A6942F00402D0
:101940001A61186940EA042040F48030186138BDFB
:101950004FF47371014821F05BFEE2E718140608AA
:10196000003C024038B504460D46072809D8032D2F
:101970000DD8ADB1012D2BD0022D0ED04FF44070FB
:101980000FE040F2EB31144821F042FEEFE74FF454
:101990007B71114821F03CFEEBE74FF4007000E052
:1019A00000200E4B196921F4407119611A69024334
:1019B0001A611A6922F0F8021A61186940EAC40033
:1019C00040F0020018611A6942F480321A6138BD91
:1019D0004FF48070E5E700BF18140608003C024091
:1019E000164B1B6813F4007F10D0144B1A6822F4B6
:1019F00000721A601A6842F400621A601A6822F4CF
:101A000000621A601A6842F400721A600B4B1B687D
:101A100013F4806F10D0094B1A6822F480621A60A8
:101A20001A6842F480521A601A6822F480521A60CE
:101A30001A6842F480621A60704700BF003C02409E
:101A4000F8B52C4B1B7E012B52D00E460446294B79
:101A500001221A760368934229D84CF25030FFF7DE
:101A6000DFFE074600283ED14FF0FF333360236886
:101A7000012B21D0E368A2681344013B072B2AD82D
:101A8000A568E368A2681344AB422AD9217C2846A2
:101A9000FFF768FF4CF25030FFF7C2FE164A136999
:101AA00023F0FA0313610746D0B90135E9E7BB21FA
:101AB000124821F0ADFDD0E76168207CFFF72CFFD4
:101AC0004CF25030FFF7ACFE07460B4A136923F087
:101AD0000403136105E0D321084821F099FDCFE705
:101AE0003560FFF77DFF034B00221A763846F8BDBC
:101AF0000227FBE754E00020003C024018140608CF
:101B00002DE9F04782B080460E46A44B984217D08C
:101B100003F58063984213D003F5806398420FD099
:101B200003F5806398420BD003F58063984207D099
:101B300003F54063984203D0C321994821F068FD22
:101B400033689AB212B11B0C1B041BB1C421944818
:101B500021F05EFD7368012B1ED9112B1CD0022BC6
:101B60001AD0122B18D08F4A934215D002F580124A
:101B7000934211D002F5801293420DD0A2F5F812D3
:101B8000934209D002F58012934205D002F58012EB
:101B9000934201D0032B04D1B368022B06D8002452
:101BA00045E0C5217E4821F033FDF5E7C6217C489C
:101BB00021F02EFDF3E7EA21794821F029FD90E09C
:101BC000042300E000238B4003430232764941F8AE
:101BD0002230764B1A68FB4303EA0201706810F466
:101BE000803F01D047EA0201704A1160526803EA5F
:101BF0000201706810F4003F01D047EA02016B4A0D
:101C00005160926803EA0201706810F4801F01D0ED
:101C100047EA0201654A9160D2681340716811F485
:101C2000001F01D047EA0203604AD36001340F2C41
:101C300000F2B0800125A54037682F40BD42F5D1A4
:101C40007368022B01D0122B2BD13369CBB1092B36
:101C500017D0012B15D0022B13D0042B11D0052B3C
:101C60000FD0062B0DD0072B0BD0082B09D00A2B39
:101C700007D00C2B05D00F2B03D0D721484821F0DB
:101C8000C7FCE208083258F8220004F00703990064
:101C90000F238B4020EA030033698B40034348F84D
:101CA0002230D8F800204FEA440A4FF0030909FA1D
:101CB0000AF96FEA090909EA0202736803F00303EB
:101CC00003FA0AF31343C8F8003073685A1E012A56
:101CD00003D9112B01D0122B18D1F368032B3FF637
:101CE0006AAFD8F8082009EA0202F36803FA0AF397
:101CF0001343C8F80830D8F8042022EA05027368B4
:101D0000C3F30015A5401543C8F80450D8F80C30AB
:101D100009EA0309B36803FA0AF343EA0903C8F8B6
:101D20000C30736813F0805F80D000230193204B48
:101D30005A6C42F480425A645B6C03F48043019312
:101D4000019BA208911C184B53F8210004F00303D7
:101D500099000F238B4020EA0300104B98453FF475
:101D600031AF03F5806398450ED003F58063984545
:101D70000CD003F5806398450AD003F5806398453D
:101D80003FF41EAF07231EE701231CE702231AE7D7
:101D9000032318E702B0BDE8F08700BF000002404F
:101DA000581406080000111000380140003C0140A2
:101DB00000380240F8B504460D46474B984218D00B
:101DC00003F58063984214D003F58063984210D0E5
:101DD00003F5806398420CD003F58063984208D0E5
:101DE00003F54063984204D04FF4A0713B4821F0C2
:101DF0000FFC002307E0042000E0002000FA02F2BC
:101E00008A4250D001330F2B65D801229A4002EA52
:101E10000506B242F6D120685F000321B940C943EC
:101E2000084020604FEAD30C0CF1080C54F82CE069
:101E300003F0070080000F2707FA00F02EEA0000E9
:101E400044F82C00A0680840A060606820EA020204
:101E50006260E2681140E1604FEA930C0CF102010C
:101E60001F4A52F8211003F00302920097403940B4
:101E700019488442C1D000F5806084420DD000F53D
:101E8000806084420BD000F58060844209D000F568
:101E900080608442AFD00720B0E70120AEE7022087
:101EA000ACE70320AAE70E480CF1020250F822101A
:101EB00021EA070740F822700A490868F2431040F7
:101EC0000860486810404860886810408860C868AA
:101ED0000240CA6096E7F8BD0000024058140608A8
:101EE00000380140003C014038B505460C4621B1A0
:101EF0002B691C4207D1002038BD4FF4C77103483D
:101F000021F086FBF4E70120F6E700BF581406082D
:101F100070B5064615460C4629B1012D09D875B98C
:101F20002404B46170BD40F2AF11064821F070FB8B
:101F3000F3E74FF4D871034821F06AFBEFE7B4618F
:101F4000F0E700BF581406087047000008B5054BBD
:101F50005B69034200D108BD024B5861FFF7F4FFF3
:101F6000F9E700BF003C0140F8B506460C461746AD
:101F70001D461EE02DB1FEF797FF069BC01AA84232
:101F800017D900233363202286F83D2086F83E309F
:101F900086F83C3003201AE033685B6924EA0303C7
:101FA0009BB2B3FA83F35B099F420FD1B5F1FF3FB8
:101FB000E0D1C4F30743012BEED033689B6924EAD8
:101FC00003039BB2B3FA83F35B09EDE70020F8BD8E
:101FD000002800F0EB8010B504460368744A934271
:101FE0000CD002F58062934208D002F580629342E1
:101FF00004D04FF4B7716F4821F00AFB6368013BCE
:102000006D4A934267D8A36813B1B3F5804F68D186
:10201000E36823F47F7323F00303002B67D1236964
:10202000B3F5804F02D0B3F5404F66D16369012B01
:1020300069D8A36933F0FE036BD1E3690BB1402B80
:102040006DD1236A0BB1802B6FD194F83D30002BFA
:1020500071D0242384F83D302268136823F00103F3
:10206000136001F063FA554BA3FB00239B0C22681D
:1020700053606168524A914263D801332268136207
:1020800063684F4A934266D85B00B0FBF3F0C0F33D
:102090000B03032B00D804202368D861E369216A6D
:1020A00022680B4313602369E16822680B43936045
:1020B0006369A16922680B43D3602268136843F007
:1020C0000103136000202064202384F83D30206346
:1020D00084F83E0010BD40F26F11364821F098FAA6
:1020E00091E74FF4B871334821F092FA90E740F24B
:1020F0007111304821F08CFA91E74FF4B9712D48F5
:1021000021F086FA92E740F273112A4821F080FA12
:102110008FE74FF4BA71274821F07AFA8DE740F241
:102120007511244821F074FA8BE74FF4BB712148F4
:1021300021F06EFA89E784F83C30204621F088F9D6
:1021400087E74FF4967202FB03F31E4AA2FB0323B8
:102150009B09013392E7A16889B903EB4302B0FB05
:10216000F2F2C2F30B02B2FA82F25209E2B991B969
:1021700003EB4303B0FBF3F040F400408CE703EBC8
:10218000830202EB8202B0FBF2F2C2F30B02B2FA5C
:1021900082F25209EAE703EB830303EB8303B0FB0C
:1021A000F3F040F4404077E7012075E701207047E5
:1021B00000540040941406087F1A060083DE1B4377
:1021C000A0860100D34D62102DE9F04385B004468E
:1021D000884691461D46FEF767FE94F83D30DBB217
:1021E000202B04D00223184605B0BDE8F083064634
:1021F00000901923012256492046FFF7B5FE00281A
:1022000040F09B8094F83C30012B00F09880012333
:1022100084F83C3023681A6812F0010F03D11A6861
:1022200042F001021A602268136823F4006313600D
:10223000242384F83D3000232364A3F58033E36234
:10224000012735E0A02384F83D3022685369C3F3A9
:1022500040035269C2F3802294F83D10C9B253B9C9
:102260004AB9A02907D0002DECD0FEF71DFE801B37
:10227000A842EAD9E6E7202384F83D3023685A696A
:1022800012F0020F35D11A6842F400721A60236806
:102290006FF480625A610096192301222C4920466E
:1022A000FFF762FE002850D17B1C4F453DD21F46F0
:1022B0002268136843F48073136000962B46002253
:1022C0004FF001112046FFF74FFE002839D1236857
:1022D00008F0FE021A61FEF7E7FD06462268536920
:1022E000C3F340035269C2F3802294F83D10C9B28F
:1022F000B5E71A6842F400721A600023039323685A
:102300005A6903929B690393039B00961923012248
:102310000F492046FFF728FE0346A0B9202284F883
:102320003D20002284F83C205DE7202384F83D30E6
:10233000002384F83C30012355E7022353E70223AE
:1023400051E703234FE703234DE703234BE700BF88
:10235000020010002DE9F04383B007460D46D0F887
:102360000080CA00521A93000344DE6C1A6DB61A3C
:102370001B6C9E4200D91E4606F103094FEA9909DB
:1023800015E006F103094FEA9909EB005B1B9C007D
:102390003C44616C3B7C0093B3B2EAB2404603F02C
:1023A000F3FA636C33446364236D3344236541461D
:1023B00008EB451303F510639B699BB24B4512D99B
:1023C000EA00521B93003B441A6DDB6C9A420AD21E
:1023D0004BB19E1AC5EBC50293003B441B6C9E4259
:1023E000CFD91E46CDE73EB90123AB40D1F83458D2
:1023F00025EA0305C1F83458002003B0BDE8F08396
:10240000002874D0F0B58BB004460368B3F1A04F38
:1024100003D09421374821F0FBF8032384F8B93323
:10242000204621F03DFC206802F0FAFE254655F8D2
:10243000107B6E460FCD0FC60FCD0FC695E803007B
:1024400086E80300231D0ECB384602F0A5FE0021CE
:10245000206802F0EBFE002210E0D100891A8B0008
:102460002344012183F8391083F83820DA870021CA
:1024700083F83B1019645964D96401320E2AECD9EF
:10248000002218E0D100891A8B002344002183F830
:10249000F91183F8F821DA8783F8FB11C3F80012E9
:1024A000C3F80412C3F80C12236802F1400003EBD6
:1024B0008003596001320E2AE4D9254655F8107B75
:1024C0006E460FCD0FC60FCD0FC695E8030086E808
:1024D0000300231D0ECB384602F0BEFE012384F814
:1024E000B933206803F0FBFA00200BB0F0BD0120E7
:1024F000704700BFCC14060890F8B833012B0ED0FB
:1025000010B50446012380F8B833006803F0DBFA05
:10251000206802F07FFE002084F8B80310BD02207E
:10252000704700002DE9F04704460568284603F08F
:1025300011FB08B1BDE8F0870646206803F0DBFA1E
:102540000028F7D0206803F0D6FA10F0020F04D06C
:102550002268536903F002035361206803F0CBFA49
:1025600010F4002F75D13746206803F0C4FA10F438
:10257000802F40F0D280206803F0BDFA0028C0F21E
:102580003E81206803F0B7FA10F4006F0AD0D5F846
:10259000083813F0010F40F041812268536903F4B9
:1025A00000635361206803F0A6FA10F4805F40F0E6
:1025B0003981206803F09FFA10F4005F40F08281B7
:1025C000206803F098FA10F0100F14D02268936975
:1025D00023F0100393612E6A06F00F08C6F34343FD
:1025E000022B00F00382062B00F0218222689369FF
:1025F00043F010039361206803F07DFA10F0080F98
:1026000040F02982206803F076FA10F4801F40F031
:102610002B82206803F06FFA10F4001F40F02E8226
:10262000206803F068FA10F0804F40F03182206893
:1026300003F061FA10F0040F3FF47CAF23685D688B
:1026400015F0040F40F02D82226853682B4353602D
:1026500070E7206803F053FA8046374621E0F9001E
:10266000C91B8A002244D2F800121B69C3F312036B
:10267000C91AC2F81012D2F80012D2F804320B4470
:10268000C2F8043228E019F0080F3DD119F0100FFC
:1026900004D005EB47131022C3F8082B01374FEA8B
:1026A0005808B8F1000F3FF45FAF18F0010FF5D0F4
:1026B0005FFA87FA5146206803F031FA814610F03C
:1026C000010FE0D005EB47130122C3F8082B03F5F7
:1026D00030632269012AC2D05146204621F01CFBFA
:1026E0002369012BCFD1002FCDD1C7EBC7029300B7
:1026F0002344D3F80C32002BC5D104F56F720121AD
:10270000206803F047FABEE7204621F0FDFA05EB0A
:1027100047130822C3F8082BB8E7206803F0F7F93D
:10272000804637462EE0FA00D21B93002344196CF2
:102730005A6C0A445A6446E019F0080F04D005EBBD
:1027400047130822C3F8082919F0100F04D005EB2D
:1027500047131022C3F8082919F0400F04D005EBE5
:1027600047134022C3F8082919F0020F04D005EBE3
:1027700047130222C3F8082919F0800F3AD1013714
:102780004FEA5808B8F1000F3FF4F5AE18F0010F0A
:10279000F5D05FFA87FA5146206803F0C9F98146FF
:1027A00010F0010FC8D0012202FA07F0D5F8343832
:1027B00023EA0003C5F8343805EB4713C3F80829AA
:1027C00023699342AFD05146204621F0B1FA2369E4
:1027D000012BB1D1002FAFD1C7EBC7029300234427
:1027E000DB6C002BA8D104F56F720121206803F087
:1027F000D1F9A1E739462046FFF7ACFDBFE7D5F890
:10280000043823F00103C5F80438204621F0CAFA41
:102810002268536903F000435361B2E6204621F079
:10282000A9FABAE6A94605F50068D8F8043023F0FD
:102830000103C8F804301021206802F0B5FD07E05C
:1028400009EB4613FF22C3F80829C3F8082B013609
:102850006368B342F4D84FF0FF33C8F81830D8F8A3
:102860001C3043F00113C8F81C30236BEBB1D8F8CF
:10287000843043F00B03C8F88430D8F8443043F078
:102880000B03C8F84430D5F8003823F4FE63C5F8CC
:10289000003804F56F72217C206803F07BF9226810
:1028A000536903F48053536183E6D8F8143043F03E
:1028B0000B03C8F81430D8F8103043F00B03C8F8F5
:1028C0001030E0E7206803F049F92268D36823F468
:1028D0007053D360206802F094FD90B90023E36048
:1028E0004FF4007363612268D36843F41053D360DC
:1028F000204621F02EFA2268536903F400535361F5
:102900005EE60323E3604023636100F009FE674B4A
:102910000344674A934205D82268D36843F470534E
:10292000D360E5E7634B0344634A934205D82268CA
:10293000D36843F46053D360DAE7A0F57403A3F5DA
:1029400010535E4A934205D82268D36843F450532B
:10295000D360CDE7A0F18373A3F5E743584A9342D0
:1029600005D82268D36843F44053D360C0E7554B81
:102970000344554A934205D82268D36843F4305340
:10298000D360B5E7514B0344514A934205D82268BE
:10299000D36843F42053D360AAE74E4B03444E4A16
:1029A000934205D82268D36843F41053D3609FE75D
:1029B000A0F1B773A3F55853484A934205D822684B
:1029C000D36843F40053D36092E7454B0344454A30
:1029D000934205D82268D36843F4E053D36087E775
:1029E0002268D36843F4C053D36081E747F6F0739D
:1029F0001E423FF4FBAD36094FEAC80AAAEB0803B2
:102A00004FEA8309A144C6F30A02D9F80412284602
:102A100002F0CEFFC6F30A06D9F804323344C9F8EF
:102A20000432D9F810321E44C9F81062DEE50822DB
:102A300004F56F71284602F0BBFFC6F30A164FEA91
:102A4000C803A3EB08018A002244D2F810321E44C6
:102A5000C2F81062CAE5204621F075F92268536970
:102A600003F008035361CDE5F9B2204621F0A6F941
:102A70002268536903F480135361CAE5F9B2204612
:102A800021F096F92268536903F400135361C7E5F6
:102A9000204621F099F92268536903F0804353617D
:102AA000C5E5204621F096F9CEE500BF405327FF4B
:102AB000FF340C00401E1BFF3F420F007F4F1200EF
:102AC0001FD6130060B6E5FE5FE3160000D3CEFE0E
:102AD0003F771B00C05BB3FEBF9121001F7538001C
:102AE000E05459FEDF9C410090F8B833012B0BD025
:102AF00010B50446012380F8B833006802F0D3FF14
:102B0000002084F8B80310BD0220704770B54DB2A4
:102B1000002D22DB01F07F06C6EBC606B40004F5EB
:102B2000FC74044401F07F012170ED0F6570A26018
:102B3000E37005B1E180022B17D090F8B833012B78
:102B400016D00546012380F8B8332146006802F00C
:102B500078FC002085F8B80370BD01F07F06C6EB55
:102B6000C606B40038340444DCE700232371E4E7EC
:102B70000220F1E710B54AB2002A1CDB01F07F0405
:102B8000C4EBC404A30003F5FC73034401F07F010C
:102B90001970D20F5A7090F8B823012A13D0044646
:102BA000012280F8B8231946006802F093FC002047
:102BB00084F8B80310BD01F07F04C4EBC404A30083
:102BC00038330344E2E70220F4E770B501F07F06F2
:102BD000F500A91B8C0004F5FC740119AD1BAC00B9
:102BE0000444C4F80422C4F80C320023C4F81032A0
:102BF00084F8F93184F8F8610369012B06D066B1D5
:102C0000DAB2006802F0DEFC002070BDC6EBC6053B
:102C1000AC000444C4F80822F1E7DAB2006802F01C
:102C200003FEF1E701F00F01C1EBC1018B00184475
:102C3000B0F81002704770B501F07F06F500A91BCF
:102C40008C0038340119AD1BAC0004446264E364A9
:102C500000232365012384F8393084F83860036940
:102C6000012B06D05EB1DAB2006802F0ABFC0020A6
:102C700070BDC6EBC605AC000444A264F2E7DAB24C
:102C8000006802F0D1FDF2E738B54AB2002A1DDB38
:102C9000C1EBC104A30003F5FC73034401249C7041
:102CA00001F07F041C70D20F5A7090F8B823012AEB
:102CB0001BD00546012280F8B8231946006802F0AF
:102CC0008BFE5CB1002085F8B80338BD01F07F04AD
:102CD000C4EBC404A30038330344DFE705F56F7287
:102CE000297C286802F056FFECE70220EDE710B5DA
:102CF0004AB2002A1CDBC1EBC104A30003F5FC733C
:102D0000034400249C7001F07F011970D20F5A70A7
:102D100090F8B823012A13D00446012280F8B82382
:102D20001946006802F08AFE002084F8B80310BD3E
:102D300001F07F04C4EBC404A30038330344E0E78C
:102D40000220F4E730B40468606A29B10D46A36A32
:102D500000EB134000230CE040EA0240A06212E0C6
:102D600003F1400104EB8101496800EB114001339C
:102D7000DBB2691E8B42F3DB40EA024005F13F0102
:102D800004EB81014860002030BC70470368596241
:102D900000207047002800F03B8270B582B00446E6
:102DA00003680F2B39D8236813F0010F4DD06368E7
:102DB0002BB1B3F5803F02D0B3F5A02F32D1A54B94
:102DC0009B6803F00C03042B36D0A24B9B6803F0E6
:102DD0000C03082B2BD06368B3F5803F5FD0B3F5AD
:102DE000A02F62D09B4B1A6822F480321A601A68B6
:102DF00022F480221A606368002B60D0FEF754F83A
:102E00000546944B1B6813F4003F1ED1FEF74CF8A7
:102E1000401B6428F5D90320FFE1F8218E4820F0FB
:102E2000F7FBC0E7FD218C4820F0F2FBC7E7894B98
:102E30005B6813F4800FCED0864B1B6813F4003F01
:102E400003D06368002B00F0E581236813F0020FC4
:102E500067D0E368012B41D823691F2B44D87D4BF1
:102E60009B6813F00C0F4AD07A4B9B6803F00C035D
:102E7000082B3FD0E368002B77D0784B01221A60F3
:102E8000FEF712F80546734B1B6813F0020F63D16F
:102E9000FEF70AF8401B0228F5D90320BDE16D4A70
:102EA000136843F480331360A5E76A4B1A6842F451
:102EB00080221A601A6842F480321A609BE7FDF79C
:102EC000F3FF0546634B1B6813F4003FBDD0FDF7CD
:102ED000EBFF401B6428F5D903209EE140F22F113F
:102EE0005D4820F095FBB7E74FF498715A4820F001
:102EF0008FFBB4E7574B5B6813F4800FBAD1554B87
:102F00001B6813F0020F04D0E368012B01D00120ED
:102F100083E1504A136823F0F803216943EAC103AF
:102F20001360236813F0080F49D06369012B2ED872
:102F3000636993B34A4B01221A60FDF7B5FF05465A
:102F4000444B5B6F13F0020F39D1FDF7ADFF401B0F
:102F50000228F5D9032060E13E4A136823F0F80304
:102F6000216943EAC1031360DBE73C4B00221A608E
:102F7000FDF79AFF0546374B1B6813F0020FD0D0C0
:102F8000FDF792FF401B0228F5D9032045E14FF4DD
:102F9000B871314820F03CFBCAE7314B00221A607F
:102FA000FDF782FF05462B4B5B6F13F0020F06D037
:102FB000FDF77AFF401B0228F5D903202DE1236895
:102FC00013F0040F00F08780A368012B01D9052BB3
:102FD00038D1204B1B6C13F0805F39D10023019353
:102FE0001C4B1A6C42F080521A641B6C03F0805325
:102FF0000193019B01251B4B1B6813F4807F33D089
:10300000A368012B44D0052B48D0124B1A6F22F035
:1030100001021A671A6F22F004021A67A368002BD4
:1030200046D0FDF741FF06460A4B1B6F13F0020F17
:103030004FD1FDF739FF801B41F288339842F3D915
:103040000320EAE04FF4CE71034820F0E1FAC0E734
:103050000025D0E70038024004150608000047426A
:10306000800E4742007000406E4A136843F480733C
:103070001360FDF719FF06466A4B1B6813F4807F47
:10308000BED1FDF711FF801B0228F5D90320C4E053
:10309000654A136F43F001031367BFE7624B1A6F72
:1030A00042F004021A671A6F42F001021A67B5E78C
:1030B000FDF7FAFE06465C4B1B6F13F0020F08D0BB
:1030C000FDF7F2FE801B41F288339842F3D90320CA
:1030D000A3E0002D3AD1A369022B3DD8A369002BB0
:1030E00000F09A80504A926802F00C02082A00F020
:1030F0009680022B78D1E36913B1B3F5800F31D1FB
:10310000236A3F2B34D8636AC03BF02B36D8A36ABE
:10311000022B05D0042B03D0062B01D0082B33D172
:10312000E36A023B0D2B35D8404B00221A60FDF7B5
:10313000BBFE05463C4B1B6813F0007F30D0FDF70B
:10314000B3FE401B0228F5D9032066E0364A136C13
:1031500023F080531364BEE740F2DF11344820F0BF
:1031600057FABBE74FF4F471314820F051FAC7E742
:1031700040F2E9112E4820F04BFAC4E74FF4F57104
:103180002B4820F045FAC2E740F2EB11284820F026
:103190003FFAC5E74FF4F671254820F039FAC3E746
:1031A000E369226A1343626A43EA8213A26A5208FD
:1031B000013A43EA0243E26A43EA02631A4A53606D
:1031C0001A4B01221A60FDF76FFE0446164B1B686E
:1031D00013F0007F06D1FDF767FE001B0228F5D92A
:1031E00003201AE0002018E0104B00221A60FDF7BF
:1031F0005BFE04460C4B1B6813F0007F06D0FDF706
:1032000053FE001B0228F5D9032006E0002004E04D
:1032100001207047012000E0002002B070BD0120B5
:10322000FBE700BF007000400038024060004742EA
:1032300004150608324B9B6803F00C03042B5CD08A
:10324000082B01D02F4870472DE9F04B2C4B5A68C2
:1032500002F03F025B6813F4800F2BD0284B5B68B1
:10326000C3F388131E4600275C010025E41A65EBB2
:103270000705A90141EA9461A001001B61EB05016A
:10328000CB0043EA5073C400A01943EB07014B0283
:1032900043EAD0534402204619460023FDF7D4FBED
:1032A000174B5B68C3F3014301335B00B0FBF3F0E2
:1032B000BDE8F08B124B5B68C3F388131E460027F2
:1032C0005C010025E41A65EB0705A90141EA946158
:1032D000A001001B61EB0501CB0043EA5073C40061
:1032E000A01943EB07018B0243EA90538402204666
:1032F00019460023FDF7A8FBD2E70348704700BF3B
:10330000003802400024F40000127A00002800F087
:10331000F98070B504460D460368013B0E2B11D8A9
:10332000072D15D8794B1B6803F00F03AB4215D25C
:10333000EBB2764A1370136803F00F03AB420DD063
:10334000012070BD4FF41471714820F061F9E7E776
:1033500040F251216E4820F05BF9E3E7236813F057
:10336000020F29D013F0040F04D06A4A936843F483
:10337000E0539360236813F0080F04D0654A936804
:1033800043F460439360A3687BB1802B0DD0902BF6
:103390000BD0A02B09D0B02B07D0C02B05D0D02B41
:1033A00003D0E02B01D0F02B33D15A4A936823F09D
:1033B000F003A1680B439360236813F0010F42D020
:1033C0006368032B2BD86368012B2ED09A1E012A29
:1033D00032D9504A126812F0020F00F095804D4920
:1033E0008A6822F0030213438B60FDF75DFD0646F9
:1033F000484B9B6803F00C036268B3EB820F22D04A
:10340000FDF752FD801B41F288339842F0D903202A
:1034100097E74FF41D713E4820F0FAF8C5E740F2F7
:103420007B213B4820F0F4F8CDE73A4A126812F4C9
:10343000003FD4D1012084E7364A126812F0007FA1
:10344000CDD101207DE7314B1B6803F00F03AB4268
:1034500009D9EAB22D4B1A701B6803F00F03AB4277
:1034600001D001206DE7236813F0040F14D0E36846
:103470005BB1B3F5805F08D0B3F5A05F05D0B3F5BD
:10348000C05F02D0B3F5E05F30D1224A936823F4E5
:10349000E053E1680B439360236813F0080F15D0E5
:1034A00023695BB1B3F5805F08D0B3F5A05F05D0A9
:1034B000B3F5C05F02D0B3F5E05F1DD1154A936844
:1034C00023F46043216943EAC1039360FFF7B2FE2E
:1034D000104B9B68C3F303130F4AD35CD8400F4BC8
:1034E00018600020FDF796FC00202AE740F2B92181
:1034F000074820F08DF8C8E74FF43071044820F0F9
:1035000087F8DBE70120704701201AE7003C024002
:10351000041506080038024094120608FC02002038
:10352000014B1868704700BFFC02002008B5FFF788
:10353000F7FF044B9B68C3F38223034AD35CD84054
:1035400008BD00BF00380240A412060808B5FFF706
:10355000E7FF044B9B68C3F34233034AD35CD84074
:1035600008BD00BF00380240A4120608F8B50546A1
:103570000F4616461C463BE02CB1FDF795FC069B1A
:10358000C01AA04234D32A68536823F0E003536082
:103590006B68B3F5827F0BD0AB6AB3F5005F14D0D4
:1035A000012385F85130002385F85030032027E0AF
:1035B000AB68B3F5004F02D0B3F5806FECD12A6849
:1035C000136823F040031360E6E72A68136823F4C6
:1035D00000531B041B0C13602A68136843F4005348
:1035E0001360DDE70123B34209D0B4F1FF3FC3D13B
:1035F0002B689B6837EA0303F4D00023F3E700202D
:10360000F8BD10B582B0044600920B46002280211E
:10361000FFF7ACFF034610B9184602B010BD636D4A
:1036200043F0200363650323F6E70000002800F061
:10363000C88010B504460368634A934214D0A2F5CB
:103640007842934210D002F5806293420CD002F58A
:103650007842934208D002F5E052934204D04FF4EE
:1036600087715A481FF0D4FF636813B1B3F5827FA6
:103670006BD1A3682BB1B3F5806F02D0B3F5004FC7
:1036800069D1E368B3F5006F01D0002B69D1A3695C
:10369000B3F5007F03D013B1B3F5802F67D1E36991
:1036A0006BB1082B0BD0102B09D0182B07D0202B77
:1036B00005D0282B03D0302B01D0382B5DD1236AC5
:1036C0000BB1802B5FD1636A0BB1102B61D1636AA0
:1036D00033B923690BB1022B61D16369012B64D823
:1036E0000023A36294F85130002B64D0022384F8A5
:1036F00051302268136823F0400313606368A268A6
:103700001343E26813432269134362691343A269B6
:1037100002F400721343E2691343226A1343A16A5D
:1037200022680B431360638B03F00403616A226811
:103730000B4353602268D36923F40063D3610020F4
:103740006065012384F8513010BD40F20F111F480D
:103750001FF05EFF8DE74FF488711C481FF058FF83
:103760008FE740F2111119481FF052FF8FE74FF415
:10377000897116481FF04CFF91E740F2131113486E
:103780001FF046FF9BE74FF48A7110481FF040FF7F
:1037900099E740F215110D481FF03AFF97E74FF4F3
:1037A0008C710A481FF034FF97E740F2191107485F
:1037B0001FF02EFF94E784F8503020461FF076FF6C
:1037C00094E70120704700BF003001403C15060817
:1037D0002DE9F04184B004460D4690461E468368AC
:1037E00013B1B3F5004F1AD194F85030012B00F00B
:1037F000CB80012384F85030FDF756FB074694F840
:103800005130DBB2012B10D00223012284F8512069
:10381000002284F85020184604B0BDE8F08140F240
:10382000C5115A481FF0F4FEDEE7002D00F0A48019
:10383000B8F1000F00F0A280032384F85130002378
:1038400063652563A4F83480A4F83680A363A38756
:10385000E38763642364A368B3F5004F1BD0236838
:103860001A6812F0400F03D11A6842F040021A6041
:10387000E368B3F5006F14D063681BB1E38E9BB2AD
:10388000012B3ED1236815F8012B1A73E38E013BFF
:103890009BB2E38635E02268136843F480431360EB
:1038A000DDE763681BB1E38E9BB2012B0DD123686A
:1038B00035F8022BDA60E38E013B9BB2E38604E02D
:1038C000002E5DD0B6F1FF3F0FD1E38E9BB27BB3EC
:1038D00023689A6812F0020FF2D035F8022BDA60F2
:1038E000E38E013B9BB2E386EFE7FDF7DDFAC01BF9
:1038F000B042EAD3032388E7002E43D0B6F1FF3F5E
:103900000FD1E38E9BB29BB123689A6812F0020F2D
:10391000F2D015F8012B1A73E38E013B9BB2E386BC
:10392000EFE7FDF7C1FAC01BB042EAD303236CE70F
:1039300000973346012202212046FFF717FE08B107
:10394000032362E73A4631462046FFF75AFE034614
:1039500018B120236365012357E7A26832B90392A7
:103960002268D168039192680392039A626D002ADB
:103970003FF44BAF012348E7012346E7012344E727
:10398000032342E7032340E7022344E73C150608EC
:103990002DE9F04385B004460F46164699460C9D26
:1039A0008368F3B994F85030012B00F013810123A0
:1039B00084F85030FDF778FA804694F85130DBB245
:1039C0006268012B1BD0B2F5827F10D00223012246
:1039D00084F85120002284F85020184605B0BDE834
:1039E000F08340F23A317C481FF012FEDAE7A26819
:1039F000002A40F0E780042B01D00223E7E7002FE4
:103A000000F0E280002E00F0E180B9F1000F00F03C
:103A1000DF8094F85130DBB2012B2BD0002363659B
:103A2000A663A4F83E90A4F83C902763A4F83690CF
:103A3000A4F834902364636423681A6812F0400F7A
:103A400003D11A6842F040021A60E368B3F5006FD0
:103A500014D063681BB1E38E9BB2012B07D123689E
:103A600017F8012B1A73E38E013B9BB2E3864FF0EC
:103A7000010961E0052384F85130CFE763681BB189
:103A8000E38E9BB2012B07D1236837F8022BDA6053
:103A9000E38E013B9BB2E3864FF0010913E0E38F15
:103AA0009BB26BB123689A6812F0010F08D0DB68F3
:103AB00026F8023BE38F013B9BB2E3874FF00109FD
:103AC000B5F1FF3F1CD1E38E9BB21BB9E38F9BB2D4
:103AD000002B55D0B9F1000FE1D0E38E9BB2002B43
:103AE000DDD023689A6812F0020FD8D037F8022B85
:103AF000DA60E38E013B9BB2E3864FF00009CEE72C
:103B0000FDF7D2F9A0EB0800A842DCD303235EE75F
:103B1000E38F9BB26BB123689A6812F0010F08D053
:103B2000DB683370E38F013B9BB2E38701364FF0D4
:103B30000109B5F1FF3F1BD1E38E9BB213B9E38FAF
:103B40009BB2EBB1B9F1000FE2D0E38E9BB2002B38
:103B5000DED023689A6812F0020FD9D03A781A732F
:103B6000E38E013B9BB2E38601374FF00009CFE7BC
:103B7000FDF79AF9A0EB0800A842DDD3032326E75E
:103B8000CDF800802B46012202212046FFF7EEFCF3
:103B900008B103231BE7424629462046FFF731FDC3
:103BA000034618B120236365012310E7A268002AA9
:103BB0007FF40DAF03922268D1680391926803925B
:103BC000039A04E7022302E7012300E70123FEE64C
:103BD0000123FCE6022300E73C15060870B4036AE3
:103BE00023F001030362036A4268846924F07304CA
:103BF0000D6845EA040623F002048B6823430B4D4D
:103C0000A84206D0426086614A684263036270BC83
:103C1000704723F00803CC68234323F0040322F405
:103C200040724C6914438A692243EBE7000001406B
:103C300010B4036A046A24F001040462846924F065
:103C4000F00444EA021223F00A030B438261036288
:103C50005DF8044B704710B4036A23F0100303624D
:103C60008469036A24F4704444EA023223F0A00316
:103C700043EA0113826103625DF8044B7047836875
:103C800023F0700341F0070119438160704710B4BD
:103C9000846824F47F4442EA03230B432343836074
:103CA0005DF8044B704700002DE9F04104460E46D4
:103CB000036A23F480730362056A4768C36923F0CB
:103CC00073080B6843EA080825F400758B6845EA19
:103CD00003251D4B984207D06760C4F81C807368A9
:103CE000E3632562BDE8F081CB680BB1082B19D1E5
:103CF000B369B3F5007F00D0D3B97369B3F5807FA2
:103D000000D0DBB925F40065F36845EA032525F406
:103D1000806527F44057736947EA0317B36947EA98
:103D20000317D9E741F2173108481FF071FCDFE7AC
:103D300041F2183105481FF06BFCDEE741F2193102
:103D400002481FF065FCDDE700000140741506081D
:103D50002DE9F04104460F46036A23F480530362C1
:103D6000056AD0F80480C66926F4E6460B6846EA80
:103D7000032625F400558B6845EA03350D4B984220
:103D800007D0C4F80480E6617B6823642562BDE83F
:103D9000F0814B69B3F5807F00D02BB928F48048BF
:103DA0007B6948EA8318ECE741F25D3102481FF075
:103DB0002FFCF3E70000014074150608704700006F
:103DC00038B590F83830012B00F070820D4604466B
:103DD000012380F83830022380F839300B68B3F5BE
:103DE000805F11D0B3F5005F0ED06BB1102B0BD0FC
:103DF000202B09D0302B07D0402B05D0502B03D0DF
:103E0000602B01D0702B4AD12268936823F47F4342
:103E100023F0770393602B68402B00F0BF8144D9D7
:103E2000702B00F0058100F28F80502B00F0648130
:103E3000602B40F0F6802368AD4A934217D0B3F16F
:103E4000804F14D0A2F57C42934210D002F58062DC
:103E500093420CD002F58062934208D002F59A3268
:103E6000934204D040F6C471A2481FF0D1FB6B68A6
:103E7000B3F5004F05D023B1022B02D00A2B40F03E
:103E80008181EB680F2B00F28381EA686968206802
:103E9000FFF7E1FE60212068FFF7F1FEC1E040F688
:103EA000777194481FF0B4FBAEE7102B00F0BC8193
:103EB00026D9202B00F0D981302B40F0B280236826
:103EC0008B4A934217D0B3F1804F14D0A2F57C42B5
:103ED000934210D002F5806293420CD002F58062CA
:103EE000934208D002F59A32934204D040F6F27120
:103EF00080481FF08DFB30212068FFF7C0FE90E066
:103F0000002B40F08E802368794A934217D0B3F19A
:103F1000804F14D0A2F57C42934210D002F580620B
:103F200093420CD002F58062934208D002F59A3297
:103F3000934204D04FF47E616E481FF069FB00216C
:103F40002068FFF79CFE6CE0B3F5805F40D0B3F5CE
:103F5000005F66D12368664A934213D0B3F1804F65
:103F600010D0A2F57C4293420CD002F580629342BD
:103F700008D002F58062934204D040F6A4715D48F7
:103F80001FF046FB6B68B3F5004F05D023B1022B41
:103F900002D00A2B40F09980AB684BB1B3F5805F3B
:103FA00006D0B3F5005F03D0B3F5405F40F09380D7
:103FB000EB680F2B00F29580EB686A68A9682068AF
:103FC000FFF765FE2268936843F48043936028E01E
:103FD0002368474A93421FD0B3F1804F1CD0A2F50B
:103FE0007C42934218D002F58062934214D002F5CD
:103FF0008062934210D002F59A3293420CD002F5BF
:104000008062934208D002F58062934204D040F669
:10401000837138481FF0FCFA2268936823F0070385
:104020009360012384F83930002084F8380038BDCB
:1040300023682F4A934213D0B3F1804F10D0A2F5DA
:104040007C4293420CD002F58062934208D002F584
:104050008062934204D040F68C7126481FF0D8FA53
:104060006B68B3F5004F04D01BB1022B01D00A2BB3
:1040700019D1AB6843B1B3F5805F05D0B3F5005FEC
:1040800002D0B3F5405F14D1EB680F2B17D8EB6863
:104090006A68A9682068FFF7FAFD2268936843F010
:1040A00077039360BDE740F68E7112481FF0B0FAB7
:1040B000DFE740F68F710F481FF0AAFAE4E74FF4EC
:1040C00079610C481FF0A4FAE1E740F6A6710948AF
:1040D0001FF09EFA60E740F6A77106481FF098FAB5
:1040E00066E740F6A87103481FF092FA64E700BF44
:1040F000000001407415060823686D4A93421FD0E2
:10410000B3F1804F1CD0A2F57C42934218D002F547
:104110008062934214D002F58062934210D002F57F
:104120009A3293420CD002F58062934208D002F595
:104130008062934204D040F6B6715E481FF068FA80
:104140006B68B3F5004F04D01BB1022B01D00A2BD2
:104150000CD1EB680F2B0FD8EA6869682068FFF76D
:1041600067FD50212068FFF78AFD5AE740F6B971D4
:1041700050481FF04DFAECE740F6BA714D481FF079
:1041800047FAE9E740F6C7714A481FF041FA78E676
:1041900040F6C87147481FF03BFA76E62368444A68
:1041A00093421FD0B3F1804F1CD0A2F57C429342C2
:1041B00018D002F58062934214D002F580629342D7
:1041C00010D002F59A3293420CD002F580629342ED
:1041D00008D002F58062934204D040F6D27135488F
:1041E0001FF016FA6B68B3F5004F04D01BB1022B19
:1041F00001D00A2B0CD1EB680F2B0FD8EA68696845
:104200002068FFF715FD40212068FFF738FD08E71B
:1042100040F6D57127481FF0FBF9ECE740F6D67160
:1042200024481FF0F5F9E9E72368214A934217D0A3
:10423000B3F1804F14D0A2F57C42934210D002F526
:10424000806293420CD002F58062934208D002F55E
:104250009A32934204D040F6E67116481FF0D8F91E
:1042600010212068FFF70BFDDBE62368104A93421C
:1042700017D0B3F1804F14D0A2F57C42934210D0F6
:1042800002F5806293420CD002F58062934208D01E
:1042900002F59A32934204D040F6EC7105481FF0C3
:1042A000B7F920212068FFF7EAFCBAE60220BEE653
:1042B00000000140741506080368234A90420ED09E
:1042C000B0F1804F0BD0A2F57C42904207D002F5AE
:1042D0008062904203D002F58062904203D123F0C5
:1042E00070034A681343184A90421AD0B0F1804FC5
:1042F00017D0A2F57C42904213D002F58062904222
:104300000FD002F5806290420BD002F59A329042B3
:1043100007D002F58062904203D002F5806290429D
:1043200003D123F44073CA68134303608B68C362EC
:104330000B688362044B984202D0012343617047AB
:104340000B690363F9E700BF00000140002855D066
:1043500010B5044603682A4A93421ED0B3F1804F39
:104360001BD0A2F57C42934217D002F580629342A3
:1043700013D002F5806293420FD002F59A32934235
:104380000BD002F58062934207D002F5806293421F
:1043900003D0D7211B481FF03BF9A3683BB1102B7A
:1043A00005D0202B03D0402B01D0602B16D12369E0
:1043B0002BB1B3F5807F02D0B3F5007F13D194F811
:1043C0003930ABB1022384F83930211D2068FFF762
:1043D00073FF012384F83930002010BDD82109482B
:1043E0001FF016F9E3E7D92106481FF011F9E6E7B7
:1043F00084F8383020461FF0D1FAE3E701207047F7
:104400000000014074150608002858D010B5044675
:1044100003682C4A93421FD0B3F1804F1CD0A2F501
:104420007C42934218D002F58062934214D002F588
:104430008062934210D002F59A3293420CD002F57A
:104440008062934208D002F58062934204D040F229
:10445000F1311D481FF0DCF8A3683BB1102B05D0EB
:10446000202B03D0402B01D0602B16D123692BB118
:10447000B3F5807F02D0B3F5007F14D194F83930C2
:10448000BBB1022384F83930211D2068FFF714FFE7
:10449000012384F83930002010BD40F2F2310A487F
:1044A0001FF0B6F8E2E740F2F33107481FF0B0F82A
:1044B000E4E784F838302046FFF780FCE1E701208C
:1044C000704700BF00000140741506082DE9F04157
:1044D00004460F46036A23F010030362056AD0F80E
:1044E0000480866926F4E6460B6846EA032625F032
:1044F00020058B6845EA0315124B984207D0C4F893
:104500000480A6617B68A3632562BDE8F081CB6867
:104510000BB1082B0FD125F08005FB6845EA031588
:1045200025F0400528F440687B6948EA8308BB69A8
:1045300048EA8308E3E741F2052103481FF068F8E1
:10454000E9E700BF000001407415060890F8383014
:10455000012B00F00B8170B516460D460446012371
:1045600080F838303AB1042A05D0082A03D00C2A42
:1045700001D0182A1AD12B68602B01D0702B1BD1C7
:10458000AB680BB1022B1DD12B690BB1042B1FD1D2
:10459000022384F839300C2E57D8DFE806F01F5676
:1045A00056565D5656568E565656BA0040F64841F7
:1045B0006F481FF02DF8DEE740F649416C481FF0C8
:1045C00027F8DDE740F64A4169481FF021F8DBE7AC
:1045D00040F64B4166481FF01BF8D9E72368654A4F
:1045E00093421FD0B3F1804F1CD0A2F57C4293427E
:1045F00018D002F58062934214D002F58062934293
:1046000010D002F59A3293420CD002F580629342A8
:1046100008D002F58062934204D040F653415448DA
:104620001EF0F6FF29462068FFF7D8FA2268936942
:1046300043F0080393612268936923F004039361B4
:104640002268936929690B439361012384F8393007
:10465000002084F8380070BD2368464A934217D082
:10466000B3F1804F14D0A2F57C42934210D002F5F2
:10467000806293420CD002F58062934208D002F52A
:104680009A32934204D040F6624139481EF0C0FF8E
:1046900029462068FFF71AFF2268936943F40063F4
:1046A00093612268936923F480639361226893691C
:1046B000296943EA01239361C7E723682D4A93429E
:1046C00013D0B3F1804F10D0A2F57C4293420CD0AE
:1046D00002F58062934208D002F58062934204D0D2
:1046E00040F6714122481EF093FF29462068FFF7EB
:1046F000DBFA2268D36943F00803D3612268D369E7
:1047000023F00403D3612268D36929690B43D36181
:104710009BE72368174A934213D0B3F1804F10D020
:10472000A2F57C4293420CD002F58062934208D0FD
:1047300002F58062934204D04FF448610C481EF0A9
:1047400067FF29462068FFF703FB2268D36943F41B
:104750000063D3612268D36923F48063D361226844
:10476000D369296943EA0123D3616EE702207047C8
:10477000741506080000014038B504460D4603686C
:104780002E4A934213D0B3F1804F10D0A2F57C4251
:1047900093420CD002F58062934208D002F5806209
:1047A000934204D040F24A6125481EF031FF2B6845
:1047B0006BB1102B0BD0202B09D0302B07D0402B06
:1047C00005D0502B03D0602B01D0702B27D16B6804
:1047D000802B00D04BBB94F83830012B2BD001221A
:1047E00084F83820022384F8393021684B6823F09C
:1047F00070034B6021684B68286803434B60216855
:104800008B6823F080038B6021688B6868680343A2
:104810008B6084F83920002084F8380038BD40F2DD
:104820004B6107481EF0F4FED1E740F24C610448AA
:104830001EF0EEFECFE70220F0E700BF00000140CF
:10484000AC1506080268D36823F49073D36002683D
:10485000536923F001035361202380F83A307047F5
:1048600090F83930DBB2212B2AD18368B3F5805F11
:1048700016D0036A5A1C02621A7803685A60C38C05
:10488000013B9BB2C384EBB90268D36823F0800379
:10489000D3600268D36843F04003D36000207047C0
:1048A000036A1B880268C3F30803536003691BB9DA
:1048B000036A02330362E2E7036A01330362DEE75D
:1048C00002207047002070472DE9F84304464268F3
:1048D000B44B9A4200F29C80E3681BB1B3F5005FD1
:1048E00040F09C80236933B1B3F5806F03D0B3F5FA
:1048F000C06F40F0998063694FF6F372134200D1A4
:1049000023B940F68811A8481EF082FE21680A6982
:1049100022F44052E36813430B612168CA6822F411
:10492000164222F00C02A368206903436069034326
:10493000E06903431343CB6021684A6922F4407263
:10494000A36913434B61E369B3F5004F72D0236849
:10495000964A934200F02E8102F58062934200F065
:104960002981FEF7E3FD00EB800000EB8000656825
:10497000AD00B0FBF5F58E4FA7FB05356D092E0197
:10498000FEF7D4FD00EB800000EB80006568AD0011
:10499000B0FBF5F9FEF7CAFD00EB800000EB8000EC
:1049A0006568AD00B0FBF5F5A7FB05356D094FF067
:1049B000640808FB15952D013235A7FB05356D09F7
:1049C00005F0F0053544FEF7B1FD00EB800000EB8B
:1049D00080006668B600B0FBF6F6FEF7A7FD00EBB8
:1049E000800000EB800063689B00B0FBF3F0A7FB46
:1049F0000030400908FB10684FEA081808F1320837
:104A0000A7FB0837C7F3431723682F449F6027E1AC
:104A100040F6851164481EF0FBFD5DE740F6861107
:104A200061481EF0F5FD5DE740F687115E481EF017
:104A3000EFFD60E723685D4A93425BD002F5806238
:104A4000934257D0FEF772FD00EB800000EB800030
:104A500065686D00B0FBF5F5554FA7FB05356D0991
:104A60002E01FEF763FD00EB800000EB800065681F
:104A70006D00B0FBF5F9FEF759FD00EB800000EB8F
:104A8000800065686D00B0FBF5F5A7FB05356D0985
:104A90004FF0640808FB1595ED003235A7FB05358E
:104AA0006D096D0005F4F8753544FEF73FFD00EB28
:104AB000800000EB800066687600B0FBF6F6FEF73B
:104AC00035FD00EB800000EB800063685B00B0FB0D
:104AD000F3F3A7FB03235B0908FB13684FEAC8083D
:104AE00008F13208A7FB0837C7F3421723682F44A1
:104AF0009F60B5E0FEF72AFD00EB800000EB800030
:104B000065686D00B0FBF5F5294FA7FB05356D090C
:104B10002E01FEF71BFD00EB800000EB80006568B6
:104B20006D00B0FBF5F9FEF711FD00EB800000EB26
:104B3000800065686D00B0FBF5F5A7FB05356D09D4
:104B40004FF0640808FB1595ED003235A7FB0535DD
:104B50006D096D0005F4F8753544FEF7F7FC00EBC0
:104B6000800000EB800066687600B0FBF6F6FEF78A
:104B7000EDFC00EB800000EB800063685B00B0FBA5
:104B8000F3F3A7FB03235B0908FB13684FEAC8088C
:104B900008F13208A7FB0837C7F3421723682F44F0
:104BA0009F605DE0A037A000E815060800100140F6
:104BB0001F85EB51FEF7CAFC00EB800000EB800084
:104BC0006568AD00B0FBF5F5264FA7FB05356D090F
:104BD0002E01FEF7BBFC00EB800000EB8000656857
:104BE000AD00B0FBF5F9FEF7B1FC00EB800000EB87
:104BF00080006568AD00B0FBF5F5A7FB05356D09D4
:104C00004FF0640808FB15952D013235A7FB0535DB
:104C10006D0905F0F0053544FEF798FC00EB8000C7
:104C200000EB80006668B600B0FBF6F6FEF78EFC7F
:104C300000EB800000EB800063689B00B0FBF3F0AA
:104C4000A7FB0030400908FB10684FEA081808F17C
:104C50003208A7FB0837C7F3431723682F449F6028
:104C6000BDE8F8831F85EB51002877D010B50446C6
:104C700083690BB303683A4A93420CD0A2F54C42C5
:104C8000934208D002F55042934204D04FF4807111
:104C900034481EF0BDFCA369FBB1B3F5807F1CD086
:104CA000B3F5007F19D0B3F5407F16D040F2011163
:104CB0002C481EF0ADFC10E00368294A93420CD04A
:104CC000A2F54C42934208D002F55042934204D0E0
:104CD00040F2051123481EF09BFCA36813B1B3F505
:104CE000805F29D1E36913B1B3F5004F2AD194F85D
:104CF00039306BB3242384F839302268D36823F425
:104D00000053D3602046FFF7DFFD2268136923F4C8
:104D1000904313612268536923F02A035361226888
:104D2000D36843F40053D3600020E063202384F869
:104D3000393084F83A3010BD40F2071109481EF0AE
:104D400067FCCFE74FF4847106481EF061FCCEE7A4
:104D500084F8383020461EF0E5FECBE7012070478E
:104D600000100140E8150608002868D038B5044650
:104D70000D460368334A93420CD0A2F54C4293424D
:104D800008D002F55042934204D040F277112E48E9
:104D90001EF03EFC0DB1202D39D1A368002B3CD173
:104DA000E369002B3FD194F83930002B41D0242304
:104DB00084F839302268D36823F40053D360204646
:104DC000FFF782FD2268136923F4006313612268F0
:104DD000536923F02A0353612268136943F4804323
:104DE00013612268136923F0200313612368196992
:104DF0000D431D612268D36843F40053D360002043
:104E0000E063202384F8393084F83A3038BD4FF419
:104E1000BC710D481EF0FCFBBFE740F279110A4857
:104E20001EF0F6FBBCE74FF4BD7107481EF0F0FB27
:104E3000B9E784F8383020461EF074FEB7E7012049
:104E4000704700BF00100140E815060808B310B510
:104E500004460368104A93420CD0A2F54C42934298
:104E600008D002F55042934204D04FF4FC710B4835
:104E70001EF0CEFB242384F8393020461EF0A4FE19
:104E80000020E06384F8390084F83A0084F83800A0
:104E900010BD0120704700BF00100140E815060852
:104EA00090F83930DBB2202B16D1B9B1C2B190F8ED
:104EB0003830012B16D001628284C2840023C36380
:104EC000212280F8392080F838300168CA6842F021
:104ED0008002CA6018467047022070470120704760
:104EE000012070470220704790F83A30DBB2202B47
:104EF0001BD1E1B1EAB190F83830012B1BD08162AF
:104F00008285C2850023C363222280F83A2080F87C
:104F1000383001684A6942F001024A610168CA6892
:104F200042F49072CA601846704702207047012010
:104F30007047012070470220704708B50168CB68B0
:104F400023F04003CB60202380F839300AF0AAFA1E
:104F5000002008BD08B590F83A30DBB2222B40D1D2
:104F60008368B3F5805F0ED0036903BB03685A689A
:104F7000836A591C81621A70C38D013B9BB2C38541
:104F8000F3B100202EE0826A036943B903685B68CD
:104F9000C3F308031380836A02338362ECE7036878
:104FA0005B68DBB21380836A01338362E4E70368E2
:104FB0005B68826A511C816203F07F031370DBE738
:104FC0000268D36823F49073D3600268536923F0B6
:104FD00001035361202380F83A300AF029FA0020B7
:104FE00000E0022008BD000010B504460268136806
:104FF000D168526913F00F0005D113F0200F02D0D1
:1050000011F0200F53D1002867D012F0010202D115
:1050100011F4907F61D013F0010F06D011F4807F5E
:1050200003D0E06B40F00100E06313F0040F04D004
:105030001AB1E06B40F00200E06313F0020F04D0FD
:105040001AB1E06B40F00400E06313F0080F04D0E5
:105050001AB1E26B42F00802E263E26B002A48D028
:1050600013F0200F02D011F0200F24D123685B69C8
:1050700003F04003E26B12F0080F00D13BB320466F
:10508000FFF7E0FB23685A6912F0400F1BD05A6902
:1050900022F040025A61636B8BB11A4A1A65606B49
:1050A000FCF7A6F928B3606B036D984721E0204612
:1050B000FFF750FF1DE02046FFF74CFFD6E72046E4
:1050C0000AF0D3F915E020460AF0CFF911E02046A6
:1050D0000AF0CBF90023E3630BE013F0800F02D05A
:1050E00011F0800F06D113F0400F02D011F0400FE5
:1050F00004D110BD2046FFF7B3FBFAE72046FFF7C7
:105100001CFFF6E70951010808B5806B0023C38531
:10511000C3840AF0AAF908BD7047000010B5044620
:105120000268D36823F49073D3600268536923F054
:105130000103536103685A6912F0400F18D05A698D
:1051400022F040025A61436B53B10D4A1A65406B1D
:10515000FCF74EF910B1606B036D9847002010BD4D
:105160000023C385202380F83A30FFF7D5FFF5E709
:105170000023C385202380F83A30FFF7CDFFEDE709
:105180008551010808B5806B0023C385202380F872
:105190003A30FFF7C1FF08BD84B010B5044603A83C
:1051A00080E80E00089B012B20D1A36B23F48033F1
:1051B000A363E36823F4840323F04003E360E3681C
:1051C00023F44013E3600F9B012B0AD0204600F02C
:1051D00005FD069B012B14D00020BDE8104004B053
:1051E0007047E36843F48013E360EFE7E36843F05C
:1051F0004003E360204600F0F1FC4FF48033A363EA
:10520000E7E7A36843F00603A360A36843F0200325
:10521000A360E1E7836843F00103836000207047E7
:10522000836823F0010383600020704708B5C368DA
:1052300023F0C043C360012909D019B9C36843F002
:105240008043C3603220FBF735FE002008BDC368F1
:1052500043F00053C360F5E784B0F8B5044607A8EF
:1052600080E80E00119FBFB9A36B43F40013A36342
:1052700025460023C4F8003E04F50066D4F8003843
:10528000C4F800380C9B012B10D1099B4BB90021AD
:10529000204600F0AFF80DE0A36B43F40023A363B6
:1052A000E6E70121204600F0A5F803E003212046AF
:1052B00000F0A0F81021204600F076F8204600F01B
:1052C00087F80023336173614FF0FF32B261F361FD
:1052D00008E04FF09040C2F8000900220A61FF2266
:1052E0008A600133079999420BD905EB431202F505
:1052F0001061D2F800090028EBDB0020C2F8000999
:10530000EBE7002308E04FF0904CC2F800CB0022FE
:105310000261FF228260013399420DD905EB4312ED
:1053200002F53060D2F800CBBCF1000FEBDB4FF0A0
:10533000000CC2F800CBEAE7336923F480733361D1
:105340000A9B012B1AD00022A2616FF08042626199
:105350001BB9A36943F01003A361A269104B134367
:10536000A3610D9B1BB1A36943F00803A361012F47
:105370000ED00020BDE8F84004B07047094A3263FF
:10538000326B42F4803242F003023263326BDAE76E
:10539000A36943F0804343F00403A361E9E700BF3E
:1053A00000383C8000018000890141F0200101614A
:1053B00000230133054A934205D8026912F0200FF9
:1053C000F7D1002070470320704700BF400D030055
:1053D0001023036100230133054A934205D8026973
:1053E00012F0100FF7D1002070470320704700BF64
:1053F000400D0300D0F800381943C0F80018002011
:105400007047D0F8083800F5006013F0060F10D090
:10541000836803F00603022B0DD0836803F00603B4
:10542000062B0AD0836803F00603042B07D0002064
:105430007047002070470320704703207047022008
:10544000704730B44B78012B22D0D0F81C380D783F
:105450000122AA4043EA0243C0F81C380B7800EB53
:105460004310D0F8003B13F4004F0ED1D0F8003BAE
:105470008A68C2F30A02C97842EA8142134343F0C0
:10548000805343F40043C0F8003B002030BC704719
:10549000D0F81C280D78AB409BB21343C0F81C38E1
:1054A0000C7800EB4410D0F8003913F4004FECD125
:1054B000D0F800398A68C2F30A02C97842EA814208
:1054C00042EA8452134343F0805343F40043C0F84C
:1054D0000039DAE738B54B78012B36D00B78044623
:1054E00000EB4313D3F8002B22F40042C3F8002B47
:1054F0000B7800EB43134FF00062C3F8002B0B78DE
:1055000000EB43134FF08042C3F8002B002201321E
:105510002B4B9A4252D80B7804EB431303F53063BC
:105520009B6813F0100FF2D1D0F8043843F4806375
:10553000C0F80438D0F81C38097801228A4023EAE0
:105540000243C0F81C38002038BD0B78044600EB3D
:105550004313D3F8002922F40042C3F800290B7842
:1055600000EB43134FF00062C3F800290B7800EB07
:1055700043134FF08042C3F8002900220132104B40
:105580009A4219D80B7804EB431303F510639B6818
:1055900013F0804FF2D10D4604461021FFF704FFAF
:1055A000D4F81C28297801238B409BB222EA0303FC
:1055B000C4F81C380020C7E70320C5E70320C3E771
:1055C000400D030070B582B04B78012B3ED00B78B4
:1055D00000EB4313D3F8104BE40CE404C3F8104B76
:1055E0000B7800EB4313D3F8104B24F0FF5424F452
:1055F000C014C3F8104B4B69002B40F0D4800B78DB
:1056000000EB4313D3F8104B8D68C5F312052C4300
:10561000C3F8104B0B7800EB4313D3F8104B44F452
:105620000024C3F8104B012A00F0DC80CB78012B5A
:1056300000F0DF800B7800EB4310D0F8003B43F024
:105640000443C0F8003B002002B070BD4B696BBB47
:105650000B7800EB4313D3F8104924F0FF5424F4E3
:10566000C014C3F810490B7800EB4313D3F810496A
:1056700044F40024C3F810490B7800EB4313D3F82B
:105680001049E40CE404C3F81049012A54D0CB7843
:10569000012B57D04B69002B54D0D0F834380E78FA
:1056A0000124B4402343C0F834384BE00B7800EBBE
:1056B0004313D3F81049E40CE404C3F810490B7801
:1056C00000EB4313D3F8104924F0FF5424F4C01422
:1056D000C3F810490C7800EB4414D4F810594B6906
:1056E0008E683344013BB3FBF6F34E4E06EAC343E8
:1056F0002B43C4F810390B7800EB4313D3F810494F
:105700004D69C5F312052C43C3F81049CB78012B22
:10571000BBD10B7800EB4313D3F8104924F0C044FD
:10572000C3F810490B7800EB4313D3F8104944F049
:105730000054C3F81049A8E70B7800EB43130C6939
:10574000C3F81449CB78012B14D00B7800EB43132A
:10575000D3F8004944F00444C3F80049CB78012B46
:105760007FF471AF14468B8A0A78C968009400F000
:105770000BF968E7D0F8083813F4807F09D10B786B
:1057800000EB4313D3F8004944F00054C3F8004938
:10579000DBE70B7800EB4313D3F8004944F0805467
:1057A000C3F80049D1E78C682344013BB3FBF4F311
:1057B0000C7800EB4414D4F8105B1A4E06EAC3468A
:1057C0003543C4F8105B0C7800EB4414D4F8106B2C
:1057D0008D689BB205FB03F5C5F312053543C4F88C
:1057E000105B20E7CA680B7800EB4313C3F8142B57
:1057F0001CE7D0F8083813F4807F09D10B7800EB50
:105800004313D3F8002B42F00052C3F8002B11E7EA
:105810000B7800EB4313D3F8002B42F08052C3F80F
:10582000002B07E70000F81F30B44B78012B39D06C
:105830000B7800EB4313D3F8104BE40CE404C3F8EB
:10584000104B0B7800EB4313D3F8104B24F0FF54AC
:1058500024F4C014C3F8104B4B690BB18B684B6137
:105860000B7800EB4313D3F8104B44F40024C3F837
:10587000104B0B7800EB4313D3F8104B8D68C5F336
:1058800012052C43C3F8104B012A76D00B7800EB9D
:105890004310D0F8003B43F00443C0F8003B002025
:1058A00030BC70474B699BBB0B7800EB4313D3F8BC
:1058B000104924F0FF5424F4C014C3F810490B78A5
:1058C00000EB4313D3F8104944F40024C3F8104903
:1058D0000B7800EB4313D3F81049E40CE404C3F84D
:1058E00010490B7800EB4313D3F8004944F004440B
:1058F000C3F80049012A39D04B69002BCFD0D0F82A
:105900003438097801228A401343C0F83438C6E796
:105910000B7800EB4313D3F81049E40CE404C3F80C
:1059200010490B7800EB4313D3F8104924F0FF54CF
:1059300024F4C014C3F810494C698B689C4200D908
