:020000040800F2
:100000000000022091EA0308A9C50308ADC5030852
:10001000B1C50308B5C50308B9C503080000000051
:10002000000000000000000000000000BDC5030843
:10003000C1C5030800000000C5C50308C9C5030801
:10004000E1EA0308E1EA0308E1EA0308E1EA030858
:10005000E1EA0308E1EA0308E1EA0308E1EA030848
:10006000D9C50308E1EA0308E1EA0308E1C503088A
:10007000E1EA0308E1EA0308E1EA0308EDC5030841
:10008000F9C50308E1EA0308E1EA030800000000FB
:10009000000000000000000000000000E1EA03088A
:1000A000E1EA0308E1EA0308E1EA0308E1EA0308F8
:1000B000E1EA0308E1EA0308E1EA0308E1EA0308E8
:1000C000E1EA0308E1EA0308E1EA0308E1EA0308D8
:1000D000E1EA030805C60308E1EA0308000000009E
:1000E000E1EA0308E1EA0308E1EA0308000000008E
:1000F000000000000000000000000000E1EA03082A
:1001000000000000E1EA0308E1EA0308E1EA03086D
:1001100000000000000000000000000000000000DF
:10012000E1EA0308E1EA0308E1EA0308E1EA030877
:10013000E1EA0308000000000000000000000000E9
:1001400000000000000000000000000019C60308C5
:10015000E1EA0308E1EA0308E1EA0308E1EA030847
:10016000E1EA0308E1EA03080000000000000000E3
:10017000000000000000000000000000000000007F
:1001800000000000E1EA0308000000000000000099
:08019000E1EA0308E1EA0308BB
:020000040801F1
:1000000010B5054C237833B9044B13B10448AFF352
:1000100000800123237010BD200600200000000096
:10002000E0F9050808B5034B1BB103490348AFF3DA
:10003000008008BD0000000024060020E0F905084B
:1000400081F0004102E000BF83F0004330B54FEA89
:1000500041044FEA430594EA050F08BF90EA020FF6
:100060001FBF54EA000C55EA020C7FEA645C7FEA89
:10007000655C00F0E2804FEA5454D4EB5555B8BFAC
:100080006D420CDD2C4480EA020281EA030382EA1D
:10009000000083EA010180EA020281EA0303362DAF
:1000A00088BF30BD11F0004F4FEA01314FF4801C82
:1000B0004CEA113102D0404261EB410113F0004F94
:1000C0004FEA03334CEA133302D0524263EB43034B
:1000D00094EA050F00F0A780A4F10104D5F1200EE9
:1000E0000DDB02FA0EFC22FA05F2801841F1000144
:1000F00003FA0EF2801843FA05F359410EE0A5F118
:1001000020050EF1200E012A03FA0EFC28BF4CF048
:10011000020C43FA05F3C01851EBE37101F00045FE
:1001200007D54FF0000EDCF1000C7EEB00006EEB0B
:100130000101B1F5801F1BD3B1F5001F0CD3490895
:100140005FEA30004FEA3C0C04F101044FEA4452EC
:1001500012F5800F80F09A80BCF1004F08BF5FEA73
:10016000500C50F1000041EB045141EA050130BD53
:100170005FEA4C0C404141EB010111F4801FA4F1F6
:100180000104E9D191F0000F04BF01460020B1FA4B
:1001900081F308BF2033A3F10B03B3F120020CDA83
:1001A0000C3208DD02F1140CC2F10C0201FA0CF061
:1001B00021FA02F10CE002F11402D8BFC2F1200CC6
:1001C00001FA02F120FA0CFCDCBF41EA0C0190407C
:1001D000E41AA2BF01EB0451294330BD6FEA0404C5
:1001E0001F3C1CDA0C340EDC04F11404C4F12002B0
:1001F00020FA04F001FA02F340EA030021FA04F3C2
:1002000045EA030130BDC4F10C04C4F1200220FA18
:1002100002F001FA04F340EA0300294630BD21FA56
:1002200004F0294630BD94F0000F83F4801306BF1C
:1002300081F480110134013D4EE77FEA645C18BF10
:100240007FEA655C29D094EA050F08BF90EA020FA7
:1002500005D054EA000C04BF1946104630BD91EA9F
:10026000030F1EBF0021002030BD5FEA545C05D1A2
:100270004000494128BF41F0004130BD14F58004E1
:100280003CBF01F5801130BD01F0004545F0FE4155
:1002900041F470014FF0000030BD7FEA645C1ABF8A
:1002A000194610467FEA655C1CBF0B46024650EAC1
:1002B000013406BF52EA033591EA030F41F40021ED
:1002C00030BD00BF90F0000F04BF0021704730B573
:1002D0004FF4806404F132044FF000054FF0000148
:1002E00050E700BF90F0000F04BF0021704730B509
:1002F0004FF4806404F1320410F0004548BF4042DE
:100300004FF000013EE700BF42004FEAE2014FEA32
:1003100031014FEA02701FBF12F07F4393F07F4F0D
:1003200081F06051704732F07F4208BF704793F010
:100330007F4F04BF41F40021704730B54FF4607423
:1003400001F0004521F000411CE700BF50EA010226
:1003500008BF704730B54FF000050AE050EA0102CF
:1003600008BF704730B511F0004502D5404261EB3F
:1003700041014FF4806404F132045FEA915C3FF480
:10038000D8AE4FF003025FEADC0C18BF03325FEA1D
:10039000DC0C18BF033202EBDC02C2F1200300FACE
:1003A00003FC20FA02F001FA03FE40EA0E0021FAF3
:1003B00002F11444BDE600BF70B54FF0FF0C4CF4E1
:1003C000E06C1CEA11541DBF1CEA135594EA0C0F93
:1003D00095EA0C0F00F0DEF82C4481EA030621EACE
:1003E0004C5123EA4C5350EA013518BF52EA033509
:1003F00041F4801143F4801338D0A0FB02CE4FF0BB
:100400000005E1FB02E506F00042E0FB03E54FF0EA
:100410000006E1FB03569CF0000F18BF4EF0010EE2
:10042000A4F1FF04B6F5007F64F5407404D25FEADE
:100430004E0E6D4146EB060642EAC62141EA555191
:100440004FEAC52040EA5E504FEACE2EB4F1FD0CD3
:1004500088BFBCF5E06F1ED8BEF1004F08BF5FEA51
:10046000500E50F1000041EB045170BD06F0004603
:1004700046EA010140EA020081EA0301B4EB5C04B0
:10048000C2BFD4EB0C0541EA045170BD41F48011A8
:100490004FF0000E013C00F3AB8014F1360FDEBFCD
:1004A000002001F0004170BDC4F10004203C35DAA9
:1004B0000C341BDC04F11404C4F1200500FA05F32C
:1004C00020FA04F001FA05F240EA020001F00042CD
:1004D00021F0004110EBD37021FA04F642EB060143
:1004E0005EEA430E08BF20EAD37070BDC4F10C046D
:1004F000C4F1200500FA04F320FA05F001FA04F231
:1005000040EA020001F0004110EBD37041F100011C
:100510005EEA430E08BF20EAD37070BDC4F1200527
:1005200000FA05F24EEA020E20FA04F301FA05F28F
:1005300043EA020321FA04F001F0004121FA04F237
:1005400020EA020000EBD3705EEA430E08BF20EA07
:10055000D37070BD94F0000F0FD101F00046400041
:1005600041EB010111F4801F08BF013CF7D041EAC3
:10057000060195F0000F18BF704703F000465200C7
:1005800043EB030313F4801F08BF013DF7D043EA98
:100590000603704794EA0C0F0CEA135518BF95EA4E
:1005A0000C0F0CD050EA410618BF52EA4306D1D1D5
:1005B00081EA030101F000414FF0000070BD50EAF4
:1005C000410606BF1046194652EA430619D094EA7E
:1005D0000C0F02D150EA013613D195EA0C0F05D168
:1005E00052EA03361CBF104619460AD181EA0301BC
:1005F00001F0004141F0FE4141F470014FF0000074
:1006000070BD41F0FE4141F4780170BD70B54FF00E
:10061000FF0C4CF4E06C1CEA11541DBF1CEA13558E
:1006200094EA0C0F95EA0C0F00F0A7F8A4EB050470
:1006300081EA030E52EA03354FEA013100F0888067
:100640004FEA03334FF0805545EA131343EA126330
:100650004FEA022245EA111545EA10654FEA0026E5
:100660000EF000419D4208BF964244F1FD0404F59E
:10067000407402D25B084FEA3202B61A65EB0305FA
:100680005B084FEA32024FF480104FF4002CB6EBB7
:10069000020E75EB030E22BFB61A754640EA0C0037
:1006A0005B084FEA3202B6EB020E75EB030E22BF77
:1006B000B61A754640EA5C005B084FEA3202B6EBB8
:1006C000020E75EB030E22BFB61A754640EA9C0077
:1006D0005B084FEA3202B6EB020E75EB030E22BF47
:1006E000B61A754640EADC0055EA060E18D04FEA05
:1006F000051545EA16754FEA06164FEAC30343EAA5
:1007000052734FEAC2025FEA1C1CC0D111F4801F71
:100710000BD141EA00014FF000004FF0004CB6E76A
:1007200011F4801F04BF01430020B4F1FD0C88BF09
:10073000BCF5E06F3FF6AFAEB5EB030C04BFB6EB14
:10074000020C5FEA500C50F1000041EB045170BD07
:100750000EF0004E4EEA113114EB5C04C2BFD4EB34
:100760000C0541EA045170BD41F480114FF0000EB8
:10077000013C90E645EA060E8DE60CEA135594EA34
:100780000C0F08BF95EA0C0F3FF43BAF94EA0C0F37
:100790000AD150EA01347FF434AF95EA0C0F7FF4AC
:1007A00025AF104619462CE795EA0C0F06D152EA00
:1007B00003353FF4FDAE1046194622E750EA4106E4
:1007C00018BF52EA43067FF4C5AE50EA41047FF4F5
:1007D0000DAF52EA43057FF4EBAE12E74FF0FF3C5A
:1007E00006E000BF4FF0010C02E000BF4FF0010C2B
:1007F0004DF804CD4FEA410C7FEA6C5C4FEA430CA4
:1008000018BF7FEA6C5C1BD001B050EA410C0CBFF2
:1008100052EA430C91EA030F02BF90EA020F002054
:10082000704710F1000F91EA030F58BF994208BFBB
:1008300090422CBFD8176FEAE37040F00100704778
:100840004FEA410C7FEA6C5C02D150EA013C07D1CF
:100850004FEA430C7FEA6C5CD6D152EA033CD3D01A
:100860005DF8040B704700BF8446104662468C4614
:100870001946634600E000BF01B5FFF7B7FF002847
:1008800048BF10F1000F01BD4DF808EDFFF7F4FF70
:100890000CBF012000205DF808FB00BF4DF808EDFB
:1008A000FFF7EAFF34BF012000205DF808FB00BF1E
:1008B0004DF808EDFFF7E0FF94BF012000205DF840
:1008C00008FB00BF4DF808EDFFF7CEFF94BF0120F5
:1008D00000205DF808FB00BF4DF808EDFFF7C4FFEE
:1008E00034BF012000205DF808FB00BF4FEA410C37
:1008F0007FEA6C5C02D150EA013C0AD14FEA430C1A
:100900007FEA6C5C02D152EA033C02D14FF0000056
:1009100070474FF0010070474FEA410212F5001294
:1009200015D211D56FF47873B3EB625212D94FEA36
:10093000C12343F0004343EA505311F0004F23FA20
:1009400002F018BF404270474FF00000704750EA75
:10095000013005D111F0004008BF6FF00040704732
:100960004FF00000704700BF4A0011D212F500128C
:1009700011D20DD56FF47873B3EB62520ED44FEAF7
:10098000C12343F0004343EA505323FA02F0704777
:100990004FF00000704750EA013002D14FF0FF30B5
:1009A00070474FF0000070474FEA4102B2F1E04358
:1009B00024BFB3F5001CDCF1FE5C0DD901F0004C46
:1009C0004FEAC0024CEA5070B2F1004F40EB830096
:1009D00008BF20F00100704711F0804F21D113F1C2
:1009E0003872BCBF01F00040704741F480114FEAFB
:1009F0005252C2F11802C2F1200C10FA0CF320FA84
:100A000002F018BF40F001004FEAC1234FEAD323A0
:100A100003FA0CFC40EA0C0023FA02F34FEA43030A
:100A2000CCE77FEA625307D150EA01331EBF4FF093
:100A3000FE4040F44000704701F0004040F0FE40AE
:100A400040F40000704700BF53B94AB9002908BFFD
:100A500000281CBF4FF0FF314FF0FF3000F072B99B
:100A6000ADF1080C6DE904CE00F006F8DDF804E005
:100A7000DDE9022304B070472DE9F047089E0446E3
:100A80008846002B4BD18A42154667D9B2FA82F2CA
:100A90004AB1C2F1200701FA02F320FA07F79540A4
:100AA00047EA030894404FEA154E230CB8FBFEF7C3
:100AB0001FFA85FC0EFB178843EA084307FB0CF17D
:100AC000994209D9EB1807F1FF3080F01B81994258
:100AD00040F21881023F2B445B1AA4B2B3FBFEF034
:100AE0000EFB103344EA034400FB0CFCA44509D977
:100AF0002C1900F1FF3380F00781A44540F20481F6
:100B000002382C4440EA0740A4EB0C0400271EB135
:100B1000D4400023C6E900433946BDE8F0878B4244
:100B200009D9002E00F0EB800027C6E90001384605
:100B30003946BDE8F087B3FA83F7002F47D18B42DF
:100B400002D3824200F2FA80841A61EB030301208F
:100B50009846002EE0D0C6E90048DDE702B9FFDE86
:100B6000B2FA82F2002A40F08F80491B4FEA154EFC
:100B70001FFA85F80127B1FBFEFC230C0EFB1C11AC
:100B800043EA014308FB0CF1994207D9EB180CF139
:100B9000FF3002D2994200F2CD808446591AA3B2A6
:100BA000B1FBFEF00EFB101443EA044408FB00F80E
:100BB000A04507D92C1900F1FF3302D2A04500F25D
:100BC000B6801846A4EB080440EA0C409FE7C7F142
:100BD000200CBB4022FA0CFE4EEA030E01FA07F489
:100BE00020FA0CF521FA0CF34FEA1E482543B3FB1B
:100BF000F8F92C0C08FB19331FFA8EFA44EA034368
:100C000009FB0AF49C4202FA07F200FA07F10BD939
:100C10001EEB030309F1FF3080F087809C4240F215
:100C20008480A9F1020973441B1BADB2B3FBF8F039
:100C300008FB103345EA034400FB0AFAA24508D931
:100C40001EEB040400F1FF336BD2A24569D90238D0
:100C5000744440EA0940A0FB0289A4EB0A044C4515
:100C6000C2464B4654D351D0002E69D0B1EB0A0591
:100C700064EB030404FA0CFCFD40FC404CEA05055F
:100C8000C6E90054002747E7C2F1200320FA03F722
:100C9000954001FA02F021FA03F34FEA154E38436A
:100CA000010CB3FBFEF71FFA85F80EFB173341EA80
:100CB000034107FB08F38B4204FA02F407D96918D1
:100CC00007F1FF3C2FD28B422DD9023F2944CB1A8A
:100CD00081B2B3FBFEF00EFB103341EA034100FB8F
:100CE00008F38B4207D9691800F1FF3C17D28B42F9
:100CF00015D902382944C91A40EA07473BE7374665
:100D0000304609E70746E7E61846FBE64145ABD221
:100D1000B8EB020A69EB0E0201381346A4E76046FD
:100D2000E9E7184695E76746D1E781467CE7023850
:100D30002C4447E7ACF1020C2B442FE7384608E778
:100D40003746E9E6704700BF0000000000000000E1
:100D500001F0FF01102A2BDB10F0070F08D010F86C
:100D6000013B013A8B422DD010F0070F42B3F6D170
:100D7000F0B441EA012141EA014122F007047FF089
:100D800000070023F0E80256083C85EA010586EAE0
:100D9000010685FA47F5A3FA87F586FA47F6A5FA1C
:100DA00087F68EB9EED1F0BC01F0FF0102F0070228
:100DB00032B110F8013B013A83EA010313B1F8D1D3
:100DC0000020704701387047002D06BF35460338B4
:100DD000073815F0010F07D1013015F4807F02BFED
:100DE000013015F4C03F0130F0BC0138704700BF3E
:100DF00010F8012B11F8013B012A28BF9A42F7D0C5
:100E0000D01A7047034613F8012B002AFBD1181A99
:100E10000138704770B50E4B0E4D1B682A78064698
:100E20004FF47A70B0FBF2F0B3FBF0F000F0F6F89C
:100E300008B90F2E01D9012070BD04460246314683
:100E40004FF0FF3000F074F86E60204670BD00BFB8
:100E5000F80200200400002008B50B4B1A6842F489
:100E600000721A601A6842F480621A601A6842F4CA
:100E700080721A60032000F03FF80020FFF7CAFFDD
:100E80002BF048FB002008BD003C0240034A044B05
:100E900011681B780B441360704700BF98E4002072
:100EA00004000020014B1868704700BF98E4002040
:100EB00038B50446FFF7F6FF631C054602D0044B25
:100EC0001B781C44FFF7EEFF401BA042FAD338BD4D
:100ED000040000200048704700040701014B186817
:100EE000000C7047002004E0024B1868C0F30B00B0
:100EF000704700BF002004E0C31E042B10B5044659
:100F000003D9A22108482BF0E9F9084AD3684FF623
:100F1000FF010B40240243F0BF6304F4E06443F498
:100F200000331C43D46010BD38C4060800ED00E057
:100F30000F2A70B5164605460C4629D80F2C2DD819
:100F40001C4BDB68C3F30223C3F10701042903F13F
:100F5000040228BF0421062A17D9033B4FF0FF32B1
:100F60009A4026EA02064FF0FF328A4024EA020243
:100F70009A4032431201002DD2B214DB05F16045D4
:100F800005F5614585F8002370BD00263346EAE784
:100F9000BA2109482BF0A2F90F2CD1D9BB21064860
:100FA0002BF09CF9CCE7054B05F00F052B441A7686
:100FB00070BD00BF00ED00E038C40608FCEC00E0A6
:100FC00010B5041E08DB04F01F0101236409054A63
:100FD0008B4042F8243010BDCE2103482BF07EF91F
:100FE000F1E700BF00E100E038C4060810B5041EB8
:100FF0000ADB6309203304F01F040122054902FAC9
:1010000004F441F8234010BDDE2103482BF066F9BB
:10101000EFE700BF00E100E038C406080138B0F196
:10102000807F0ED2084B10B4084C5860F02084F832
:1010300023000022072110469A6019605DF8044BD6
:1010400070470120704700BF10E000E000ED00E0B5
:10105000042808B511D028B90B4A136823F00403FB
:10106000136008BD40F2D91108482BF037F9064A41
:10107000136823F004031360F3E7034A136843F093
:101080000403136008BD00BF10E000E038C4060888
:10109000704700BF08B5FFF7FBFF08BDF8B5044671
:1010A000FFF700FF002C00F0E4802368B14A934270
:1010B000054631D0183293422ED0183293422BD0AD
:1010C0001832934228D01832934225D018329342D6
:1010D00022D0183293421FD0183293421CD002F50E
:1010E0005672934218D01832934215D01832934258
:1010F00012D0183293420FD0183293420CD01832CB
:10110000934209D01832934206D01832934203D04A
:10111000C82199482BF0E2F8636833F0C06306D029
:10112000B3F1006F03D0C92193482BF0D7F8A3681F
:1011300033F0400202D0802B40F0CB80E36833F4E0
:10114000007340F0A280236933F4806340F0938001
:10115000636933F4006203D0B3F5805F40F0C3806D
:10116000A36933F4005203D0B3F5804F40F0A78059
:10117000E36933F0200206D0B3F5807F03D0CF219E
:101180007D482BF0ABF8236A33F4403303D0D021F1
:1011900079482BF0A3F8636A002B4DD10222236813
:1011A00084F835201A68002122F0010284F83410F6
:1011B0001A6005E0FFF776FE401B052852D8236829
:1011C0001A68D107F6D4D4E90126D4E90351324391
:1011D00060691F682A43D4E906650A430243216A0D
:1011E000664832432A430A43616A3840042942EA86
:1011F000000200F082801A605A6922F0070211434F
:10120000DAB25F485961103AA0FB021212095D4937
:1012100023F47F73895CE16523F00303032A88BF0D
:1012200004333F228A4001250021A36508469A60C5
:10123000616584F83550F8BD042B30D1A36A032BC7
:1012400038D8E36A33F0C07303D0D7214A482BF073
:1012500045F8236B33F4C003A0D0D82146482BF0C7
:101260003DF89BE7032320226265184684F8353059
:10127000F8BD0120F8BDCC213F482BF02FF8636961
:1012800033F400623FF46CAF66E7CB213A482BF0B1
:1012900025F8236933F480633FF45AAFEBE7D1219B
:1012A00035482BF01BF8636A002B3FF477AFA36A35
:1012B000032BC6D9D62130482BF010F8C1E7CE2138
:1012C0002D482BF00BF8E36933F020023FF45BAFBD
:1012D00052E7CA2128482BF001F8E36833F4007381
:1012E0003FF431AFD1E7CD2123482AF0F7FFA369BE
:1012F00033F400523FF43CAF36E7D4E90B0101432D
:101300000A43A56A1A605A6945F0040122F00702EF
:10131000114300283FF474AF8EB1B6F5005F1AD0C8
:10132000022D05D9032D7FF46BAFC2017FF568AFA5
:10133000012340226265184684F83530F8BD012D3E
:1013400004D0F2D3022D7FF45BAFEEE7B0F1C07FA3
:101350007FF456AFECE7032D3FF652AF01A252F8EF
:1013600025F000BF311301082B13010831130108C8
:101370004D1301081060024074C406083F8010F04D
:10138000ABAAAAAAF8F9050890F83530022B03D0C9
:1013900080234365012070470268052380F83530BB
:1013A000136823F00103136000207047F0B583B089
:1013B0000023876D0193C36D3D68654908229A40FB
:1013C0002A4204460E6803D001680868400759D4D1
:1013D00001229A402A4203D021684969080674D440
:1013E00004229A402A4203D021680968890766D4FA
:1013F00010229A402A4203D02168086800074BD483
:1014000020229A402A4214D021680868C00610D5CC
:10141000BA6094F83520052A63D00B6813F4802F46
:101420000B687ED0190340F18980E36B0BB1204635
:101430009847636D23B3636DDA071AD505232268D5
:1014400084F835301368434923F00103A1FB0616E5
:101450001360B60A02E01368DB0704D5019B013371
:10146000B3420193F7D90022012384F8342084F891
:101470003530E36C23B1204603B0BDE8F040184797
:1014800003B0F0BD086820F004000860BA60626D27
:1014900042F0010262659BE7BA600A6812F4802F8D
:1014A0000A6818D1D20503D40A6822F008020A603B
:1014B000226C002AA4D020469047E36DA0E7BA60D2
:1014C000626D42F00402626592E7BA60626D42F0BA
:1014D0000202626584E71103EAD5A26C002AEAD110
:1014E0008EE70A68206C22F016020A604A6922F030
:1014F00080024A6138B30A6822F008020A603F227B
:10150000216D02FA03F300200122BB6084F834004D
:1015100084F835200029B3D0204603B0BDE8F04060
:10152000084713F4807380D10A68012022F010026A
:101530000A6084F8343084F8350076E7636C002B59
:101540007FF475AF75E7A26C002AD4D1D7E700BF4E
:10155000F8020020B5814E1B214BDA68D00605D574
:101560002049CA6910200243CA61D8601C4BDA685E
:10157000910606D51B49CA69202042F00802CA61BB
:10158000D860174BDA68520606D51649CA6940205A
:1015900042F00402CA61D860114BDA68100606D521
:1015A0001049CA69802042F00202CA61D8600C4B1F
:1015B000DA68D10507D50B49CA694FF4807042F04B
:1015C0000102CA61D860064BDA68920706D5054960
:1015D000CA69022042F02002CA61D860704700BF89
:1015E000003C02409CE400202DE9F84F764F3C7E01
:1015F000012C00F09D809B4603284FF0010392468A
:10160000894680463B766BD80023FB61FFF74AFC96
:101610006E4C06464CF2503504E0FFF743FC801B4D
:10162000A84258D8E368D803F7D4E368D90744BF81
:101630000123E360654BDB6813F4F97F55D109F1B1
:101640007843B8F1000F78D0B8F1010F00F08F8027
:10165000B8F1020F4DD0B3F5002F07D309F1604365
:1016600003F50843B3F5047F80F0A280574B1A6955
:1016700022F440721A611A6942F440721A611A69BE
:1016800042F001021A61C9F800A0C9F804B00023B1
:10169000FB61FFF707FC4D4C06464CF2503504E069
:1016A000FFF700FC801BA84245D8E368DA03F7D4B3
:1016B000E368DB0744BF0123E360444BD86810F4C0
:1016C000F97002D0FFF748FF0120404A136923F068
:1016D0000103136100E0032000233B76BDE8F88F8F
:1016E000B4213B482AF0FAFD8EE7FFF735FF0120D1
:1016F000F2E7B3F5002F0BD309F1604303F508437C
:10170000B3F5047F04D340F2932131482AF0E6FD7B
:101710002E4B1A6922F440721A611A6942F400725F
:101720001A611A6942F001021A61C9F800A0AEE715
:101730000220BDE8F88F0320C7E7B3F5002F5FFA5A
:101740008AFA06D309F1604303F50843B3F5047F31
:1017500034D21E4B196921F4407119611A691A615A
:10176000196941F00101196189F800A08FE7B3F50B
:10177000002F1FFA8AFA0BD309F1604303F50843DF
:10178000B3F5047F04D34FF42B7111482AF0A6FD62
:101790000E4B1A6922F440721A611A6942F480727F
:1017A0001A611A6942F001021A61A9F800A06EE7F5
:1017B00040F2772106482AF091FD57E740F2C52113
:1017C00003482AF08BFDC4E79CE40020003C024063
:1017D000ACC40608064B1A69002A01DB00207047DA
:1017E0000449054A59605A601869C00F704700BF24
:1017F000003C024023016745AB89EFCD034A1369E2
:1018000043F0004313610020704700BF003C0240DA
:10181000144B70B500220446DA61FFF743FB124D0A
:101820000646631C0FD1104AD368D803FCD40E4B74
:10183000DA68D20744BF0122DA600B4BD86810F493
:10184000F9700BD170BDEB68D903F0D524B1FFF767
:1018500029FB801BA042E4D9032070BDFFF77CFE6A
:10186000012070BD9CE40020003C02402DE9F04FB7
:10187000784E337E012B83B000F0D3800368019152
:10188000012293428246327600F2BA804CF2503006
:10189000FFF7BEFF8046002840F0AC80019A4FF071
:1018A000FF331360DAF80030012B54D0DAE902B3C9
:1018B0005B445A1E072A00F2BF809B4572D2DFF8B4
:1018C0009C91654C4FEACB052DE0032F37D8002FB4
:1018D00040F0A2803B46226922F4407222612269D4
:1018E00013432361236923F0F8032361236943F041
:1018F00002032B432361236943F4803323614CF2B9
:101900005030FFF785FF236923F0FA032361002895
:1019100040F08D80DAE902230BF1010B13445B45A3
:1019200005F108053ED9BBF1070F9AF81070CCD924
:1019300040F2EB3148462AF0D1FC032FC7D94FF4CF
:101940007B7148462AF0CAFC022F14BF4FF4407343
:101950004FF40073BFE7DAF81050DAF80440EBB246
:10196000032B71D8012C04D040F2CD313B482AF032
:10197000B5FC394C236923F440732361236943F098
:101980000403236122692B0242F480329BB2134389
:1019900023614CF25030FFF73BFF236923F004032F
:1019A000804623612C4B1A6891050FD51A6822F4E2
:1019B00000721A601A6842F400621A601A6822F40F
:1019C00000621A601A6842F400721A60224B1A68A8
:1019D00052050FD51A6822F480621A601A6842F420
:1019E00080521A601A6822F480521A601A6842F40F
:1019F00080621A6000234046337603B0BDE8F08F62
:101A0000BB2116482AF06AFC4CF25030FFF700FF69
:101A100080460028EED141E7012F95D14FF4807325
:101A200059E74FF00208404603B0BDE8F08F019B34
:101A30008046C3F800B0B5E7D32108482AF04EFC31
:101A4000DAE902B35B4438E74FF4737103482AF0D4
:101A500045FC87E79CE40020003C0240E8C40608FF
:101A60002DE9F04F9C4B984283B083468A4617D0AD
:101A700003F58063984213D003F5806398420FD03A
:101A800003F5806398420BD003F58063984207D03A
:101A900003F54063984203D0C32190482AF01EFC0E
:101AA000DAF8003099B2002900F0B6801B0C1B0454
:101AB000002B40F0B180DAF80430032B17D9A3F1E2
:101AC0001101012913D9864823F4001181420ED057
:101AD00000F5801083420AD0A0F57020814206D024
:101AE00080498B4203D0C5217C482AF0F7FBDAF805
:101AF0000830022B00F2E580DFF800924FF000087A
:101B000005E008F10108B8F1100F00F0828001240F
:101B1000DAF8005004FA08F42540AC42F1D1DAF8C2
:101B2000042022F01001022900F092804FEA4807B9
:101B30000326DBF80000BE40F64302F0030330400A
:101B4000BB40013903430129CBF8003069D9DBF8E8
:101B50000C10DAF808300E4003FA07F73743CBF8D9
:101B60000C70D700CDD5604B5B4C00210191596CB6
:101B700041F480415964596C28F0030303F1804318
:101B800001F4804103F59C33019108F003010198B1
:101B90009E6889000F208840A34526EA000012D0E5
:101BA000CB4500F08480514CA34500F08580504C1B
:101BB000A34500F08B804F4CA3450CBF04240724A1
:101BC00004FA01F108434C4998600B684A48E9431C
:101BD000D6034CBF2B430B40036043684648940335
:101BE0004CBF2B430B4043608368D00242484CBF3C
:101BF0002B430B408360C368920254BF01EA030584
:101C00001D4308F101083C4BB8F1100FDD607FF473
:101C10007EAF03B0BDE8F08FC42130482AF05EFBF0
:101C200049E7DAF80C30032B38D8DBF80810BB4052
:101C300031400B43CBF80830DBF80410C2F300133B
:101C400021EA040103FA08F40C43CBF804407EE7D0
:101C5000DAF810300F2B1BD9D72120482AF03EFB91
:101C6000DAF80420DAF8103022F010014FEAD80632
:101C70000BEB860608F00700376A80004FF00F0C68
:101C80000CFA00FC834027EA0C073B4333624DE724
:101C900049F2F770D840C007E8D4DDE7EA210F48E1
:101CA0002AF01CFBDAF80C30DAF80420BDE7012436
:101CB00004FA01F1084386E7022404FA01F108431B
:101CC00081E7C62105482AF009FB15E7032404FA39
:101CD00001F1084377E700BF0000024028C506086D
:101CE00000001110000022100038024000080240DD
:101CF000000C024000100240003C01400004024081
:101D00002DE9F84F4C4B98420446884618D003F50D
:101D10008063984214D003F58063984210D003F595
:101D2000806398420CD003F58063984208D003F595
:101D30004063984204D04FF4A07140482AF0CEFA94
:101D4000DFF8F4B0DFF808E100234FF0010C4FF0AA
:101D5000030A4FF00F0902E00133102B5ED00CFA9A
:101D600003F232EA0801F7D1590020680AFA01F1BA
:101D7000C943DD08084004EB8505206003F0070037
:101D80002E6A800009FA00F026EA00002862A068A6
:101D90000840A0606068D24310406060E56823F0AE
:101DA000030000F18040294000F59C30E16003F021
:101DB00003018568890009FA01F65C4505EA060514
:101DC0002ED01F4FBC422DD01E4FBC422DD01E4FD7
:101DD000BC422ED01D4FBC420CBF0427072707FA78
:101DE00001F18D42B8D1816821EA06068660DEF8ED
:101DF00000101140CEF80010DEF804101140CEF8AB
:101E00000410DEF808101140CEF80810DEF80C10AF
:101E100001330A40102BCEF80C20A0D1BDE8F88F7A
:101E20000021DEE70CFA01F1DBE7022707FA01F1F6
:101E3000D7E70AFA01F1D4E70000024028C50608F6
:101E40000004024000080240000C02400010024062
:101E5000003C014038B505460C4629B12B691C42AF
:101E600014BF0120002038BD4FF4C77101482AF08B
:101E700035FAF3E728C5060870B5064615460C4640
:101E800061B1012D03D805B92404B46170BD4FF4CC
:101E9000D87105482AF022FAB46170BD40F2AF1142
:101EA00001482AF01BFAECE728C50608704700BF76
:101EB000044A5169014200D1704708B55061FFF7EB
:101EC000F5FF08BD003C0140002800F0D780036802
:101ED000724A934270B504460CD002F58062934278
:101EE00008D002F58062934204D04FF4B7716C4879
:101EF0002AF0F4F963686B4A013B934200F2AD802B
:101F0000A36833F4804304D04FF4B87164482AF0D6
:101F1000E5F9E36823F47F7323F00303002B40F01B
:101F20008F80236923F40043B3F5804F04D04FF42E
:101F3000B9715B482AF0D2F96369012B6DD8A369A6
:101F400033F0FE0372D1E36933F0400304D040F272
:101F5000751153482AF0C2F9236A33F0800304D084
:101F60004FF4BB714E482AF0B9F994F83D3003F0B4
:101F7000FF02002B7CD022684B4D242384F83D3097
:101F8000136823F00103136001F01CFFD4E9003152
:101F9000464AA2FB0062920CA9425A6025D8490029
:101FA000B0FBF1F0C0F30B01013203291A6298BFB4
:101FB0000420D4E90725D4E90361D86142EA050089
:101FC000D4E9052531432A4318609960DA6019681D
:101FD000002241F00101202519601046226484F896
:101FE0003D50226384F83E2070BD4FF49675304E0C
:101FF00005FB02F2A6FB02529209A56801321A62A1
:10200000002D3DD101EB4101B0FBF1F0C0F30B021B
:10201000002A41D040F40040CBE740F27311204841
:102020002AF05CF9A36933F0FE038CD04FF4BA7147
:102030001B482AF053F9E36933F040038CD086E75C
:1020400040F2711116482AF049F9236923F400433C
:10205000B3F5804F7FF46BAF6EE740F26F1110481D
:102060002AF03CF9A36833F480433FF452AF4BE7C6
:1020700084F83C2020462AF05DF87CE70120704778
:1020800001EB810101EB8101B0FBF1F0C0F30B0228
:1020900012B140F440408CE701208AE70054004030
:1020A00064C506087F1A0600A086010083DE1B4374
:1020B000D34D62102DE9F047044682B099460F4691
:1020C00090460A9DFEF7EEFE94F83D30202B03D09B
:1020D000022002B0BDE8F087064605E0FEF7E2FE0A
:1020E000801B192800F2C88023689A69D24312F035
:1020F000020AF3D094F83C20012AE9D01A680121A1
:10210000D00784F83C1002D41A680A431A601A688F
:102110009A4922F400621A60212284F83D2010229C
:1021200084F83E2000222264A4F82A90E162618DA6
:10213000E26AC4F82480042A21856BD0012A69D080
:1021400012F5803F66D0226B122A63D06A1C40F0E1
:1021500086805A69D007FCD52269B2F5804F40F0DD
:10216000B98007F0FE071F616A1C04D091E05A692C
:10217000500500F195805A699707F8D50022019221
:102180005A6901929A690192019A228D002A00F0FF
:10219000D1806F1C03D044E05A69510525D45A6997
:1021A0001006F9D5616A208D4A1C62620A781A61AC
:1021B000628D013A92B262855F69421E92B27F07D8
:1021C00022850AD54AB18A1C62624A781A61628DF8
:1021D000013A023892B2208562856F1C30D15A696B
:1021E0005007D2D45A695105F9D500226FF48065A1
:1021F000042020215D61206484F83C20226384F85F
:102200003D10236C042B0AD12268136843F4007339
:1022100013605DE01A6842F480721A6096E703204A
:1022200057E75A691206BDD45A695205DDD4002D0C
:1022300074D0FEF737FE801B85426FD32368A8E772
:102240005A695207A1D45A695205CED4002D65D0DF
:10225000FEF728FE801B854260D32368BDE75A69DC
:10226000D1073FF579AF002D46D0FEF71BFE801B4E
:10227000854241D3236869E720230220C4F830A0B7
:1022800084F83CA084F83D3084F83EA002B0BDE85C
:10229000F0875A6991073FF571AF5A69510535D5F5
:1022A0001A6842F400721A6000216FF480650420FD
:1022B00020225D61206484F83C10216384F83D2075
:1022C000236C236C042B4FF0000384F83C30A6D120
:1022D0000120FEE6FA1102F0060242F0F0021A6155
:1022E000681C03D033E05A695205D9D45A691107E2
:1022F000F9D5FFB21F6137E700232022236384F85A
:102300003C3084F83D2084F83E30DAE76DB3FEF7C8
:10231000C9FD801B854228D3236825E7236C002252
:1023200043F020032021236484F83C20226384F8B6
:102330003D1066E71968202541F4007119601046C8
:1023400084F83D5084F83C2084F83E20C1E65A6968
:102350001007CED45A695205A2D435B1FEF7A2FDBA
:10236000801B854201D32368BAE700232022236320
:1023700084F83C3084F83D20A2E700BF0000FFFF56
:102380002DE9F047044686B099460F4690460E9DCB
:10239000FEF788FD94F83D30202B03D0022006B0D4
:1023A000BDE8F087064604E0FEF77CFD801B192897
:1023B00073D823689A69D24312F0020AF4D094F8D1
:1023C0003C20012AEAD01A680121D00784F83C1089
:1023D00002D41A680A431A601A68984922F4006203
:1023E0001A60222284F83D20102284F83E20002228
:1023F0002264A4F82A90E162608DE16A1A68C4F848
:10240000248042F48062042920851A6034D0012996
:1024100032D011F5803F2FD0226B112A2CD06A1CAC
:102420002FD15A69D007FCD52269B2F5804F5BD114
:1024300047F00102D2B21A616A1C03D08DE15A69D9
:10244000500537D45A699707F9D5228D002A40F0F4
:102450009A8001925A6901929A690192019A1A68C6
:1024600042F400721A600020202384F83D3084F882
:102470003C0084F83E0092E71A6842F480721A60C9
:10248000CDE75A69D107CFD4002D5DD0FEF70AFD04
:10249000801B854258D32368C1E720230220C4F85B
:1024A00030A084F83CA084F83D3084F83EA006B00B
:1024B000BDE8F0871A6842F400721A6000216FF4D8
:1024C0008065042020225D61206484F83C10216333
:1024D00084F83D20236C236C042B4FF0000384F818
:1024E0003C304ED101205AE74FEAE71808F00608C1
:1024F00048F0F0021A61681C03D03FE15A695205A6
:10250000D8D45A691107F9D5FFB21F616A1C03D0EC
:1025100045E15A695005CDD45A699707F9D500228B
:1025200005925A6905929A690592059A1A6842F4C9
:1025300080721A606A1C40F051815A69D707FCD535
:1025400048F0F1021A6177E700232022236384F820
:102550003C3084F83D2084F83E30BCE75A69500690
:102560007AD45A69D10600F1E780236C2022134304
:102570000021236484F83C1084F83D20236C202B38
:10258000B0D103200BE7012A196800F09380022ADA
:1025900000F0158141F480610020196004905969B0
:1025A0000491996904910499032A45D8012A00F0FD
:1025B000B480022A72D0681C40F08B805A6951079F
:1025C000FCD51A68616A22F480621A601B694A1C91
:1025D00062620B70638D228D013B9BB2013A638571
:1025E00022856B1C226840F0808053695F07FCD510
:1025F0001368616A43F40073136013694A1C6262D2
:102600000B70638D228D606A2168013B9BB26385EC
:102610000969531E421C238562620170228D638DFD
:10262000013A013B92B29BB222856385002A3FF4B6
:102630001AAF032A2368B9D95DB98FE70000FFFFFD
:102640005A69D70678D4FEF72DFC801B85428CD3BF
:1026500023685A695206F3D5626A1B69511C61628C
:102660001370618D2368228D013989B261855969A2
:10267000013A92B249072285D8D5626A1B69511C7A
:1026800061621370CAE75A6957070CD4002D37D01E
:10269000FEF708FC801B854232D32368691CF2D107
:1026A0005A695207FCD51A68616A42F400721A60CE
:1026B0001B69A3E721F48061002019600290596929
:1026C0000291996902910299196841F400711960A7
:1026D0006AE75A6952073FF574AF8DB1FEF7E2FB26
:1026E000801B85420CD3236865E7536958073FF583
:1026F0007FAF2DB1FEF7D6FB801B8542BFF471AFD3
:10270000002320220320236384F83C3084F83D20FA
:1027100084F83E3006B0BDE8F0873DB918E0FEF71A
:10272000C1FB801BA8423FF620AF23685A695206BE
:10273000A3D45A69D706F2D500226FF010002021E9
:102740005861226484F83C20226384F83D1015E728
:102750005A6950067FF505AF8FE75A6991073FF533
:1027600074AE5A6951053FF5A5AE002D45D0FEF770
:1027700099FB801B854240D323685DE65A691007A8
:102780003FF5C2AE5A6952053FF594AE002D34D0E4
:10279000FEF788FB801B85422FD32368ABE65A697E
:1027A00091073FF5BCAE5A6951053FF583AE25B39D
:1027B000FEF778FB801B85421FD32368A6E621F431
:1027C000806119601968002041F40061196003906C
:1027D00059690391996903910399E5E65A69D0070C
:1027E0003FF5AEAE002D3FF4AFAEFEF75BFB801BB6
:1027F0008542FFF4A9AE23689CE6002320222363D0
:1028000084F83C3084F83D2064E600BF2DE9F04FA9
:10281000054683B01F468A469346FEF743FB95F86C
:102820003D30202B03D0022003B0BDE8F08F0646D8
:1028300005E0FEF737FB801B192800F2A3802B6808
:102840009A69D24312F00204F3D095F83C20012A91
:10285000E9D01A680121D00785F83C1040F18E803C
:102860001A68634922F400621A602420002285F865
:102870003D000AF0FE0A2A649146E9624FF0A00882
:102880001A6842F480721A607A1C60D15A69D607BD
:10289000FCD5C3F810A0FEF705FB2B680646586967
:1028A0005A6995F83D10800702F48062C9B212D4CB
:1028B0008AB9A0290FD01FB137E062B9A0290AD088
:1028C00085F83D8058695A6995F83D10800702F4F3
:1028D0008062C9B2F1D5202285F83D205A6912F0F4
:1028E000020F1A6867D142F400726FF480611A60B7
:1028F000596105E0FEF7D6FA801B192832D82B68FB
:102900009C69E44314F00204F4D009F10109D945AB
:10291000B6D32022002385F83D2085F83C300120E5
:1029200082E7002AD7D1A029D5D0FEF7BBFA801BB9
:1029300087422B6838BF85F83D8058695A6995F8F9
:102940003D10840702F48062C9B2C4D4E9E75A6931
:10295000D4079ED417B3FEF7A5FA801B87421DD378
:102960002B6891E7202303202C6385F83C4085F8F1
:102970003D3085F83E4003B0BDE8F08F1A680A4349
:102980001A606DE7202302202C6385F83C4085F80F
:102990003D3085F83E4003B0BDE8F08F0023202293
:1029A00003202B6385F83C3085F83D2085F83E30C8
:1029B00003B0BDE8F08F42F4007200211A6001916B
:1029C0005A6901929A690192019A05E0FEF76AFA42
:1029D000801B1928C6D82B689B69DB4313F00204BF
:1029E000F4D02023002085F83D3085F83C001BE71B
:1029F0000000FFFF002800F0D3812DE9F04F0368AD
:102A0000B3F1A04F8BB0044603D09421E54829F0E0
:102A100065FC4FF0030A84F8B9A32046264629F046
:102A2000ADFF206803F0C2FA56F8107B0FCE6D465A
:102A30000FC50FCE0FC596E8030085E8030004F12B
:102A4000040898E80E00384603F04CFA002120688C
:102A500003F0B4FA40F201174FF4807C4FF4817018
:102A600040F203114FF4827240F205130025A4F8DE
:102A700038C0A4F85470A4F87000A4F88C10A4F81E
:102A8000A820A4F8C4304FF4837940F2071E4FF415
:102A9000847C40F209174FF4857040F20B114FF41B
:102AA000867240F20D13A4F8E09084F83B50C4E91C
:102AB0001055E56484F85750C4E91755A56684F8A5
:102AC0007350C4E91E55C4F8845084F88F50C4E98B
:102AD0002555C4F8A05084F8AB50C4E92C55C4F86F
:102AE000BC5084F8C750C4E93355C4F8D85084F8B2
:102AF000E350C4E93A55A4F8FCE0A4F818C1A4F8DE
:102B00003471A4F85001A4F86C11A4F88821C4F819
:102B1000F45084F8FF50C4F80451C4F80851C4F8C4
:102B2000105184F81B51C4F82051C4F82451C4F842
:102B30002C5184F83751C4F83C51C4F84051C4F8C2
:102B4000485184F85351C4F85851C4F85C51C4F842
:102B5000645184F86F51C4F87451C4F87851C4F8C2
:102B6000805184F88B51C4F89051C4F89451C4F842
:102B70009C51A4F8A431276884F8A7514FF00109AB
:102B800002200421052206234FF4877CA4F8C0C14B
:102B9000C4F8AC51C4F8B051C4F8B85184F8C3516A
:102BA000C4F8C851C4F8CC51C4F8D451A4F8F851B1
:102BB000E58784F8FB51C4F80052C4F80452C4F805
:102BC0000C524FF0070BC7F804514FF0080E84F871
:102BD0001752C4F81C52C4F82052C4F82852A4F862
:102BE0001492A4F85A904FF0090CC7F80851A4F8B1
:102BF0003002A4F8760084F83352C4F83852C4F88E
:102C00003C52C4F844520A20C7F80C51A4F84CA214
:102C1000A4F892A084F84F52C4F85452C4F8585201
:102C2000C4F860524FF00E0AC7F81051A4F86812A9
:102C3000A4F8AE1084F86B52C4F87052C4F8745201
:102C4000C4F87C520B21C7F81451A4F88422A4F8CC
:102C5000CA2084F88752C4F88C52C4F89052C4F841
:102C600098520C22C7F81851A4F8A032A4F8E63004
:102C70000D2384F8A352C4F8A852C4F8AC52C4F887
:102C8000B452C7F81C5184F8BF52C4F8C452C4F8F7
:102C9000C852C4F8D052A4F8BCB2A4F802B1C7F824
:102CA0002051A4F8D8E2A4F81EE184F8DB52C4F85D
:102CB000E052C4F8E452C4F8EC5204F1100EC7F824
:102CC0002451A4F8F4C2A4F83AC184F8F752C4F825
:102CD000FC52C4F80053C4F80853C7F82851A4F8AC
:102CE0001003A4F8560184F81353C4F81853C4F819
:102CF0001C53C4F82453C7F82C51A4F82C13A4F87F
:102D0000721184F82F53C4F83453C4F83853C4F8FC
:102D10004053C7F83051A4F84823A4F88E2184F812
:102D20004B53C4F85053C4F85453C4F85C53C7F819
:102D3000345184F86753A4F86433A4F8AA31C4F872
:102D40006C53C4F87053C4F87853C7F8385184F8FA
:102D50008353A4F880A3BEE80F00EC46C4F8885360
:102D6000C4F88C53C4F89453A4F8C6A1C7F83C51D6
:102D7000ACE80F00BEE80F00ACE80F0096E80300D7
:102D80008CE80300384698E80E0003F031F984F827
:102D9000B993206803F09AFC28460BB0BDE8F08F89
:102DA000012070479CC5060890F8B833012B0ED05F
:102DB00010B50123044680F8B833006803F07AFCAC
:102DC000206803F0EBF8002084F8B80310BD02205F
:102DD000704700BF2DE9F04F066887B004463046C3
:102DE00003F0B0FC10B107B0BDE8F08F05462068D5
:102DF00003F078FC0028F6D0206803F073FC10F094
:102E0000020F20681EBF436903F00203436103F011
:102E100069FC10F40027206840F0AA8103F062FCEE
:102E2000430300F1F180D4F800B0584603F05AFC97
:102E30000028C0F21682206803F054FC000548D434
:102E4000206803F04FFCC20472D4206803F04AFCEF
:102E500010F4005F206840F0B08003F043FC10F0F5
:102E6000100F206811D0836923F010038361356A45
:102E7000C5F34343022B05F00F0839D0062B00F0B1
:102E80003182836943F01003836103F02BFC030755
:102E900000F1BC81206803F025FCC60200F1AC8182
:102EA000206803F01FFC850200F1B981206803F05F
:102EB00019FC400000F19F80206803F013FC4107DB
:102EC00091D523685D686A070DD45A682A435A6011
:102ED00089E7D6F80838D90726D42068436903F46F
:102EE00000634361ADE7204629F0D2FD2368ECE79B
:102EF00047F6F0731D42C4D0C8EBC80804EB88083D
:102F0000C5F30A152A463046D8F8041203F07AFBB6
:102F1000D8F80422D8F8103220682A442B44C8F884
:102F20000422C8F81032ACE7204629F089FDD4E726
:102F300006F50068D8F80430206823F0010310215A
:102F4000C8F8043003F00EF9606850B106F510635C
:102F5000FF22013585429A60C3F8082203F120035D
:102F6000F7D14FF0FF33C8F81830D8F81C30226B77
:102F700043F00113C8F81C30002A00F08981D8F80A
:102F8000843043F00B03C8F88430D8F8443043F061
:102F90000B03C8F84430D6F80038217C206823F4AD
:102FA000FE63C6F8003804F56F7203F0EBFB20688F
:102FB000436903F48053436148E703F0C7FB20688B
:102FC000C36823F47053C36003F0DEF8002840F0B8
:102FD0006C812268E060D3684FF4007143F41053B1
:102FE0006161D360204629F01BFD2068436903F42A
:102FF0000053436131E7204629F046FD20684369CC
:1030000003F08043436158E7206803F077FB814673
:10301000002800F08581D4F800B0049506F510630F
:10302000CDE90236A24600275E4607E05FEA59096D
:1030300007F101070AF11C0A00F00F8119F0010FD6
:10304000F4D05FFA87F83046414603F069FBC607C3
:10305000054640F1FA80039B2069012202FA07F13C
:10306000D3F8342822EA0101029AC3F8341802EB9B
:1030700047121346012290429A6004D1DAE91023E4
:103080001344CAF844304146204629F0BBFC21696C
:103090002668012900F0CD80280704D5029B03EBA8
:1030A000471308229A60E90604D5029B03EB4713F5
:1030B00010229A606A0604D5029B03EB4713402254
:1030C0009A60AB0704D5029B03EB471302229A6078
:1030D0002D06ABD5DAE9130C06EB471BDAF84020D6
:1030E000DBF8181905960BF5106BA0EB0C03934257
:1030F0001D4628BF154689B205F1030EB1EB9E0FA0
:1031000029D9604527D930B3DAF844101D4606E0C6
:10311000DAF84C209A421DD9D51ADAF84020237CDF
:103120000093954228BF1546ABB24246304603F0A5
:1031300053FADBF81820DAF84410DAF85030E81CBB
:1031400092B229442B44B2EB900FCAF84410CAF84B
:103150005030DDD82668002D7FF468AF059B012232
:10316000D3F83418BA4021EA0202C3F834285DE7E4
:1031700003F0BCFA8046002800F0D68020680027C3
:1031800006F5306905E05FEA580807F101073FF4EA
:1031900045AE18F0010FF6D05FFA87FB594603F0F1
:1031A000B5FA10F0010F82461ED02369012109EB08
:1031B00047128B42916010D1C7EBC70304EB830326
:1031C0001169D3F80002D3F80422C1F31201411AA5
:1031D0000244C3F81012C3F804225946204629F0CD
:1031E00007FC2169012971D01AF0080F48D11AF0A3
:1031F000100F2CD12068C6E72046F9B229F040FC18
:103200002068436903F4801343614AE6204629F0AD
:1032100003FC2068436903F0080343613BE6204652
:10322000F9B229F029FC2068436903F400134361D3
:103230003DE6002F7FF430AFE36C002B7FF42CAF22
:10324000304604F56F7203F09DFA266824E709EB17
:103250004713102220689A6095E7B346049D039EA9
:10326000E3E5D6F8042822F001022046C6F8042837
:1032700029F0FEFB2068436903F000434361DBE56E
:10328000204629F0AFFB09EB471308229A60AEE70E
:10329000D8F8143043F00B03C8F81430D8F81030C5
:1032A00043F00B03C8F8103075E603224023E260B8
:1032B000636100F081FD454B454A0344934224D8A5
:1032C0002268D36843F47053D3608BE6002F8BD110
:1032D000D4F80C32002B87D104F56F72206803F00C
:1032E00051FA81E7082204F56F713046C8EBC8082F
:1032F00003F088F904EB8802C5F30A13D2F8101220
:1033000020680B44C2F81032BBE5324A32492368C8
:1033100002448A420BD8DA6842F46052DA6061E60D
:103320000746D4F800B080E50746206876E5A0F5AA
:1033300074022A49A2F510528A4204D8DA6842F48B
:103340005052DA604EE6A0F183722549A2F5E742B9
:103350008A4204D8DA6842F44052DA6042E6214AEE
:10336000214902448A4204D8DA6842F43052DA60D1
:1033700038E61E4A1E4902448A4204D8DA6842F4FA
:103380002052DA602EE61B4A1B4902448A4204D8C6
:10339000DA6842F41052DA6024E6A0F1B7721749F5
:1033A000A2F558528A4204D8DA6842F40052DA6030
:1033B00018E6134A134902448A42DA6894BF42F479
:1033C000E05242F4C052DA600CE600BF405327FFDF
:1033D000FF340C00401E1BFF3F420F007F4F1200C6
:1033E0001FD6130060B6E5FE5FE3160000D3CEFEE5
:1033F0003F771B00C05BB3FEBF9121001F753800F3
:10340000E05459FEDF9C410090F8B833012B0BD0FB
:1034100010B50123044680F8B833006803F03AF988
:10342000002084F8B80310BD0220704770B50C0668
:1034300001F07F0524D4C1EBC10400EB84041C26F9
:1034400006FB0101002684F8F851C4F8002284F834
:10345000FB3184F8F96101F5FC71022B04BF0023F4
:103460000B7190F8B833012B1CD00123044680F86F
:10347000B833006802F0A4FE002084F8B80370BDE1
:10348000C5EBC50400EB84041C2101FB050122648B
:10349000012284F8385084F83B30E58784F83920DD
:1034A0003831DAE7022070BD4BB2002B10B501F0C5
:1034B0007F0216DB1C2404FB010101F5FC71DB0F0C
:1034C0004B700A7090F8B833012B15D001230446D5
:1034D00080F8B833006802F0B3FE002084F8B80327
:1034E00010BD1C2101FB02013831DB0F4B700A704B
:1034F00090F8B833012BE9D1022010BD38B501F0A6
:103500007F05C5EBC50400EB84040021C4F8042248
:10351000C4F8101284F8F911C4F80C3284F8F85188
:1035200003691C2101FB0501012B08BFC4F8082217
:1035300001F5FC710068DAB21DB102F0DFFE002077
:1035400038BD02F0C5FF002038BD00BF01F00F01FB
:10355000C1EBC10100EB8101B1F81002704700BF5F
:1035600070B501F07F05C5EBC50400EB84040121B3
:103570000026626484F83910E36484F838502665C4
:1035800003691C2101FB0501012B08BFA26438312E
:103590000068DAB21DB102F0B1FE002070BD02F089
:1035A00097FF002070BD00BF38B54BB2002B01F073
:1035B0007F0522DB1C2202FB010101F5FC71DB0F00
:1035C00001224B700D708A7090F8B833934219D075
:1035D000044680F8B823006803F028F81DB10020E5
:1035E00084F8B80338BD04F56F72217C206803F0BD
:1035F000C9F8002084F8B803F4E71C2101FB050199
:103600003831DCE7022038BD38B54BB2002B01F071
:103610007F0218DB1C2404FB010101F5FC71DB0FA8
:1036200000254B700A708D7090F8B833012B0FD0C5
:103630000446012380F8B833006803F013F884F8D7
:10364000B853284638BD1C2101FB02013831E6E79A
:10365000022038BD30B4056812046C6AC9B1AB6A87
:10366000013904EB13440CD000231846403005EB1D
:10367000800001334068DBB28B4204EB10441846F3
:10368000F4DB403105EB810114434C60002030BC79
:1036900070471443AC62002030BC704703680020C0
:1036A00059627047002800F0CC812DE9F041036891
:1036B0000F2B82B0044600F23881DD073AD56368EB
:1036C00033F4803206D0B3F5A02F03D0FD21B248E9
:1036D00028F004FEB14A936803F00C03042B00F0B9
:1036E0007581936803F00C03082B00F06B8163680D
:1036F000B3F5803F00F07481B3F5A02F00F0048291
:10370000A64D2A6822F480322A602A6822F4802298
:103710002A60002B40F06981FDF7C4FB064605E0F6
:10372000FDF7C0FB801B642800F27D812B689B03A2
:10373000F6D423689F0700F1C9801A0718D563697A
:10374000012B00F21F81002B00F00C81944B934D54
:1037500001221A60FDF7A6FB064605E0FDF7A2FB75
:10376000801B022800F25F816B6F9B07F6D52368F0
:103770005D0745D5A368012B06D9052B04D04FF46E
:10378000CE71854828F0AAFD844A136C13F080534B
:1037900040F05F810193136C43F080531364136C0A
:1037A00003F080530193019B01267E4D2A68D005CA
:1037B00040F12981A368012B00F04D81052B00F019
:1037C000AD81764D2A6F22F001022A672A6F22F01E
:1037D00004022A67002B40F04381FDF763FB41F2AE
:1037E0008837804606E0FDF75DFBA0EB0800B84295
:1037F00000F219812B6F9B07F5D4002E40F0558104
:10380000A369022B00F2D480002B5BD0634A91683D
:1038100001F00C01082900F09B80022B40F063812D
:10382000E36933F4800304D04FF4F4715A4828F06C
:1038300055FD236A3F2B00F25081636AC03BF02B99
:1038400000F24581A26A082A00F235814FF4AA737A
:10385000D340D80740F12F81E36A023B0D2B00F2E1
:103860003081514B4D4D00221A60FDF71BFB06467F
:1038700005E0FDF717FB801B022800F2D4802B68BF
:103880009901F6D4D4E90736D4E90902E16A434C38
:10389000334343EA8013520843EA0163013A424941
:1038A00043EA024301226B600A60FDF7FBFA05461A
:1038B00005E0FDF7F7FA401B022800F2B480236808
:1038C0009A01F6D5002002B0BDE8F081E368012B33
:1038D00042D823691F2B00F2B680304B9A6812F051
:1038E0000C0F2ED09A6802F00C02082A26D0E3684A
:1038F000002B00F0C9802D4B284D01221A60FDF7E6
:10390000D1FA064605E0FDF7CDFA801B022800F249
:103910008A802B689807F6D52B68226923F0F80374
:1039200043EAC2032B60236807E7F8211A4828F00E
:10393000D5FC2368DD077FF5FDAEC0E65B685E025F
:10394000D5D4164B1B689D0771D5E368012B6ED04B
:10395000012002B0BDE8F08140F22F110E4828F09E
:10396000BDFCB6E70E4A0D4D1360FDF79BFA064607
:1039700004E0FDF797FA801B022854D86B6F9F076D
:10398000F7D4F4E64FF4B871034828F0A7FC636954
:10399000002BE7D0DAE600BFD4C5060800380240A5
:1039A000800E4742007000406000474200004742DE
:1039B00040F2DF115E4828F091FCA369002B7FF4F0
:1039C00025AF7FE7536858027FF591AE594B1B68CE
:1039D00099037FF5AEAE6368002B7FF4AAAEB7E71C
:1039E000544A136843F480331360FDF75BFA514D7A
:1039F000064604E0FDF756FA801B642813D82B68AE
:103A00009A03F7D595E62A6842F480722A60FDF79A
:103A100049FA07462B68D9053FF5CCAEFDF742FAC7
:103A2000C01B0228F6D9032002B0BDE8F081414A4C
:103A30002169136823F0F80343EAC1031360236884
:103A40007BE6012070474FF49871394828F046FC16
:103A500043E70026A9E6374A136F43F001031367D3
:103A6000FDF720FA334D804641F2883705E0FDF737
:103A700019FAA0EB0800B842D5D82B6F9A07F6D5F3
:103A8000002E3FF4BDAE10E02B4A2A4D1360FDF727
:103A900009FA064604E0FDF705FA801B0228C2D8A1
:103AA0002B689907F7D4236847E6224A136C23F062
:103AB00080531364A4E640F2EB111D4828F00EFC7D
:103AC000CAE64FF4F6711A4828F008FCC9E64FF42C
:103AD000F571174828F002FCB4E640F2E9111448E9
:103AE00028F0FCFBA9E6154B002119601446FDF7F0
:103AF000D9F9054604E0FDF7D5F9401B022892D814
:103B000023689B01F7D4DDE60A4B1A6842F4802251
:103B10001A601A6842F480321A6066E7054B1A6F21
:103B200042F004021A671A6F42F001021A6797E71F
:103B3000D4C50608003802400000474260004742F2
:103B4000174908B58B6803F00C03042B1BD0082B16
:103B500017D14A684B6813F4800302F03F0214D176
:103B600049681048C1F38811A1FB0001FCF76CFF04
:103B70000B4B5B68C3F3014301335B00B0FBF3F015
:103B800008BD084808BD084808BD4B680648C3F38F
:103B90008813A3FB00010023FCF756FFE8E700BFF2
:103BA000003802400024F40000127A00002800F0DF
:103BB000F0800368013B0E2B2DE9F04104460D46D1
:103BC00000F2D180072D00F2C180764A136803F01D
:103BD0000F03AB4209D2EBB21370136803F00F036B
:103BE000AB4202D00120BDE8F081236898072CD5B4
:103BF000590704D56C498A6842F4E0528A601A0772
:103C000004D569498A6842F460428A60A16831F04B
:103C1000800214D021F02002902A10D021F040021E
:103C2000A02A0CD021F01002C02A08D0F02906D01A
:103C30004FF41D715D4828F051FBA16823685A4874
:103C4000826822F0F0020A438260DF0728D56368A9
:103C5000032B00F29780012B00F08E809A1E012A20
:103C6000514A126840F299809107BBD54E4EB26816
:103C700022F003021343B360FDF714F941F28837D1
:103C8000804606E0FDF70EF9A0EB0800B84200F20E
:103C90008280B368626803F00C03B3EB820FF1D14A
:103CA000404A136803F00F03AB4206D9EBB213701E
:103CB000136803F00F03AB4294D123685A0718D559
:103CC000E16831F480520ED021F40062B2F5A05FB9
:103CD00009D0B1F5C05F06D040F2B921334828F0D1
:103CE000FDFAE16823683048826822F4E0520A4312
:103CF00082601B0718D5226932F480530DD022F45C
:103D00000063B3F5A05F08D0B2F5C05F05D04FF4F3
:103D10003071264828F0E2FA226923498B6823F49F
:103D2000604343EAC2038B60FFF70AFF1E4B204942
:103D30009B68204AC3F30313CB5C20FA03F30020F3
:103D40001360FDF767F80020BDE8F08140F25121D3
:103D5000164828F0C3FA134A136803F00F03AB4266
:103D6000FFF439AF41E74FF41471104828F0B6FA68
:103D7000072D7FF62AAFE9E70B4A126896033FF555
:103D800075AF2FE740F27B21084828F0A7FA636857
:103D900061E701207047032025E790013FF566AFFA
:103DA00020E700BF003C024000380240D4C50608AE
:103DB000B8C30608F8020020014B1868704700BF1E
:103DC000F8020020044B054A9B680549C3F382238F
:103DD0000868D35CD840704700380240C8C3060862
:103DE000F8020020044B054A9B680549C3F342339F
:103DF0000868D35CD840704700380240C8C3060842
:103E0000F8020020002800F09C800368674A934273
:103E100070B5044614D0A2F57842934210D002F552
:103E2000806293420CD002F57842934208D002F5AA
:103E3000E052934204D04FF487715D4828F04EFA67
:103E400063681BB1B3F5827F40F08E80A36833F4C2
:103E5000806203D0B3F5004F40F09180E36833F403
:103E6000006377D1A36933F4007203D0B3F5802FD8
:103E700040F09080E36933F0180306D0202B04D083
:103E800040F213114A4828F029FA236A33F08003DC
:103E900004D04FF48A71464828F020FA636A002B58
:103EA0003DD0102B33D194F85120002002F0FF01B7
:103EB000A062002A47D0D4E90135D4E903212B437D
:103EC00013436269E569266A0B431343A2692168BB
:103ED0002B43022584F85150334302F400750E68D9
:103EE0002B43120C656A02F0040203432A4326F0B6
:103EF00040060E600B604A60CB69002223F4006329
:103F00000125CB611046626584F8515070BD40F2C6
:103F10001511274828F0E2F9636A002BC3D1236901
:103F200033F0020304D04FF48C71214828F0D6F905
:103F30006369012BB7D940F219111D4828F0CEF959
:103F4000B1E701207047204684F8501028F018FA95
:103F5000A06AB0E740F21111154828F0BFF9A36933
:103F600033F4007286D081E740F20F11104828F038
:103F7000B5F9A36833F480623FF470AF6AE74FF499
:103F800088710B4828F0AAF9E36833F400633FF422
:103F900069AFDFE74FF48971054828F09FF9E369BD
:103FA00033F018033FF471AF68E700BF0030014001
:103FB0000CC606082DE9F0410D4681681E4631F415
:103FC000004382B00446174604D040F2C5119E4813
:103FD00028F084F994F85030012B6FD0012384F835
:103FE0005030FCF75FFF804694F85100C0B20128C2
:103FF00009D002200122002384F8512084F8503097
:1040000002B0BDE8F081002DF4D0002FF2D0A268FC
:1040100023682563032184F85110B2F5004F4FF057
:1040200000016165A163A187C4E91011E786A78635
:10403000E187194603D11A6842F480421A601A686F
:1040400050063FD5E2686068B2F5006F00F0B080BE
:10405000002851D115F8012B1A73E28E2368013A1A
:1040600092B2E2861946701C31D0002E52D0E28EF8
:1040700092B272B19A68910755D4FCF713FFA0EB86
:10408000080086424DD9E28E236892B21946002A72
:10409000F0D1771C51D19A689507FCD59A68110622
:1040A000FCD4A2682AB90192DA6801929B68019354
:1040B000019B606D003018BF01209BE7022002B019
:1040C000BDE8F0811A6842F040021A60BAE7E28E59
:1040D00092B2002ADDD09A689207F8D515F8012B24
:1040E0001A73E28E2368013A92B2E286E28E92B2AD
:1040F0001946002AEFD1CCE7E28E92B2012AB2D162
:10410000A8E715F8012B1A73E28E2368013A92B2E0
:10411000E2861946E28E92B2002ABAD09A689707D0
:10412000EFD4032066E715F8012B1A73E28E23689B
:10413000013A92B2E286194699E79A68900713D439
:10414000002E00F08C80FCF7ADFEA0EB080086424C
:1041500040F28480236819469BE7FCF7A3FEA0EB9E
:1041600008008642236804D99A68120699D5002E61
:10417000F3D15A68616822F0E002B1F5827F5A609B
:1041800000F09280A26AB2F5005F08D11A684DF67D
:10419000FF710A401A601A6842F400521A60012046
:1041A00084F85100636D202213436365626521E743
:1041B00000284BD0E28E92B2012A47D0771C16D04D
:1041C000002E2FD0E28E92B2002A3FF462AF9A689E
:1041D000900731D4FCF766FEA0EB08008642A0D918
:1041E000E28E236892B21946002AF0D151E7E28E9E
:1041F00092B2002A3FF44DAF9A689207F7D535F88E
:10420000022BDA60E28E013A92B2E286E28E92B23C
:10421000002AF1D13DE735F8022BDA60E28E013A4F
:1042200092B2E286E28E92B2002A3FF432AF9A68EE
:1042300092077FF576AFEEE735F8022BDA60E28E73
:10424000013A92B2E286BDE70CC6060835F8022BA9
:10425000DA60E28E013A92B2E286AFE721684B68FB
:10426000626823F0E003B2F5827F4B6010D0A36A4E
:10427000B3F5005F08D10B684DF6FF7213400B6079
:104280000B6843F400530B60012384F8513048E776
:10429000A368B3F5004F02D0B3F5806FE7D10B6888
:1042A00023F040030B60E2E7A268B2F5004F03D0B1
:1042B000B2F5806F7FF466AF1A6822F040021A6090
:1042C00060E700BF2DE9F0410E46816882B00446E8
:1042D00015461F4600297BD194F85030012B00F081
:1042E0008180012384F85030FCF7DCFD94F85130D4
:1042F0006268DBB2012B804611D0B2F5827F09D013
:1043000002200122002384F8512084F8503002B0AA
:10431000BDE8F081A1680029F2D1042BF0D1002E74
:1043200064D0002D62D0002F60D094F85130012B62
:1043300004BF052384F85130002123686165E787B5
:10434000E7861868A563C4E910114106A7872663AC
:10435000A78603D4196841F040011960E168B1F5FE
:10436000006F6AD0002A00F0C880E28E92B2012A63
:1043700000F0C380089B013340F0C780236801210F
:10438000E28E92B21AB9E28F92B2002A40D071B195
:10439000E28E92B25AB19A68970708D532781A73AA
:1043A000E28E2368013A92B20136E2860021E28F62
:1043B00092B2002AE4D09A68D007E1D5DB682B706E
:1043C000E28F2368013A92B20135E2870121D7E7F3
:1043D00040F23A31954827F081FF94F85030012B94
:1043E0007FF47FAF022002B0BDE8F081012088E7B2
:1043F000996888075CD4089B002B00F0F280FCF7DA
:1044000051FD089BA0EB0800834240F2E98023683D
:10441000089901311A46EBD19A689507FCD59A683C
:104420001106FCD4A068002840F0D8800190DA681A
:1044300001929B680193019B63E7002A00F096803C
:10444000E28E92B2012A00F09180089A013240F087
:1044500095800121E28E92B21AB9E28F92B2002ABF
:10446000D6D069B1E28E92B252B19A68970707D559
:1044700036F8022BDA60E28E013A92B2E28600212F
:10448000E28F92B2002AE5D09A68D007E2D5DA68C6
:1044900025F8022BE28F013A92B2E2870121D9E797
:1044A000FCF700FD089BA0EB08008342236805D9B8
:1044B0009A681206B6D5089A002AF1D15A6861683E
:1044C00022F0E002B1F5827F5A6000F0B180A26A6A
:1044D000B2F5005F08D11A684DF6FF710A401A6004
:1044E0001A6842F400521A60012084F85100636D8A
:1044F000202213436365626503E716F8012B1A73E4
:10450000E38E013B9BB2E38634E70127E38E9BB247
:1045100023B9E38F9BB2002B3FF479AF77B1E38EE1
:104520009BB25BB123689A68910707D532781A73FA
:10453000E38E013B9BB20136E3860027E38F9BB2FB
:104540005BB123689A68D20707D5DB682B70E38FCD
:10455000013B9BB20135E3870127FCF7A3FC089BD5
:10456000A0EB08008342D1D80320CAE636F8022B1C
:10457000DA60E28E013A92B2E28666E70127E38EC4
:104580009BB223B9E38F9BB2002B3FF440AF77B1CE
:10459000E38E9BB25BB123689A68910707D536F822
:1045A000022BDA60E38E013B9BB2E3860027E38FA8
:1045B0009BB25BB123689A68D20707D5DB6825F800
:1045C000023BE38F013B9BB2E3870127FCF76AFCC8
:1045D000089BA0EB08008342D1D8C5E7002090E6F5
:1045E00022685368616823F0E003B1F5827F53606D
:1045F00010D0A36AB3F5005F08D113684DF6FF71C0
:104600000B401360136843F400531360012384F8D4
:104610005130A9E7A368B3F5004F02D0B3F5806F1E
:10462000E7D1136823F040031360E2E70CC60608E5
:10463000A268B2F5004F03D0B2F5806F7FF447AFA8
:104640001A6822F040021A6041E700BF036A274A55
:104650002DE9F041044623F4807388680F46096809
:104660002362256AD4F80480E66925F4007526F0F3
:104670007306944245EA002546EA010607D07B68A6
:10468000C4F80480E661E3632562BDE8F081FB685D
:1046900033F0080316D1BB6933F400731FD1796975
:1046A00031F4807314D1FA68BB6925F4006528F4ED
:1046B000405845EA022548EA031825F4806548EA8F
:1046C0000118DCE741F21731094827F007FEE2E75D
:1046D00041F21931064827F001FE7969E3E741F21A
:1046E0001831034827F0FAFDD9E700BF0000014068
:1046F00044C6060800287BD003684B4A934270B535
:1047000004461ED0B3F1804F1BD0A2F57C429342E9
:1047100017D002F58062934213D002F58062934273
:104720000FD002F59A3293420BD002F58062934289
:1047300007D002F58062934203D0D7213B4827F08F
:10474000CDFDA36833F0100209D023F04002202AE7
:1047500005D0402B03D0D821344827F0BFFD236972
:1047600033F4807202D0B3F5007F51D194F8393020
:1047700003F0FF022BB323682B48E568616802222F
:1047800084F8392083421A6834D0B3F1804F1ED0A8
:10479000A0F57C4083421AD000F58060834216D099
:1047A00000F58060834212D000F59A30834212D027
:1047B00000F5806083420ED000F5806083420ED108
:1047C00009E084F83820204627F0BEFFD3E7A06830
:1047D00022F070020243206922F4407202431A6000
:1047E000DD62996201225A61002084F8392070BD8F
:1047F00001207047A668206922F07002324322F43B
:10480000407202431A60DD62996262691A63E9E7E5
:10481000D921064827F062FD94F8393003F0FF02F1
:10482000002BA8D1CDE700BF0000014044C6060818
:10483000704700BF00287DD003684C4A934270B592
:1048400004461FD0B3F1804F1CD0A2F57C429342A6
:1048500018D002F58062934214D002F58062934230
:1048600010D002F59A3293420CD002F58062934246
:1048700008D002F58062934204D040F2F1313C4806
:1048800027F02CFDA36833F010020AD023F0400279
:10489000202A06D0402B04D040F2F231344827F0D1
:1048A0001DFD236933F4807202D0B3F5007F51D12E
:1048B00094F8393003F0FF022BB323682B48E568E6
:1048C0006168022284F8392083421A6834D0B3F137
:1048D000804F1ED0A0F57C4083421AD000F5806046
:1048E000834216D000F58060834212D000F59A30E2
:1048F000834212D000F5806083420ED000F58060C4
:1049000083420ED109E084F838202046FFF790FF5B
:10491000D3E7A06822F070020243206922F44072BB
:1049200002431A60DD62996201225A61002084F814
:10493000392070BD01207047A668206922F07002FE
:10494000324322F4407202431A60DD629962626966
:104950001A63E9E740F2F331054827F0BFFC94F809
:10496000393003F0FF02002BA7D1CCE70000014053
:1049700044C6060890F83830012B00F06B81F0B582
:104980000123182A83B015460E46044680F83830B5
:1049900000F28280B04BD340DB077DD5336823F033
:1049A0001003602B04D040F64941AC4827F096FC38
:1049B000B36833F0020304D040F64A41A74827F019
:1049C0008DFC336933F0040304D040F64B41A34817
:1049D00027F084FC022384F839300C2D54D8DFE80A
:1049E00015F0A4005300530053000D005300530072
:1049F0005300EC0053005300530061002568984BAE
:104A00009D4218D0B5F1804F15D0A3F57C439D424F
:104A100011D003F580639D420DD003F580639D4264
:104A200009D003F59A339D4205D040F662418B4888
:104A300027F054FC25682A6AD6F808C030688849EF
:104A400022F010022A622F6A6A68AB6927F02007F9
:104A500023F4E6438D4247EA0C1743EA002300F0B3
:104A60000D81294670686A60AB61A8632F628A690C
:104A7000306942F400628A618A6922F480628A6144
:104A80008B6943EA00238B610020012384F83930CD
:104A900084F8380003B0F0BD40F648416F4827F075
:104AA0001DFC7BE725686E4B9D4214D0B5F1804F0D
:104AB00011D0A3F57C439D420DD003F580639D4248
:104AC00009D003F580639D4205D04FF448616348E7
:104AD00027F004FC25682A6AD6F808C030686049C7
:104AE00022F480522A622B6A6A68EF6923F4005329
:104AF00027F4E6478D4243EA0C3347EA002700F0EB
:104B0000B380294670686A60EF6128642B62CA69C5
:104B1000306942F40062CA61CA6922F48062CA61E3
:104B2000CB6943EA0023CB61AEE723684C4DAB422F
:104B300000F0D180B3F1804F69D04A4A934266D0E9
:104B400002F58062934262D002F5806293425ED0A9
:104B500002F59A3293425AD002F58062934256D0BF
:104B600002F58062934252D040F653413B4827F011
:104B7000B5FB2368D6F808C01A6A306822F0010233
:104B80001A621A6A5F68996922F0020221F07301C1
:104B9000AB4242EA0C0241EA000149D1D6E90535AF
:104BA000F06822F00802024327F4407743EA050048
:104BB00022F004022A4B07433AE02068284B98422F
:104BC00014D0B0F1804F11D0A3F57C4398420DD0A2
:104BD00003F58063984209D003F58063984205D0BD
:104BE0001E4840F6714127F079FB20683146FFF7F7
:104BF0002DFD23683069D96941F00801D961D9696F
:104C000021F00401D961DA690243DA613CE7186AEC
:104C1000D6F808C0356820F0010018621A6A5F688B
:104C2000996922F0020221F0730142EA0C02294341
:104C300070685F60996158631A629969306941F0E0
:104C400008019961996921F0040199619A69024307
:104C50009A6119E7022070471111000144C6060845
:104C60000000014000040040706930F4807126D1DA
:104C7000294622F4804242EA801243E7F06830F08D
:104C8000080110D1294627F0800747EA001770690C
:104C90008446B06922F440624CEA000027F04007E5
:104CA00042EA8002DEE641F205211348CDE9002305
:104CB00027F014FBF0682168DDE90023E3E741F207
:104CC0005D310D48CDE9002327F008FB70692168AC
:104CD000DDE90023CDE71A6A22F001021A621A6A9E
:104CE0005F689969B068336822F0020221F07301AD
:104CF0000243194352E700BF44C6060890F8383013
:104D0000012B00F096810A6870B502230D46B2F5BA
:104D1000805F4FF00101044680F8381080F8393088
:104D20003FD0B2F5005F72D032F0300340F0B8806F
:104D30002368996821F47F4121F07701402A996026
:104D400000F0E28100F2B680102A00F0798140F292
:104D50004382202A00F04A81302A51D1B64A934238
:104D600018D0B3F1804F15D0A2F57C42934211D0F8
:104D700002F5806293420DD002F58062934209D021
:104D800002F59A32934205D040F6F271AB4827F013
:104D9000A5FA23689A6822F0700242F037029A60FE
:104DA0002EE003689A6822F47F4222F077029A602C
:104DB000A14A934220D0B3F1804F1DD0A2F57C428E
:104DC000934219D002F58062934215D002F58062B9
:104DD000934211D002F59A3293420DD002F58062CF
:104DE000934209D002F58062934205D040F6837168
:104DF000924827F073FA23689A6822F007029A60B3
:104E00000123002084F8393084F8380070BD03682D
:104E10009A6822F47F4222F077029A60864A93428F
:104E200013D0B3F1804F10D0A2F57C4293420CD046
:104E300002F58062934208D002F58062934204D06A
:104E400040F6A4717D4827F049FA6B68B3F5004F2E
:104E500009D033F0020206D00A2B04D040F6A67126
:104E6000764827F03BFAAB6833F4405304D040F661
:104E7000A771724827F032FAE8680F2800F2908193
:104E80002268AB6891686D6821F47F412B430B4326
:104E900043EA00239360936843F480439360AFE751
:104EA000402B3FF445AF40F67771644827F016FA7F
:104EB0002A683DE7702A00F0E68000F2BA81502AA5
:104EC00047D0602A9CD15C4A934217D0B3F1804FFF
:104ED00014D0A2F57C42934210D002F58062934236
:104EE0000CD002F58062934208D002F59A329342C8
:104EF00004D040F6C471514827F0F0F96B68B3F55F
:104F0000004F09D033F0020206D00A2B04D040F63D
:104F1000C7714A4827F0E2F9EE680F2E00F282814D
:104F200023686D68186A20F01000186299691A6A7F
:104F300021F4704122F0A00242EA051241EA063152
:104F400099611A629A6822F0700242F067029A60D0
:104F500056E7394A93421FD0B3F1804F1CD0A2F5D7
:104F60007C42934218D002F58062934214D002F53D
:104F70008062934210D002F59A3293420CD002F52F
:104F80008062934208D002F58062934204D040F6DA
:104F9000B6712A4827F0A2F96B68B3F5004F09D023
:104FA00033F0020206D00A2B04D040F6B971234830
:104FB00027F094F9EE680F2E00F2F98023686968F3
:104FC000186A1D6A25F001051D629A6920F00A0021
:104FD00022F0F00242EA061201439A6119629A68CD
:104FE00022F0700242F057029A6009E7124A934297
:104FF00018D0B3F1804F15D0A2F57C42934211D066
:1050000002F5806293420DD002F58062934209D08E
:1050100002F59A32934205D040F6EC71074827F02A
:105020005DF923689A6822F0700242F027029A60C4
:10503000E6E60220704700BF0000014044C60608B3
:10504000804A934218D0B3F1804F15D0A2F57C422C
:10505000934211D002F5806293420DD002F5806236
:10506000934209D002F59A32934205D040F6E67198
:10507000754827F033F923689A6822F0700242F0ED
:1050800017029A60BCE66F4A934213D0B3F1804F87
:1050900010D0A2F57C4293420CD002F5806293427C
:1050A00008D002F58062934204D040F68C716648C5
:1050B00027F014F96B68B3F5004F09D033F0020202
:1050C00006D00A2B04D040F68E715F4827F006F90F
:1050D000AB6833F4405304D040F68F715A4827F040
:1050E000FDF8E8680F2869D82268AB6891686D6898
:1050F00021F47F412B430B4343EA002393609368E1
:1051000043F0770393607BE64E4A93421FD0B3F19E
:10511000804F1CD0A2F57C42934218D002F58062E9
:10512000934214D002F58062934210D002F59A3275
:1051300093420CD002F58062934208D002F580625F
:10514000934204D040F6D2713F4827F0C7F86B680D
:10515000B3F5004F09D033F0020206D00A2B04D079
:1051600040F6D571384827F0B9F8EE680F2E2CD8E4
:1051700023686968186A1D6A25F001051D629A692D
:1051800020F00A0022F0F00242EA061201439A617E
:1051900019629A6822F0700242F047029A602FE684
:1051A000294840F6A87127F099F8E86868E640F6C3
:1051B000BA71254827F092F8EE68FFE622484FF4CE
:1051C000796127F08BF8E8688EE740F6D6711E48C3
:1051D00027F084F8EE68CBE7002A7FF411AE194A75
:1051E000934218D0B3F1804F15D0A2F57C42934280
:1051F00011D002F5806293420DD002F58062934295
:1052000009D002F59A32934205D04FF47E610E48E0
:1052100027F064F823689A6822F0700242F00702CF
:105220009A60EDE540F6C871074827F057F8EE6838
:1052300076E6B2F5805F3FF4BBADB2F5005F7FF478
:10524000DFADEBE50000014044C606082A4A0368CA
:10525000934270B504460D4613D0B3F1804F10D081
:10526000A2F57C4293420CD002F58062934208D0B2
:1052700002F58062934204D040F24A611F4827F051
:105280002DF82B6833F0300306D0402B04D040F2C9
:105290004B611A4827F022F86B6833F080031FD166
:1052A00094F83830012B24D02368022284F8392066
:1052B000586820F07000D5E90026586059681143FD
:1052C0005960996821F0800199609A680021012550
:1052D00032439A60084684F8395084F8381070BD1B
:1052E00040F24C61054826F0F9FF94F83830012B64
:1052F000DAD1022070BD00BF000001407CC6060864
:105300002DE9F8434268C14B9A42044600F23481C9
:10531000E36833F4005304D040F68611BC4826F00D
:10532000DDFF236933F4806203D0B3F5C06F40F032
:10533000298160694FF6F37318427CD100287AD036
:105340002268E5681169A368266921F44051294360
:105350001161D168E56921F41641334321F00C0154
:105360002B430B430343D3605369A16923F4407378
:105370000B43B5F5004F5361A64B00F0A1809A4254
:1053800060D003F580639A425CD0FEF71BFDA24F0C
:10539000636800EB800000EB80009B00B0FBF3F340
:1053A000A7FB03235B091D01FEF70CFD666800EBFC
:1053B000800000EB8000B600B0FBF6F6FEF702FDC1
:1053C000636800EB800000EB80009B00B0FBF3F310
:1053D000A7FB03235B094FF0640909FB13631B015F
:1053E0003233A7FB03235B0903F0F006FEF7EAFC68
:1053F000626800EB800000EB80009300B0FBF3F8E4
:10540000FEF7E0FCD4E9002300EB80009B0000EBFA
:105410008000B0FBF3F0A7FB0030400909FB1083CC
:105420001B013233A7FB0313C3F3431333432B4452
:105430009360BDE8F883764840F6881126F04EFF69
:1054400060697DE7FEF7CEFC734F636800EB800078
:1054500000EB80009B00B0FBF3F3A7FB03235B0989
:105460001D01FEF7BFFC666800EB800000EB8000CA
:10547000B600B0FBF6F6FEF7B5FC636800EB800003
:1054800000EB80009B00B0FBF3F3A7FB03234FF07E
:1054900064095B0909FB13631B013233A7FB032378
:1054A0005B0903F0F006FEF79DFC626800EB8000EC
:1054B000930000EB8000B0FBF3F8FEF793FCA1E74C
:1054C0009A4265D003F580639A4261D0FEF77AFC78
:1054D000514F636800EB800000EB80005B00B0FB85
:1054E000F3F3A7FB03235B091E01FEF76BFC656862
:1054F00000EB800000EB80006D00B0FBF5F5FEF7DF
:1055000061FC636800EB800000EB80005B00B0FB97
:10551000F3F3A7FB03235B094FF0640909FB135363
:10552000DB003233A7FB03231B0903F4F875FEF7F6
:1055300049FC626800EB800000EB80005300B0FB88
:10554000F3F8FEF73FFCD4E9002300EB800000EB0A
:1055500080005B00B0FBF3F3A7FB03135B0909FBBF
:105560001383DB003233A7FB0313C3F3421333442B
:105570002B449360BDE8F88340F68511244826F05B
:10558000ADFEC5E640F68711214826F0A7FED0E61D
:10559000FEF728FC204F636800EB800000EB8000E2
:1055A0005B00B0FBF3F3A7FB03235B091E01FEF7CF
:1055B00019FC656800EB800000EB80006D00B0FB1B
:1055C000F5F5FEF70FFC636800EB800000EB800050
:1055D0005B00B0FBF3F3A7FB03234FF064095B0907
:1055E00009FB1353DB003233A7FB03231B0903F42E
:1055F000F875FEF7F7FB626800EB8000530000EBE4
:105600008000B0FBF3F8FEF7EDFB9CE7A037A000AD
:10561000B8C60608001001401F85EB51002800F0B5
:10562000078182692DE9F84304460368002A00F0E7
:10563000EB80D7498B4200F0F181A1F54C418B42C0
:1056400000F0EC8101F550418B4200F0E7814FF40E
:105650008071D04826F042FEA269002A40F0DE8127
:10566000A36833F4805304D040F20711C94826F0F0
:1056700035FEE36933F4004304D04FF48471C54828
:1056800026F02CFE94F8393003F0FF02002B00F0D6
:1056900072812423226884F83930D3686068BE4957
:1056A00023F400538842D36000F25F81E36833F44F
:1056B000005304D040F68611B64826F00FFE236949
:1056C00033F4806203D0B3F5C06F40F05A81606953
:1056D0004FF6F373184200D128B9AE4840F688114E
:1056E00026F0FCFD60692268E5681169A3682669F7
:1056F00021F4405129431161D168E56921F4164133
:10570000334321F00C012B430B430343D360536914
:10571000A16923F440730B43B5F5004F53619C4BD3
:1057200000F088809A4200F0E28003F580639A429C
:1057300000F0DD80FEF746FB984F636800EB8000C9
:1057400000EB80009B00B0FBF3F3A7FB03235B0996
:105750001D01FEF737FB666800EB800000EB800060
:10576000B600B0FBF6F6FEF72DFB636800EB800099
:1057700000EB80009B00B0FBF3F3A7FB03235B0966
:105780004FF0640909FB13631B013233A7FB0323AA
:105790005B0903F0F006FEF715FB626800EB800082
:1057A00000EB80009300B0FBF3F8FEF70BFBD4E9AD
:1057B000002100EB80008B0000EB8000B0FBF3F3D6
:1057C000A7FB03135B0909FB13831B013233A7FB00
:1057D0000313C3F3431333432B449360136923F43C
:1057E00090431361536923F02A035361D368002562
:1057F000202143F40053D3602846E56384F8391030
:1058000084F83A10BDE8F883614A93423FF428AF28
:10581000A2F54C4293423FF423AF02F5504293422B
:105820003FF41EAF40F205115A4826F057FD17E726
:10583000012070479A4200F0B38003F580639A42DA
:1058400000F0AE80FEF7BEFA544F636800EB8000B4
:1058500000EB80005B00B0FBF3F3A7FB03235B09C5
:105860001E01FEF7AFFA656800EB800000EB8000D8
:105870006D00B0FBF5F5FEF7A5FA636800EB80005C
:1058800000EB80005B00B0FBF3F3A7FB03235B0995
:105890004FF0640909FB1353DB003233A7FB0323EA
:1058A0001B0903F4F875FEF78DFA626800EB8000BF
:1058B00000EB80005300B0FBF3F8FEF783FAD4E965
:1058C000002100EB80004B0000EB8000B0FBF3F305
:1058D000A7FB03135B0909FB1383DB003233A7FB30
:1058E0000313C3F3421333442B44936076E7FEF76C
:1058F00079FA2A4F636800EB800000EB80009B0080
:10590000B0FBF3F3A7FB03235B091D01FEF76AFA63
:10591000666800EB800000EB8000B600B0FBF6F696
:10592000FEF760FA636800EB800000EB80009B00EC
:10593000B0FBF3F3A7FB03234FF064095B0909FBFA
